:020000040800F2
:10000000B8040020D500000801190008450A0008BE
:1000100000000000000000000000000000000000E0
:10002000000000000000000000000000811C00082B
:10003000000000000000000091190008831C000867
:100040000501000805010008B91A000805010008AB
:100050000501000805010008050100080501000868
:100060000000000005010008050100080501000866
:100070000501000805010008000000000501000856
:100080000000000000000000000000000000000070
:100090000501000800000000000000000501000844
:1000A0000000000005010008000000000000000042
:1000B000351F0008D91400080000000000000000EF
:1000C0000348854600F0E6F8004800477D26000812
:1000D000B80400200C4880F308880C480168090E19
:1000E0000B4A914205D10B480B4901600B480C4962
:1000F00001600C4880470C480047FEE7FEE7FEE73A
:10010000FEE7FEE7FEE70000B80400200400000060
:100110001F000000341002400100000000000140F8
:10012000000000006D1E0008C100000830B50B463D
:10013000014600202022012409E00D46D5409D42C1
:1001400005D31D469540491B254695404019154647
:10015000521E002DF1DC30BD70B50024254600286C
:1001600001DA01244042002901DA01254942FFF762
:10017000DDFFAC4200D04042002C00D0494270BDAF
:10018000F0B51FB40646002082B005464024019118
:1001900000901BE0019922460F46304600F069F8B6
:1001A000049A059B801A994110D31046194622469D
:1001B00000F04FF8361A8F410197224601200021A6
:1001C000009F00F046F838184D4100902046641E0C
:1001D0000028DFDC019B00982946324607B0F0BDBD
:1001E00003460B439B0703D009E008C9121F08C050
:1001F000042AFAD203E00B780370401C491C521EFB
:10020000F9D27047D2B201E00270401C491EFBD205
:1002100070470022F6E710B513460A460446194611
:10022000FFF7F0FF204610BD421C0178401C00295A
:10023000FBD1801A704710B5002200E0521C835C8D
:100240008C5CA34201D1002BF8D1D8B2E1B2401AA4
:1002500010BD10B5202A04DB0146203A9140002051
:1002600010BD914020239C1A0346E340194390405F
:1002700010BD10B5202A04DB0846203AD0400021EA
:1002800010BD0B46D340D0402024A21A9140084311
:10029000194610BD064C0125064E05E0E36807CC63
:1002A0002B430C3C98471034B442F7D3FFF70CFFB4
:1002B00090280008B02800087CB500206946087125
:1002C0001948046829E0002504E06946681C085CB8
:1002D00048556D1C032DF8DB1448005D69464855F0
:1002E0001248005D3F2811D111A16846FFF7A3FF16
:1002F000002808D104210EA000F044F9601C0A492E
:10030000086001207CBD601C07490860601CC117A3
:10031000890E091889118901441A07480068844226
:10032000D1D10020EEE700001400002034000020AE
:1003300041434B3F000000000C00002001207047AB
:1003400030B58DB000BF1A480068401E1949085CDE
:100350003F28F8D116480068401E1749086034212C
:100360006846FFF756FF002412E012481349096857
:10037000425C2046641C69460A5410490968481CBE
:10038000C117890E091889118901411A0B4A116098
:100390000A480068084909688842E6D16846FFF7BC
:1003A00043FF05462946684601F0DCFD0DB030BD2F
:1003B0000C00002034000020100000201400002059
:1003C00010B50446230001F0C7FF081A050B080EFC
:1003D0001114171A00F096F910BD00F0E1F8FBE7D0
:1003E00000F032F9F8E700F0A9F8F5E7FFF7A8FF09
:1003F000F2E701F097FEEFE701F026FFECE70020BF
:10040000C043E9E730B58DB03A4805683A4804681A
:100410000EE03A48005D3F2803D1601C384908606F
:1004200008E0601CC117890E091889118901441A56
:10043000AC42EED100BFAC4202D100200DB030BDC5
:1004400034216846FFF7E5FE002412E02B482A49D4
:100450000968425C2046641C69460A5426490968BA
:10046000481CC117890E091889118901411A224AAD
:10047000116021480068224909688842E6D121A11B
:100480006846FFF7D8FE002801D10120D6E71FA15A
:100490006846FFF7D0FE002801D10220CEE71DA15B
:1004A0006846FFF7C8FE002801D10320C6E71BA15C
:1004B0006846FFF7C0FE002801D10420BEE719A15D
:1004C0006846FFF7B8FE002801D10520B6E717A15E
:1004D0006846FFF7B0FE002801D10620AEE715A15F
:1004E0006846FFF7A8FE002801D10720A6E70020F4
:1004F000A4E700000C0000201400002034000020BD
:10050000100000205453543F0000000050474D3F5E
:1005100000000000544D503F000000004750473F8E
:10052000000000004346473F000000004746473FA9
:100530000000000047534E3F0000000010B58EB091
:10054000074A322101A800F0D1F901A8FFF76CFE9B
:100550000446214601A800F015F800200EB010BD99
:1005600000000808014600BF0548816200BF00BFC7
:100570000348C069402210404028F9D1002070474C
:100580000044004030B503460C46002504E01878CE
:10059000FFF7E8FF5B1C6D1CA542F8DB002030BDB7
:1005A00010B58CB0234800F001FEC1B268468177D7
:1005B000204800F0EAFDC1B2684641771D4800F0CE
:1005C000D3FDC1B2684601771A4800F0BFFCC1B242
:1005D00068468175174800F0C5FCC1B26846417590
:1005E000144800F0D7FCC1B26846C175114800F04C
:1005F000CAFCC1B268460175017DC27D437D807D24
:1006000002930392049101906846007F009068462F
:10061000437F827F08A108A801F072FE08A8FFF7B7
:1006200003FE0446214608A8FFF7ACFF00200CB0EB
:1006300010BD000000280040257825782578257811
:10064000257825782578000070B58EB000BF284841
:100650000068401E2749085C3F28F8D124480068FC
:10066000401E25490860342101A8FFF7D2FD00F0A3
:100670004BF9224A322101A800F061F9054600F049
:1006800025F9002412E01B481D490968425C2046F8
:10069000641C01A90A541A490968481CC117890E2B
:1006A000091889118901411A154A11601448006816
:1006B000114909688842E6D111480068401C104978
:1006C00008600D480068401C0B49086000F01CF9E8
:1006D00001A8FFF7A9FD0646084A314601A800F027
:1006E0002EF9054600F0F2F828460EB070BD000065
:1006F0000C0000203400002010000020000008083A
:100700001400002030B58DB000BF66480068401E60
:100710006549085C3F28F8D162480068401E63497B
:100720000860002412E0604861490968425C204684
:10073000641C09A90A545E490968481CC117890E3E
:10074000091889118901411A594A116058480068ED
:10075000564909688842E6D1002108A88174002022
:10076000079008A8007930380A21414308A8407949
:1007700008183038C1B208A88170807930380A2151
:10078000414308A8C07908183038C1B208A84170A0
:10079000007A30380A21414308A8407A08183038D6
:1007A000C1B208A80170434800F0D0FBC1B268464E
:1007B000817608A8807A30380A21414308A8C07A97
:1007C00008183038C1B26846817608A8007B3038F6
:1007D0000A21414308A8407B08183038C1B2684656
:1007E000417608A8807B30380A21414308A8C07BA5
:1007F00008183038C1B26846C17608A9097C084695
:1008000030380721FFF7A8FCC8B26946087607AA66
:100810000021284800F0D6FC06AA0021254800F057
:10082000CBFB244800F0C2FC08A98870214800F0E6
:10083000ACFC08A948701F4800F096FC08A9087095
:100840001C4800F083FB694688761A4800F08AFB52
:1008500069464876174800F09DFB6946C8761548FA
:1008600000F091FB694608766846017EC27E437EB1
:10087000807E029303920491019008A80078009072
:1008800008A8437882780CA109A801F039FD09A8CD
:10089000FFF7CAFC0546294609A8FFF773FE0020AA
:1008A0000DB030BD0C0000203400002010000020EE
:1008B0001400002000280040257825782578257828
:1008C00025782578257800007047000000BF06488D
:1008D0008069C007C00F0028F9D103484068012192
:1008E00008430149486070470020024030B5034684
:1008F0001546002404E0287818705B1C6D1C641CED
:100900008C42F8DB002030BD07484068C007C00FAC
:10091000002806D005480449C8600548C860002082
:1009200070470020C043FBE700200240EFCDAB89B9
:100930000504030202460B461A7000207047F0B50A
:1009400004460E46154600270BE020782946FFF79F
:10095000F1FF002802D00020C043F0BD641C6D1CD4
:100960007F1CB742F1DB0020F7E705200007406954
:10097000FF2101310843052109074861704705201F
:1009800000074069FF2101318843052109074861BB
:1009900070470000034840691021884301494861BD
:1009A00070470000000400501FB510A30FCB6C4629
:1009B0000FC400240020044614E000BF0F488068E4
:1009C000802108408028F9D06846015D0B4800F07E
:1009D000E7FC00BF09488068802108408028F9D0E2
:1009E000601C0446102CE8DB04B010BDB5620601A3
:1009F0000800F100010101010100053F0030014044
:100A000000B589B0FFF7C6FFFFF7AFFF322001F056
:100A100061FAFFF7B4FF322001F05CFAFFF7C4FF80
:100A2000074801F07BFA00BF012080070069C0077A
:100A3000C00F0028F8D008980F28F5DC09B000BDD9
:100A40003075000000BFFEE708B50549896B01431A
:100A5000034A91631146896B0140009100BF08BDB4
:100A60000010024008B50549496B0143034A516330
:100A70001146496B0140009100BF08BD00100240C3
:100A8000024949688143014A5160704700040140AE
:100A9000024909688143014A11607047000401401E
:100AA000024949680143014A51607047000401400E
:100AB0000249C9680143014AD160704700040140FE
:100AC000024909680143014A11607047000401406E
:100AD000024989680143014A91607047000401405E
:100AE00070B504460025207900284DD020680028E4
:100AF00050D06079002804D0012809D0022815D1EF
:100B00000DE02068FFF7BCFF2068FFF7D9FF0FE07A
:100B10002068FFF7BDFF2068FFF7C2FF08E02068EC
:100B2000FFF7CEFF2068FFF7BBFF01E0012500BF04
:100B300000BFA07900282DD0A079012804D0022878
:100B40000DD003281DD115E020681349C9688143E1
:100B5000114AD16000BF2068FFF7BAFF13E0206898
:100B60000D49896881430C4A916000BF2068FFF7F6
:100B70009FFF08E02068FFF7ABFF2068FFF798FFB2
:100B800001E0012500BF05E02068FFF781FF206834
:100B9000FFF776FF284670BD00040140F0B502461D
:100BA0000B460026002162E00124B4401868204072
:100BB000014600295AD0586814680D464D436F000D
:100BC000ED19AC430D464D4345432C43146000BF23
:100BD0005868012802D0586802280DD19868946896
:100BE0000D464D436F00ED19AC430D464D43454353
:100BF0002C43946000BF00BF1869D4680D464D4374
:100C00006F00ED19AC430D464D4345432C43D46072
:100C100000BF5868022829D1FF2911D85869146AE1
:100C20000D464D434D434D432F017D1BAC430D46B7
:100C30004D434D434D4345432C43146200BF15E0E3
:100C40005F69080A40430C0A60430C0A60430401D0
:100C5000241A506AA0430C0A64430D0A6C430D0A1F
:100C60006C437C432043506200BF00BF761C186871
:100C7000F040002898D15868012802D0586802280E
:100C800009D1DC68186855688543074667433D43CA
:100C9000556000BF00BF0020F0BD8162704730B5D5
:100CA00003680C464C4365006419A3430C464C434F
:100CB00054432343036030BD30B5C3680C464C43F6
:100CC00065006419A3430C464C4354432343C3605B
:100CD00030BD000008B50549C96A0143034AD16225
:100CE0001146C96A0140009100BF08BD00100240D2
:100CF00070B504467D25ED0029462046FFF716FA1B
:100D0000401E04494861002088610520086100BF39
:100D100070BD000000E000E0FEB504460D46012075
:100D20000290002600BF2068C007C00F0121484084
:100D30004840002837D1E9686868084329690843B2
:100D400021681A4A114008432060A868616803229C
:100D5000120391430143616000BF6869A1681211E9
:100D600091430143A16000BF900000F02DF80646BA
:100D7000002E18D02868002815D0002002902F6877
:100D8000FF210131304601F0CFFA7A0800238018A4
:100D900059413A4601910090FFF7F2F904490840A1
:100DA000E06000BF00BF0298FEBD0000F3E9FFEF66
:100DB000FFFF0F000348006901218904084301492E
:100DC0000861704740100240F8B50446002500BF96
:100DD0001948C0682040002820D001218902401A0B
:100DE00004D0401A06D0401A17D10FE000F0F6FDEB
:100DF00005461DE000F066F8002806D000F06AF80D
:100E0000002801D00D4D00E00D4D11E000F06AF812
:100E1000002801D00125ED030AE000BF00F0DEFD4F
:100E2000074600F0B7FD064600F0C6FD054600BFC8
:100E300000BF2846F8BD00004010024000093D00F8
:100E40000024F400F8B5044600250C2C32D100BF74
:100E50001948C0682040210408432104401A1ED0CC
:100E6000042804D0082806D00C2817D10FE000F081
:100E7000B5FD05461DE000F025F8002806D000F07D
:100E800029F8002801D00D4D00E00D4D11E000F0D3
:100E900029F8002801D00125ED030AE000BF00F089
:100EA0009DFD074600F076FD064600F085FD0546EF
:100EB00000BF00BF2846F8BD4010024000093D00B9
:100EC0000024F400024800680421084080087047AC
:100ED00000100240024800681021084000097047D5
:100EE0000010024003480069012149020840400AFD
:100EF0007047000040100240024840680721490343
:100F00000840704700100240F8B5069CF0252540C7
:100F10002D042607360B35434E033543F0261E407D
:100F200036021F073F0D3E433543F0261640170794
:100F30003F0F3E43354300954568034E3540009EC4
:100F400035434560F8BD0000C00000FF0146486819
:100F50008206920E302010400009000113071B0F7B
:100F600018437047014648681F231B021840024679
:100F7000012000031040000B00010F231B0213404F
:100F80001B0A184370470146486807225203104065
:100F9000400B704701464868FF231B041840024677
:100FA0000F2000051040000D00010F231B0413400B
:100FB0001B0C184370470000F7B584B00D4614466B
:100FC00001200390002D09D16078102108401028DD
:100FD00004D16078EF2108400A306070002D00D104
:100FE00000E000BF049800F055F8049800F05AF8AB
:100FF000012843D0002D08D0E07800906378A278D3
:1010000021780498FFF780FF29E0E0780A21FFF7B4
:101010008DF80701E0780A21FFF788F80F43FEB248
:1010200060780A21FFF782F8070160780A21FFF74C
:101030007DF80F43F8B20290A0780A21FFF776F806
:101040000701A0780A21FFF771F80F43F8B2009664
:10105000019021780246029B0498FFF755FF0A4849
:1010600000F014F8049800F058F8002804D104980F
:1010700000F018F9039001E000200390049800F0BC
:101080000EF8039807B0F0BD002800408021C94346
:10109000C1607047CA214162532141627047FF21FC
:1010A00041627047F8B505467D20C00000900026DB
:1010B000284600F026F800281CD100BF401EE8603A
:1010C00000BF284600F01DF804460EE000F07EF94F
:1010D000012802D10098401E0090284600F011F827
:1010E00004460098002800D101260098002801D06D
:1010F000012CEBD13046F8BD0146886840221040F3
:1011000070470146C8684022104080097047014678
:10111000C868202210404009704701468868202294
:101120001040400970470000F8B5069CF0251540B6
:101130002D041607360B35430D43F0261E403602AC
:101140001F073F0D3E433543F026264027073F0F3C
:101150003E43354300950568024E3540009E3543B9
:101160000560F8BD808080FF014608683F231B04AE
:1011700018400246032000051040000D00010F2317
:101180001B0413401B0C18437047014608687F235B
:101190001B0218400246072000031040000B00010C
:1011A0000F231B0213401B0A1843704701460868AF
:1011B0004206520E702010400009000113071B0F59
:1011C00018437047F7B584B00D46144601200390CC
:1011D000002D09D10498FFF78FFF002800D002E00E
:1011E0000020206000BF09E00498FFF785FF002879
:1011F00000D002E00020206000BF00BF0498FFF78D
:1012000049FF0498FFF74EFF012843D0002D08D076
:10121000A07900906379227921680498FFF784FF10
:1012200029E0A0790A21FEF781FF0701A0790A21B0
:10123000FEF77CFF0F43FEB260790A21FEF776FFCE
:10124000070160790A21FEF771FF0F43F8B202909F
:1012500020790A21FEF76AFF070120790A21FEF7AB
:1012600065FF0F43F8B20096019021680246029B89
:101270000498FFF759FF0A48FFF708FF0498FFF7A3
:101280004CFF002804D1049800F00CF8039001E012
:10129000002003900498FFF702FF039807B0F0BD09
:1012A00000280040F8B504467D20C00000900025CD
:1012B00000BFE06880210840A021C9430843E060E6
:1012C00000BF2046FFF723FF06460EE000F07EF841
:1012D000012802D10098401E00902046FFF717FF1A
:1012E00006460098002800D101250098002801D06A
:1012F000002EEBD1012D1BD07D20C0000090204698
:10130000FFF705FF06460EE000F060F8012802D165
:101310000098401E00902046FFF7F9FE0646009810
:10132000002800D101250098002801D0012EEBD122
:101330002846F8BD30B50246012300BF106840249E
:1013400020408009002826D14C68086820438C681A
:101350002043CC6820430C6920434C6920438C69AE
:101360002043CC6920430C6A204314680B4D2C4069
:101370002043106050680424A0434C69240C20438F
:1013800050605C03086AA04204D1486A84B21461C8
:1013900000BF00BF0023184630BD00004000FFFF23
:1013A0000173704710B5084A0B069B0DD2580C0C00
:1013B0000F23A3409A430C0C0346A3401A43024B4D
:1013C0000C06A40D1A5110BD080001400348006925
:1013D000012109040840000C7047000000E000E013
:1013E00001490860704700003000002001680122B8
:1013F0001143016070470000F0B585B004460D460A
:101400000120049000200390204600F05DF80028A1
:1014100050D1E9686868084329690843A969084305
:101420002168264A114008432060A86861680322A9
:10143000120391430143616000BF6869A168121102
:1014400091430143A16000BF1D48844203D10C2099
:10145000FFF7F8FC0390039800282BD02868002899
:1014600028D000200490039FA86902902E680121D3
:10147000C9030298884214D179007208881831464D
:10148000FEF754FE80B201900E490198084000908A
:1014900001980007400F0099084300900098E06011
:1014A00006E07108C8193146FEF740FE80B2E060E0
:1014B00000BF00BF049805B0F0BD0000F369FFEF66
:1014C00000440040F0FF000001460868C007C00F5C
:1014D00001225040504070470A48406A0A490B4A6E
:1014E0001268885409490968481CC117890E0918EF
:1014F00089118901411A054A1160012004490860D7
:1015000070470000004800407400002018000020D0
:101510002400002000B589B0002007900890182111
:1015200001A8FEF776FE0420FFF7D4FB0120FFF7A9
:10153000D1FB0220FFF7CEFB082105200007FFF7B3
:10154000ACFBFF21013105200007FFF7A6FB0121BD
:10155000C90205200007FFF7A0FB08214648FFF756
:101560009CFB10214448FFF798FB20214248FFF7DD
:1015700094FB082001900120029000200390049029
:10158000059001A905200007FFF708FBFF200130A7
:10159000019001200290002003900490059001A981
:1015A00005200007FFF7FAFA0120C0020190012090
:1015B0000290002003900490059001A905200007E7
:1015C000FFF7ECFA08200190012002900020039020
:1015D0000490059001A92848FFF7E0FA1020019037
:1015E00001200290002003900490059001A9224858
:1015F000FFF7D4FA202001900120029000200390F0
:101600000490059001A91C48FFF7C8FA1B49012066
:10161000FFF7C8FE1A490120FFF7C4FE002240214F
:101620001548FFF749FB002280211348FFF744FBD0
:10163000002240211048FFF732FB002280210E4893
:10164000FFF72DFB40200790012108A80170002121
:1016500041700121817007A8FFF742FA80200790AE
:10166000012108A80170002141700121817007A8A3
:10167000FFF736FA09B000BD000400500100080071
:1016800001000C0000B58DB0182107A8FEF7C1FDC0
:10169000182101A8FEF7BDFD01208004FFF7D4F951
:1016A0000120FFF717FB0120019002200290032088
:1016B00003900020049005900620069001A90520C3
:1016C0000007FFF76BFA02200190029003200390BD
:1016D0000020049005900620069001A9052000072F
:1016E000FFF75CFA00211D2000F016F91D2000F024
:1016F00009F94B20C00107900020089009900A903A
:101700000C200B9000200C9007A90248FFF704FB67
:101710000DB000BD004800400EB5002000900190C3
:101720000290FFF747FB0021022000F0F5F80220AD
:1017300000F0E8F8002000907F200190FF20029048
:1017400000BF084880680121890208430549886074
:1017500000BF00208968C908C9000143014A91609F
:1017600000BF0EBD0028004000B591B0282107A899
:10177000FEF74FFD182101A8FEF74BFD01200003E5
:10178000FFF770F90120FFF7A5FA20200190022051
:10179000029003200390002004900590069001A978
:1017A00005200007FFF7FAF940200190022002907F
:1017B00003200390002004900590069001A90520C5
:1017C0000007FFF7EBF98020019002200290032030
:1017D0000390002004900590069001A905200007C1
:1017E000FFF7DCF900200790FF200530089000206B
:1017F00009900A900B90012040020C9000200D905F
:101800000E900F900720109007A90C48FFF792FD4B
:1018100000200A494968102291430143074A516058
:1018200000BF1046006840210840402804D0104600
:10183000006808431146086011B000BD0030014047
:1018400000B58DB01C2106A8FEF7E3FC1821684600
:10185000FEF7DFFC01204004FFF7F6F80120FFF758
:1018600039FA0120400200900220019003200290EA
:10187000002003900490042005906946052000078D
:10188000FFF78CF9012080020090022001900320D4
:1018900002900020039004900420059069460520E2
:1018A0000007FFF77BF900211C2000F035F81C2011
:1018B00000F028F84B20C001069000200790089007
:1018C00009900C200A9000200B900C9006A90B4860
:1018D000FFF792FD00BF094840680921C90288430B
:1018E00006494860084680682A2188430349886081
:1018F00000BF0846FFF77AFD0DB000BD0044004070
:1019000070470000C206D20E01219140014A1160C9
:101910007047000000E100E010B5002819DA1A4A0B
:1019200003071B0F083B9B089B00D2588307DC0E64
:10193000FF23A3409A438B071B0E8407E40EA340AA
:101940001A43114B0407240F083CA408A4001A51A1
:1019500018E00E4A03231B02D21883089B00D258BA
:101960008307DC0EFF23A3409A438B071B0E8407DB
:10197000E40EA3401A43054B032424021B198408D8
:10198000A4001A5110BD00001CED00E000E100E0D1
:1019900070470000014600BF0548C068F0221040B3
:1019A00010400009034A125C0846D040704700000E
:1019B000001002406C280008014600BF0548C068BE
:1019C000072212021040000A034A125C0846D04067
:1019D00070470000001002407C28000810B500BFCE
:1019E0001648C0680C210840002806D004280CD0F6
:1019F000082812D00C2816D111E0FFF77DFA400B11
:101A0000401C01218140CC0315E0FFF763FA002858
:101A100001D00B4C00E00B4C0DE00B4C0BE000F048
:101A200015F8044607E0FFF767FA400B401C012158
:101A30008140CC0300BF00BF204610BD0010024013
:101A400000093D000024F40000127A00F8B500BF40
:101A50001448C0680121090408400546002D07D13B
:101A6000FFF738FA002801D00F4C00E00F4C01E0DE
:101A70000F4C00BF00BF00BF0A48C06803218905A2
:101A80000840800D461C0748C0680F2189040840A3
:101A9000800C0849085C604307463146FEF746FB68
:101AA000F8BD00000010024000093D000024F400D1
:101AB00000127A00842800080C48C068FF21013118
:101AC0000840884210D10120094908600748C068D1
:101AD000FF21013188430549C8600648406901215A
:101AE000490408430349486170470000002800404A
:101AF000000000200004014010B500BF384B1B68F7
:101B00003F24240423401A4603231B0513401B0DC6
:101B10001B010F2424041440240C2343037100BF31
:101B20002F4B1B687F24240223401A4607231B03E4
:101B300013401B0B1B010F2424021440240A2343CF
:101B4000437100BF264B1B685A06520E7023134088
:101B50001B091B011407240F2343837100BF204A74
:101B6000126801239B051A40026000BF1C4B5B6892
:101B70009A06920E302313401B091B011407240FF1
:101B800023438B7000BF164B5B681F242402234045
:101B90001A4601231B0313401B0B1B010F242402B5
:101BA0001440240A23434B7000BF0D4B5B68FF2495
:101BB000240423401A460F231B0513401B0D1B0151
:101BC0000F2424041440240C2343CB7000BF044A88
:101BD000526807235B031A40520B0A7010BD0000C5
:101BE0000028004000BFCA202149486253204862B3
:101BF00000BF00BF08468068891588431C4988607B
:101C000000BF08468068052189020843184988609A
:101C10000920F02101400143154AD269D209D201BD
:101C20001143134AD16100BF12481146C969124AD3
:101C3000114001430E4AD16100BF00BF10468068C9
:101C4000911508431146886000BF00BFFF2048621D
:101C500000BF0A4800680121490408430749086099
:101C60000846806801214904084304498860704798
:101C700000280040008080807F7F7F7F000401403B
:101C80007047704710B5002073490968490849003A
:101C90000143714A116000BF00BF10460068C007D1
:101CA000C00F002801D0FEF70FFE0120C0026B49D3
:101CB00009680322D20291430143684A116000BFC0
:101CC00000BF67480068911508436549086000BF78
:101CD00000BF00BF62480068012149020840400A75
:101CE0000028F6D048015E49496807225203914313
:101CF00001435B4A516000BF002011464968090258
:101D0000090A02061143564A516000BF00BF5348FA
:101D10000068911508435149086000BF00BF504852
:101D2000403000690121C90408434D494031086130
:101D300000BF00BF084600690121C9048843484923
:101D40004031086100BF002009690322D20291439B
:101D50000143434A4032116100BF00BF1046006991
:101D6000911508431146086100BF00BF00BF3C4801
:101D700040300069012149020840400A0028F5D09E
:101D8000C8013749403109690322120491430143D4
:101D9000334A4032116100BFFFF70CF80020304990
:101DA000C968F022914301432D4AD16000BF00BFB2
:101DB0001146C9680722120291430143284AD160A3
:101DC00000BF00BF1146C9680722D20291430143F8
:101DD000234AD16000BF00BF1146C9688908890045
:101DE0000143D16000BF00BF00BF1D48C0680C2187
:101DF00008400028F8D101208004FEF779FF042074
:101E0000042806D11749096904221143154A1161B2
:101E100005E01449096904229143124A116100BF87
:101E200001208004FFF7DCFA0F480D494031C968F2
:101E3000020C914382B21143094A4032D16000BF83
:101E400000201146C9680322920291430143044ACB
:101E50004032D16000BF10BD002002400070004041
:101E60000010024000E000E004000C00154800688B
:101E7000FF2101310843134908600846C068124930
:101E800008401049C86008460068104908400D49DC
:101E9000086008468068400840008860084600687E
:101EA000012189048843074908600846C068FD216C
:101EB000090488430349C86000200861C803044935
:101EC00088607047001002400C40FF88F6FFF6FE65
:101ED00000ED00E00146002001229207106110464B
:101EE000C1620068012210439207106000BF012008
:101EF00080070069C007C00F0028F8D00020704795
:101F00000548806B0121084303498863FF2007309F
:101F100089048862704700000010024000210122FD
:101F2000920711611146C8620968012211439207A4
:101F3000116070470848406A0849094A1268885485
:101F400007490968481CC117890E091889118901B8
:101F5000411A034A116070470044004034000020D9
:101F60000C00002070B58AB004460D460020049095
:101F7000059006900190029003900622214601A848
:101F8000FEF72EF9AA1FA11D04A8FEF729F90020CB
:101F900007900890099003214EA000F0A3F969462C
:101FA00007A800F0FDF807A80099FEF7EBFA042156
:101FB00049A000F097F9012149A000F093F90D2004
:101FC00000F080F9694607A800F0EAF807A8009930
:101FD000FEF7D8FA042143A000F084F9032143A0BE
:101FE00000F080F90D2000F06DF9694607A800F0B7
:101FF000D7F807A80099FEF7C5FA04213CA000F025
:1020000071F904A8FEF710F90646314604A800F05D
:1020100069F90D2000F056F9694607A800F0C0F8EC
:1020200007A80099FEF7AEFA042133A000F05AF990
:1020300001A8FEF7F9F80646314601A800F052F96A
:102040000D2000F03FF9694607A800F0A9F807A89D
:102050000099FEF797FA042129A000F043F90D201A
:1020600000F030F9694607A800F09AF807A800992F
:10207000FEF788FA042124A000F034F90D2000F0C6
:1020800021F9694607A800F08BF807A80099FEF728
:1020900079FA042118A000F025F90D2000F012F9BA
:1020A000694607A800F07CF807A80099FEF76AFACD
:1020B00004210FA000F016F90D2000F003F9694685
:1020C00007A800F06DF807A80099FEF75BFA00205A
:1020D0000AB070BD2B2B2B0041544354000000006C
:1020E00035000000415447540000000031463400E0
:1020F0004154444C0000000041544448000000009A
:102100004154414300000000415457520000000078
:102110000348406920210843014948617047000095
:102120000004005000B58FB0342102A8FEF771F80A
:10213000032116A000F0D6F801A902A800F030F89B
:1021400002A80199FEF71EFA042111A000F0CAF8B6
:102150000D2000F0B7F801A902A800F021F802A8AC
:102160000199FEF70FFA04210BA000F0BBF80D2037
:1021700000F0A8F801A902A800F012F802A801993D
:10218000FEF700FA00200FB000BD00002B2B2B0043
:1021900041544448000000004154444C00000000F9
:1021A00070B504460D4600BF22480068401E224913
:1021B000085C0D28F8D11F480068401E1F490860C0
:1021C000002611E01C481E490968425C3046761C16
:1021D00022541B490968481CC117890E0918891126
:1021E0008901411A164A11601548006813490968A7
:1021F0008842E7D10020134908602046FEF714F812
:1022000028600C490968481CC117890E09188911F2
:102210008901411A074A116009490968881CC117D8
:10222000890E091889118901411A054A1160002097
:1022300070BD000018000020740000201C00002069
:10224000200000202400002000B58FB0342102A817
:10225000FDF7DFFF032116A000F044F801A902A852
:10226000FFF79EFF02A80199FEF78CF9042111A047
:1022700000F038F80D2000F025F801A902A8FFF7BA
:102280008FFF02A80199FEF77DF904210BA000F051
:1022900029F80D2000F016F801A902A8FFF780FF29
:1022A00002A80199FEF76EF900200FB000BD0000F2
:1022B0002B2B2B0041545348000000004154534C39
:1022C00000000000014600BF0548816200BF00BF5A
:1022D0000348C069402210404028F9D100207047CF
:1022E0000048004030B503460C46002504E018784D
:1022F000FFF7E8FF5B1C6D1CA542F8DB002030BD3A
:102300000FB410B504A9074B02AA039800F042F8D5
:10231000044602A9002000F0ABF9204610BC08BC1E
:1023200004B0184771260008F8B582B28BB2040CCD
:102330000D0C10465843002126465E43370C3604E8
:102340008019794116466E43370C3604801979415D
:1023500026466E438919F8BD30B47446641E25784C
:10236000641CAB4204D3635D5B00E31830BC1847C8
:102370001D46F8E702E008C8121F08C1002AFAD17A
:1023800070477047002001E001C1121F002AFBD1F5
:1023900070470000FFB58FB00F460446002606E0E8
:1023A00025280AD0129A11999047641C761C20782F
:1023B0000028F5D1304613B0F0BD00250121A14A17
:1023C000009500E00543641C23780846203B9840B4
:1023D0001042F7D120782E2815D1042005436078CB
:1023E000641C2A280AD101CF641C00900BE00099DC
:1023F0000A22514330394018641C0090207801466D
:1024000030390929F3D920786C280ED004DC4C2807
:1024100013D06A2812D104E074280ED07A280DD186
:102420000BE001204005054307E001210905627822
:102430000D43824201D16D18641C641C20788646CD
:1024400069284AD008DC0028B4D058286DD0632809
:1024500010D0642808D140E070286BD0732812D0C7
:10246000752860D0782860D0129A704611999047EC
:10247000761CE5E03878694608720020487202A8A8
:102480000190012003E0386801900020C0433F1D07
:1024900069070CD5002500E06D1C00998D420FDA0C
:1024A0008542F9DB0199495D0029F5D108E0002555
:1024B00000E06D1C8542FCDB0199495D0029F8D1E3
:1024C000761907E0019801990078491C0191129A48
:1024D000119990476D1EF5D2B2E00A2002900021BA
:1024E0006802400F039102280CD001CFC117844627
:1024F00000290DDA62460846524200218141944685
:102500002D2008E0FF1DFF08FF0003CF8446EFE702
:10251000280504D52B206A46107401203CE0E8070A
:102520003AD02020F7E70A2000E010200021039194
:10253000029007E0102002900021042005430820AB
:10254000039100906802400F022810D001CF0021B3
:10255000844600200D9028071FD5704670280CD0A7
:10256000029A1020039B42401A430CD015E0FF1D35
:10257000FF08FF0003CF8446EBE740206A46107453
:1025800001200D900CE06046084306D030206A46DA
:1025900010747046507402200D907046582804D074
:1025A00029A001900DA80E900DE02CA0F9E760463F
:1025B000039B029AFDF7E4FD019B84469B5C0E9A07
:1025C000521E0E92137060460843F0D10E9805A972
:1025D000081A20300190680701D5009801E0012019
:1025E00000900199884203DD01460198081A00E035
:1025F00000200025009006E004A8129A405D119981
:1026000090476D1C761C0D988542F5DB04E0129A0C
:10261000302011999047761C0099481E009000299F
:10262000F5DC08E00E980E990078491C0E91129A7C
:1026300011999047761C0199481E01900029F1DC00
:10264000641CB4E6092801003031323334353637A2
:1026500038396162636465660000000030313233EE
:10266000343536373839414243444546000000008E
:102670000A68531C0B601070704700001CB50120E5
:10268000FEF7F0F901200007FEF7DEF9FFF7FAFA8E
:10269000FEF740FFFFF740F8FFF766F8FFF7D0F8C6
:1026A000FEF7F0FF00BF29480068400840002749B6
:1026B000086000BF00BF2648006840084000244969
:1026C000086000BF084600682021084320490860D0
:1026D0001E480068202108431C49086000BF1C48B0
:1026E0000068012108431A49086000BF1748FEF737
:1026F0007DFE62B6FFF776FAFFF702FCFFF708FDF2
:10270000002001900090FEF730F91EE0FDF716FE64
:1027100000280DD0FDF7D0FD002809D004E0FDF71A
:1027200071FE0446FDF74CFEFDF708FE0028F6D1C9
:1027300008480068012803D1694601A800F00CF898
:102740000198012801D1FEF75BF9DFE70044004062
:102750000048004000000020F0B587B005460C4658
:102760003F4806780078801CC7B23D480078001DBD
:10277000C0B206903A480078801DC0B20590384833
:1027800000780830C0B2049001A902A8FFF7B4F99C
:10279000002E07D06846017901208840002801D02A
:1027A000012000E00020002817D06846007BB842D6
:1027B00001DB012000E0002069460A7B06998A427D
:1027C00001DA012100E000210840002802D00120A8
:1027D000206004E00020206001E0002020606846C6
:1027E000007B002801D1012000E000206946497BE0
:1027F000002901D1012100E00021084000280AD071
:10280000012028606846007B164908706846407BB6
:102810001549087022E06846017B0598081A11499D
:102820000978884201DB012000E0002069464A7BEC
:102830000499511A0C4A1278914201DB012100E0FF
:1028400000210840002809D0012028606846007B4C
:10285000044908706846407B0349087007B0F0BD22
:10286000000008082C0000202D00002000000000BF
:102870000000000001020304060708090000000030
:1028800001020304030406080C10182030000000A5
:10289000B028000800000020340000007423000865
:1028A000E428000834000020840400008423000889
:1028B0000000000000000000000000000000000018
:1028C0000000000000000000000000000000000008
:1028D00000000000000000000000000000000000F8
:0428E00000002000D4
:04000005080000C12E
:00000001FF
