:020000040800F2
:10000000B0040020D5000008B5130008D90C000882
:1000100000000000000000000000000000000000E0
:100020000000000000000000000000001D15000896
:100030000000000000000000B71300081F150008B2
:100040000501000805010008411400080501000829
:100050000501000805010008050100080501000868
:100060000000000005010008050100080501000866
:100070000501000805010008000000000501000856
:100080000000000000000000000000000000000070
:100090000501000800000000000000000501000844
:1000A0000000000005010008000000000000000042
:1000B000A5160008811300080000000000000000E1
:1000C0000348854600F02EF900480047711A0008E1
:1000D000B00400200C4880F308880C480168090E21
:1000E0000B4A914205D10B480B4901600B480C4962
:1000F00001600C4880470C480047FEE7FEE7FEE73A
:10010000FEE7FEE7FEE70000B00400200400000068
:100110001F000000341002400100000000000140F8
:100120000000000005160008C100000830B50B46AD
:10013000014600202022012409E00D46D5409D42C1
:1001400005D31D469540491B254695404019154647
:10015000521E002DF1DC30BD70B50024254600286C
:1001600001DA01244042002901DA01254942FFF762
:10017000DDFFAC4200D04042002C00D0494270BDAF
:10018000F0B51FB40646002082B005464024019118
:1001900000901BE0019922460F46304600F0B0F86F
:1001A000049A059B801A994110D31046194622469D
:1001B00000F096F8361A8F4101972246012000215F
:1001C000009F00F08DF838184D4100902046641EC5
:1001D0000028DFDC019B00982946324607B0F0BDBD
:1001E00003460B439B0703D009E008C9121F08C050
:1001F000042AFAD203E00B780370401C491C521EFB
:10020000F9D27047D2B201E00270401C491EFBD205
:1002100070470022F6E710B513460A460446194611
:10022000FFF7F0FF204610BD10B5044605E00B783F
:100230000370401C002B00D0491C521EF7D22046F0
:1002400010BD421C0178401C0029FBD1801A704768
:1002500030B504460020034600E05B1C934203D205
:10026000E05CCD5C401BF8D030BD03460A780270DC
:10027000401C491C002AF9D11846704770B5104D32
:10028000002800D12868002414E00A4602E09E42BB
:1002900003D0521C1378002BF9D1DAB2224307D0D5
:1002A000002B06D0002C04D000210170401C04E07B
:1002B0000446401C0678002EE7D12860204670BD19
:1002C000000000200122D207002800DB101A0029BC
:1002D00000DB511A814201D901207047002070478C
:1002E00010B5202A04DB0146203A9140002010BDC1
:1002F000914020239C1A0346E3401943904010BDCF
:1003000010B5202A04DB0846203AD040002110BD59
:100310000B46D340D0402024A21A914008431946EE
:1003200010BD0000064C0125064E05E0E36807CC31
:100330002B430C3C98471034B442F7D3FFF7C4FE6C
:10034000FC2300081C240008FEB501A80021009130
:100350000171DC4E37687468174D1FE0002004E01F
:1003600001A90A1852780A54401C0328F8D1301900
:10037000007B01A9C8703F2809D101A805222946A0
:10038000FFF766FF00280DD0601C706000E0601C65
:10039000C117890E41183F229143441ABC42DDD156
:1003A000009806E00448042100F010F9601C706019
:1003B000012003B0F0BDC046D723000801207047DC
:1003C00070B58EB0BF4D2868461EA819007B3F2827
:1003D000FDD1AE6001AC32212046FFF71AFF6868FC
:1003E0000BE02918097B2170401CC117890E4118A8
:1003F0003F229143401A6860641CB042F1D101ACC5
:100400002046FFF71EFF0146204601F061F90EB0BD
:1004100070BDC04610B50024401E07280BD8C0464A
:10042000784400794000874403080B0E1114171A12
:1004300000F04CF916E0E44314E000F003F910E09A
:1004400000F0D2F80EE000F0A5F80BE0FFF7B8FFDF
:1004500007E001F039FA04E001F0AAFA01E000F047
:100460000BFA0446204610BDF0B58DB0384D41CD95
:100470003146083D0AE06A18127B4F1C3F2A09D01A
:10048000F917890E79183F229143791A8142F2D1E6
:1004900000245AE0AF606C4632212046FFF7B9FED7
:1004A0000BE0A819007B2070701CC117890E411841
:1004B0003F229143461A6E60641CBE42F1D16846E9
:1004C00024A10522FFF7C4FE002833D0684623A1EB
:1004D0000522FFF7BDFE00282ED0684621A1052287
:1004E000FFF7B6FE002829D0684620A10524224641
:1004F000FFF7AEFE002823D068461EA12246FFF774
:10050000A7FE002821D068461CA10522FFF7A0FE07
:10051000002817D068461BA10522FFF799FE002886
:1005200012D0684619A10522FFF792FE41424141CF
:10053000CC000AE0012408E0022406E0032404E0E1
:10054000042402E0062400E0072420460DB0F0BD9C
:10055000080000205453543F0000000050474D3F16
:1005600000000000544D503F000000004750473F3E
:10057000000000004346473F000000004746473F59
:100580000000000047534E3F000000004552533F1B
:100590000000000010B58EB001AC32214A4A20465E
:1005A00000F03CF92046FFF74CFE0146204600F0E3
:1005B0000DF800200EB010BD0349C8600868400661
:1005C000FCD500207047C0461C44004070B50C4666
:1005D0000546002603E0A85DFFF7EEFF761CA64265
:1005E000F9DB002070BD0000F0B58BB07F4A1068C9
:1005F000069011681368546855685668526812046A
:10060000520F6F46360CF6B2ED04ED0E3F2020403F
:100610009B029B0E3B603B1D61C33A617F220698A3
:1006200002404804430E07AC7149204601F02CFDFE
:100630002046FFF706FE01462046FFF7C7FF0020D1
:100640000BB0F0BDF0B58DB0674F3868401E39185B
:10065000097B3F29FDD1B8606D46322628463146D8
:10066000FFF7D7FD00F0E4F8174C28463146224644
:1006700000F0C0F800F0C8F87968B8680BE07A18A4
:10068000127B2A70491CCA17920E8A183F239A437C
:10069000891A79606D1C8142F1D1401C7860B86084
:1006A00000F0C6F86D462846FFF7CBFD0146284608
:1006B000224600F09FF8044600F0A6F820460DB050
:1006C000F0BDC0460800002000000808F0B58FB05B
:1006D00045480168491E4218127B3F2AFDD18160BE
:1006E00043680BAA0BE0C418247B14705B1CDC1756
:1006F000A40E1C193F25AC431B1B4360521C8B42AC
:10070000F1D10BAD0020A873024607900A260B9882
:10071000704369784018103809AFB8710C9870436D
:100720006979401810383871A8787043E978401812
:100730001038787109922D484068287B303807219D
:10074000FFF70AFD08AC2170A8797043E9794018D9
:100750001038A0700D987043697A40181038607096
:10076000A87A7043E97A40181038E0701F48079E55
:1007700031463A4600F0DEFC1C483146224600F085
:1007800041FC1A4908687F220240BA710868400497
:10079000400E0690787108688002830E3B714E68A7
:1007A00008463F213140A1704668F604F60E667097
:1007B00047683F0CE77040680004400F20706C46AB
:1007C000FFB22360231DC2C3206109492846069B4E
:1007D00001F05AFC2846FFF734FD01462846FFF792
:1007E000F5FE07980FB0F0BD08000020002800407B
:1007F000DC23000810B5002302E0C45C9C545B1CA1
:100800008B42FADB002010BD79484169C907FCD151
:10081000016801220A4302600020704710B50023DE
:1008200002E0D45CC4545B1C8B42FADB002010BD98
:1008300000206F490A68D20701D1C0437047614A5E
:100840008A60614A8A60704701464120C300684A55
:10085000106818431060002008605169C907FCD176
:100860005169890701D4C043704702215161116861
:10087000994311607047C0461CB50C4C01945C480C
:100880000168C90703D04F4981604F49816001A8C1
:1008900004214A4AFFF7AEFF00F09AF82046FFF71E
:1008A000D3FFFFF7B1FF002002B010BD00370008F2
:1008B000F0B595B01E9C14941C9C12941B9C019442
:1008C00011941A9C0CAD1FC51D98029013900AA894
:1008D0000CAD2946FFF7C9FC291D09A80424364F91
:1008E0002246B8472946083108A802263246B847AA
:1008F00029460A313246B84729460C3107A8224614
:10090000B8472946103106A82246B84705A80199DC
:1009100001702946153103263246B8472946183159
:1009200004A82246B8471C3503A829463246B847D2
:100930000299090EC1700BA8204E21463246FFF7DE
:100940006DFF00240B9D1E48854201D9E44330E031
:1009500027480168C90703D01A4981601A49816094
:1009600028462030307000F033F8680602D0284660
:10097000FFF76AFF0AA8154E2946B047291D09A8A6
:10098000B0472946083108A8B04729460C3107A8C6
:10099000B0472946103106A8B0472946143105A8AA
:1009A000B0472946183104A8B0471C3503A829468A
:1009B000B047204615B0F0BD290200081400080811
:1009C000FEFF0008EFCDAB8905040302FD09000816
:1009D000002007490A68920701D4C0437047054ABE
:1009E000CA60054ACA600A6802239A430A607047CF
:1009F00004200240BFAE9D8C1615141372B6094A2E
:100A00001368DB07FCD108601068C007FCD162B630
:100A100000201168890701D4C0437047022111608A
:100A20007047C0461820024001200002A5490A680C
:100A300002430A607047C046A148016810220A4379
:100A4000026070470020064906A205E00B681B06FD
:100A5000FCD4135C0B71401C1028F7D100207047A8
:100A600008300140B56206010800F10001010101F2
:100A70000100053FF0B5A5B0074605A87D21FFF7A9
:100A8000C8FB38460A3002903846153001900125DF
:100A900000205D4C039500970490039E50E005AD47
:100AA0007D212846FFF792FD287850282CD105A9F2
:100AB0004A785020552A27D18978422924D105A87F
:100AC0005249FFF7DBFB00251AE000204F49FFF7F2
:100AD000D5FB0146A81E032811D8C04678440079EA
:100AE000400087440103060A029803E0087838753D
:100AF00005E00198FFF7B9FB01E00878F8776D1C75
:100B0000162DE2D105A8007805A90026052547285D
:100B100016D148784E2813D18878522810D1C87839
:100B20004D280DD105A83949FFF7A8FB162704E089
:100B300000203649FFF7A2FB7F1E002FF8D1009F4F
:100B4000F0075FD0681E0428FCD8C04678440079BE
:100B500040008744040313350200A0E7F2E70020B9
:100B6000207121680906FCD46168C9B203252429D3
:100B700092D0B52904983FD001253EE00020207195
:100B800021680906FCD4616805AA049BD154CAB245
:100B90000125FF2A29462AD02A2A27D12071216837
:100BA0000906FCD46168207120680006FCD46068E6
:100BB00005A8C0180A2181700D214170052116E099
:100BC0000020207120680006FCD4606805A9049A02
:100BD0008854C1B20125FF29284602D00C48016083
:100BE00004207C2A00DC0546501C55E703217C2BA1
:100BF00000DC0D46581C4FE70425B52900D04BE713
:100C0000002049E725B0F0BD08300140F923000875
:100C100028440040F0B595B029480168102291435E
:100C2000016001200B900402264D286820432860B3
:100C3000962000F00FFD2868A0432860052000F0F2
:100C400009FDFFF7FFFE204800F022FD00271F4CA2
:100C50000A97089706970997079705973E4611E068
:100C60000CA8FFF707FF149C139F12980A90119885
:100C70000890109806900F9809900E9807900D987C
:100C800005900C9E124805680B98054020461149B6
:100C9000FFF718FB0028E3D1002DE1D06846069944
:100CA0000160089941600A998160C760046130461B
:100CB0000599079A099BFFF7FBFD002015B0F0BDD1
:100CC00014040050140000503075000000C0794436
:100CD0001000004000007041FEE7000081B00549AF
:100CE0000A6802430A60096801400091009801B057
:100CF0007047C0463810024081B005490A68024377
:100D00000A60096801400091009801B07047C04630
:100D10003410024010B5014602680079002810D056
:100D2000002A15D04879204B022813D0012814D06E
:100D300000281AD15868904358601868104318600A
:100D400011E0194801689143016041689143416095
:100D5000002010BD1868104301E018689043186027
:100D6000586810435860002000E001208979032969
:100D70000DD8C0467944097949008F4409010A0D0C
:100D8000D9689143D96099681143996010BD0120D9
:100D900010BD9968914301E0996811439960D96841
:100DA0001143D96010BDC04600040140F8B50026CB
:100DB0003AE00124B4402340002B34D000961C4676
:100DC0005C434D6826466E43032767430268BA4377
:100DD00032430260FE436A1E012A05D88A686243D4
:100DE00087683740174387600A696243C76837409E
:100DF0001743C760022D009E15D14D69FF2B08D8FF
:100E0000644365430F226243036A93432B430362A7
:100E100009E01A0A5243524355430F235343426A8F
:100E20009A432A434262761C0B681C46F440C0D1A8
:100E30004A68521E012A05D8C968594342689A4334
:100E40000A434260002001B0F0BD000081B00549B6
:100E50000A6802430A60096801400091009801B0E5
:100E60007047C0462C10024080B57D21C900FFF7B5
:100E70005DF9401EA5494860002088600520086093
:100E800080BDC04670B5054600680124C0072BD15F
:100E90000E4628681549014070680843F16801430F
:100EA000306908432860B168032002036B689343EC
:100EB0000B436B6071690202AB6893430B43AB60F9
:100EC000800200F017F800280ED03268002A0BD0FC
:100ED000010E530800020024C01861412346FFF7A9
:100EE0004FF903490140E960204670BDF3E9FFEF87
:100EF000FFFF0F0010B5334CE16C01400A20C141E7
:100F0000032906D002290AD001290DD100F054FA94
:100F100010BD0120C103206D8001084010BD206874
:100F2000400710D4002010BD00F046FAE168E268E6
:100F30005205520F274B9A5C0906090F264B595C44
:100F4000C840D04010BD2068C00601D5204810BD63
:100F50001E4810BD10B5014600200C292ED1194C99
:100F6000E16C0C220A40032189045118164A8918A1
:100F70008908032906D002290AD0012910D100F0DE
:100F80001BFA10BD0120C103206D8001084010BD77
:100F90002168490712D52068C00610D50C4810BD3D
:100FA00000F00AFAE168E2685205520F094B9A5CB8
:100FB0000906090F084B595CC840D04010BD0348D2
:100FC00010BDC046001002400000F4FF0024F400F1
:100FD00000093D00C6230008B6230008B0B54468E8
:100FE000074D25404903D2B251181A0292B20A4362
:100FF00004990906090A114329434160B0BDC0465E
:10100000C00000FFF0B585B015460E460446002925
:1010100006D16878C10603D5EF2108400A30687010
:10102000CA20606253206062204600F04DF801281B
:1010300001D1012043E0AA782F78002E06D06B78EA
:10104000E87869460860204639462AE00492E87844
:1010500002900A2631460397FFF768F8314641436C
:10106000029A511A00010843C0B202900498314616
:10107000FFF75CF807466D7828463146FFF756F8CB
:101080006946029A0A6031467943049A511A3A0134
:101090000A43D2B24643A91B00010843C3B220460B
:1010A0000399FFF79BFF8020C043EE490860A068CA
:1010B000800603D4204600F09DF800E00020FF21C8
:1010C000616205B0F0BDC04618B57D21C900009130
:1010D000C168490616D40021CA43C260C368634A86
:1010E0000CE0002B0FD01368DB0302D5009B5B1EC6
:1010F0000093C368009C002C00D101215B06009B7B
:10110000EFD500E00021C8B201B010BD10E000E052
:10111000B0B50468064D25401206120A0A431902AA
:1011200089B2114304AA12780A432A430260B0BD6F
:10113000808080FFF0B585B015460E460446816874
:1011400040200840002E002801D100202860CA203D
:101150006062532060622046FFF7B6FF012801D18C
:10116000012043E02A792F68002E06D06B79A879F8
:1011700069460860204639462AE00492A879029020
:101180000A2631460397FEF7D1FF31464143029AC2
:10119000511A00010843C0B2029004983146FEF78C
:1011A000C5FF07466D7928463146FEF7BFFF694601
:1011B000029A0A6031467943049A511A3A010A4365
:1011C000D2B24643A91B00010843C3B2204603998B
:1011D000FFF79EFF8020C043A2490860A0688006F8
:1011E00003D4204600F006F800E00020FF216162F1
:1011F00005B0F0BDF8B57D21CC000094C168802217
:101200000A40A021C9435118C16001252904C668BC
:101210000022164B0CE0002E0DD01E680E4202D0AC
:10122000009E761E0096C668009F002F00D1012206
:10123000B606009EEFD4D6B2012E13D00094C46837
:101240000CE0002C0DD01C680C4202D0009C641EE7
:101250000094C468009D002D00D10122A406009CCA
:10126000EFD51546E8B201B0F0BDC04610E000E091
:10127000FFB5026852062AD40268174C144064C9AC
:101280000B6800934B6801938B68CF6802970F69D6
:10129000039722432A433243009C2243019C22436A
:1012A0001A43029C2243039C22434C69224302605E
:1012B00042680425AA431B0C1343436001225303D5
:1012C00000220C399C4203D1898C016100E001228B
:1012D000104604B0F0BDC0464000FFFF0149086061
:1012E0007047C0460400002070B50D460168012417
:1012F000C9071BD101681F4A0A4069681143EA689F
:101300000A4329691143AA690A430260A9680322B2
:10131000130346689E430E43466069691202836860
:1013200093430B438360144EB04201D0204670BDFE
:101330000C20FFF70FFE0028F8D029680029F5D00F
:101340000122D203AB690D4C93420AD140004A08F6
:101350001018FEF7EBFE04400007400F2043F0603A
:1013600006E04A081018FEF7E1FE0F340440F4606E
:101370000024DBE7F369FFEF00440040F0FF0000CA
:101380000848006808490A68084B9854084801232F
:101390000360501CC217920E82183F239A43801A92
:1013A000086070472448004054000020640000207A
:1013B000600000207047704780B5A249C8680007E8
:1013C000800F012808D0022804D0032809D100F09A
:1013D00011F880BD164880BD0868C00608D51648BB
:1013E00080BD0120000449680904490F884080BD80
:1013F000104880BD80B50D490868C00306D4084672
:101400000C380068C00603D50B4A02E0084A00E029
:10141000084A08688002000F084B185C50430968AE
:101420000902890F491CFEF781FE80BD0C100240A5
:1014300000127A000024F40000093D00CE230008C9
:1014400008480168C9050BD5074901220A60110245
:1014500003688B430360500404490A6802430A602E
:101460007047C0460C280040A8000020140401402A
:1014700010B5114A13689B029B0E037113685B043D
:101480005B0E437113687F241C40847101239B050C
:1014900014681C40046050683F2303408B70506800
:1014A000C004C00E48705068000CC870506800043A
:1014B000400F087010BDC0460028004010B5144809
:1014C000CA21C1615321C16101210A02036893430A
:1014D000036005239B0204681C43046043690924DC
:1014E0001C4376239C43446143690A4C1C4380237C
:1014F0009C434461036813430360FF22C2614804B4
:1015000005490A6802430A608A6802438A6010BD7E
:101510000828004000808080000401407047704728
:10152000F8B534490A68012082430A600968324EDE
:101530003168324A1140C302C91831600402414D7A
:10154000296821432960430229681942FCD00721F8
:101550004F036A68BA438703D2196A60FF221206F2
:101560006F6897436F60326822433260C2042E6D09
:1015700016432E652E6D96432E652A6D1F4E324002
:101580002A652A6D22432A652A6D1A42FCD0032659
:1015900032042B6D934302049A182A658404286D43
:1015A00020432865E868F0229043E8600802EA6872
:1015B0008243EA60C802E9688143E960E868B043B1
:1015C000E860E8680007800FFBD12046FFF74CFC7D
:1015D0000B4801680427394301602046FFF77EFE6F
:1015E000E86C384308218843E864B002E96C814321
:1015F000E964F8BD0020024000700040FFE7FFFFF3
:1016000010E000E0012002020E490B6813430B605A
:10161000CA680D4B1340CB600A680C4B13400B603B
:101620008A6882438A6082040B6893430B60FD22C0
:101630001204CB689343CB6000220A61C0060449C0
:1016400008607047001002400C40FF88F6FFF6FE6D
:1016500008ED00E00122910700230B614B62C86294
:101660000868104308600869C007FCD00020704774
:101670000648016801221143016090078321490057
:1016800081620168114301607047C0463810024012
:1016900001218A07002313615362D0621068084356
:1016A000106070470748006807490A68074B98545C
:1016B000501CC217920E82183F239A43801A08606A
:1016C0007047C04624440040080000201400002059
:1016D000F0B591B0044608AB00261E81DE8000798B
:1016E00062791202101802939880207862781202B0
:1016F0001018A278E3781B029A18120410180890A8
:101700008D1F092D324601D81020421A0BAF0197C8
:1017100078191146FEF77DFDA11D38462A46FEF7D1
:101720005FFD0EAD2E810F960E965248032100915B
:10173000514FB847039607A90691504A284690474B
:1017400007994F4A284690474EA004210591B84773
:101750004EA00121B8470D244D49204604948847E6
:101760002846069E3146454A904707992846444AEE
:10177000904748A00599B84748A00099B847204627
:1017800043498847284631463C4A904707992846AE
:101790003B4A90474248059F3946374EB047019C27
:1017A0002046FEF74EFD01462046B047049C2046E9
:1017B0003749884728460699304A9047079928466E
:1017C0002F4A9047374839462B4FB847029E30463C
:1017D000FEF737FD01463046B84720462C4988477A
:1017E0002846069F3946254A904707992846244AA5
:1017F00090472DA0059E31461F4A90472046244918
:101800008847284639461D4FB847079928461C4A3D
:10181000904727A03146184A9047049C20461C490F
:1018200088472846069F3946144A90470799284614
:10183000134A90471B4831460F4A904720461449A7
:101840008847284639460D4EB047079928460C4E22
:10185000B04713480599084A904720460C498847E5
:1018600028463946054A904707992846B0470398C5
:1018700011B0F0BDEB230008551A0008411900080B
:10188000CD0500084154435400000000350000001D
:10189000411A00084154475400000000314634000A
:1018A000F4230008EF2300084154414300000000E6
:1018B00041545752000000000248016820220A43A8
:1018C0000260704714040050F0B58FB002AC3221B2
:1018D0002046FEF79EFC52480321524DA8472F4652
:1018E00001AD514A20462946904701994F4A20466A
:1018F0009047114804263146B8470D27384600F076
:101900009FF820462946484A904701992046474A71
:1019100090470A483146434A9047384600F090F8CD
:1019200020462946404A9047019920463F4A904721
:1019300000200FB0F0BDC046EF230008F4230008DC
:1019400070B50C46194E31684A1EB118097C0D2934
:10195000FDD17260B36801460DE0F218127C0A7086
:10196000B268521CD3179B0ED3183F25AB43D31A32
:10197000B360491C72689342EFD10025F560FEF711
:1019800060FC20603068401CC117890E41183F225E
:10199000D2431140401A3060B068801CC117890ED4
:1019A00041181140401AB060284670BD5400002014
:1019B000F0B58FB002AC32212046FEF72AFC184861
:1019C0000321184DA8472F4601AD174A2046294646
:1019D00090470199154A2046904715A004263146A4
:1019E000B8470D27384600F02BF8204629460E4A06
:1019F0009047019920460D4A90470FA03146094A69
:101A00009047384600F01CF820462946064A904781
:101A100001992046054A904700200FB0F0BDC0460E
:101A2000EB230008551A000841190008CD050008ED
:101A300041545348000000004154534C0000000042
:101A40000349C86008684006FCD500207047C046BE
:101A50001C48004070B50C460546002603E0A85D12
:101A6000FFF7EEFF761CA642F9DB002070BD0000F8
:101A7000AEB001242046FFF73FF920070B90FFF797
:101A80002DF9FFF74DFD0026299628962396042070
:101A90001090764DA8472046A84702201590A847E9
:101AA0000520070708230D93BB6220021290B8623D
:101AB000E0020E90B8626E4A936210200F9090621E
:101AC000202013909062229621961EA858C01EAD29
:101AD000684A3846149729469047229621962096C0
:101AE0001F9412981E9038462946624A90472296C3
:101AF000219620961F940E981E90384629465D4FD9
:101B0000B8473A462296219620961F940D981E902B
:101B1000574F3846294617469047229621962096D9
:101B20001F940F981E9052482946B8473A4622966D
:101B3000219620961F9413981E904D4807462946DB
:101B400090470F2001024C4A13688B431299591891
:101B50001160000311688143250348191060F8687B
:101B600046490840F860F868454A1040F86038680F
:101B70000840386038681040386028AFBC71BC80BD
:101B800040200C9028903846FFF7C4F8BC71BC8008
:101B90008020089028903846FFF7BCF8A2041194E2
:101BA000384801680A9211430160FF200E9000043A
:101BB00035491C390A6882430A603448109901602B
:101BC000A2023348016809921143016001680722AB
:101BD0000792914301602846FFF78EF82046F849A6
:101BE00088472D962C962B9603252A95159F299785
:101BF0001398289028A90691149C2046F14A9047F2
:101C00002D962C962B962A9529970C98289020464D
:101C1000069C2146EB4FB8472D962C962B960D959A
:101C20002A951598299008982890119D1498214676
:101C3000B847079827902696259624962C46680242
:101C4000089023902296219620961298001D1F90AE
:101C50001E96DF4D1EA92846FFF70AFB68680F99FC
:101C6000884368602868400618D413E04D0E0008C9
:101C700000040050AD0D00080C000140FFCFFFFF35
:101C8000FF3FFFFF501002401CE400E000E100E0D5
:101C90000828004028680C99084328606004FFF772
:101CA0001DF82046FFF7D2F8109F2D972C962B9603
:101CB0000D9C2A94159829900898289028A912918B
:101CC000149D2846BF4A90472D972C962B962A9410
:101CD000159829900998289028461299B94A904752
:101CE000B948014600680E9A904308600B98B749BE
:101CF0000860249623960C2012902290219620961C
:101D00001F964B20C00110901E90B24D1EA9284670
:101D1000FFF7EAFA0920C002696881436960A86890
:101D20002A218843A8602868119F384328600A98B0
:101D3000FEF7D4FF3846FFF789F806200F902D9064
:101D40002C962B962A94159C2994289728AD149F9D
:101D5000384629469B4A90470F982D902C962B96F3
:101D60000D982A902994289438462946954A9047F8
:101D70000E980002944A116881431160119C60071B
:101D800092490860239612982290219620961F96D9
:101D900010981E90904D1EA92846FFF773F8E04357
:101DA0008C4A116801401160296801402960286847
:101DB000139908432860106808431060286820437E
:101DC000286010682043106062B6FFF777FBFFF7CA
:101DD0004FFCFFF771FDFEF72FFE1D961C96FEF7D8
:101DE00023FE7E481B9019A914917D4888807D4868
:101DF00019907DA028A915910CC80CC10288807883
:101E000088700A807BA016AC21460CC80CC10288E1
:101E1000807888700A801EAF1BA9794D3846A84784
:101E2000381D1499A84738460A301599A8473846EE
:101E300015302146A8474520F8774E20387571485F
:101E40002690FEF719FD1E9815901F981490209863
:101E5000139021AFB8CF259A26996846B0C002608A
:101E60004160694C15981499139AA0471E9C1F98BD
:101E700015902098149021981390229D239F249BC5
:101E80002599269A6846A0C003604160826020467A
:101E90001599149A139B5C4CA0471E9815901F9897
:101EA00014902098139021AFB8CF259A26996846B0
:101EB000B0C00260416015981499139A524CA04723
:101EC0001E9815901F9814902098139021AFB8CFAA
:101ED000259A26996846B0C0026041601598149909
:101EE000139A494CA0471E9815901F98149020985B
:101EF000139021AFB8CF259A26996846B0C00260EA
:101F0000416015981499139A3F4CA0471E9815905C
:101F10001F9814902098139021AFB8CF259A269936
:101F20006846B0C00260416015981499139A364C07
:101F3000A0471E9815901F9814902098139021AFD9
:101F4000B8CF259A26996846B0C0026041601598BE
:101F50001499139A2C4CA0471E9815901F98149012
:101F60002098139021AFB8CF259A26996846B0C023
:101F70000260416015981499139A234CA047234C92
:101F8000FEF71CFA00280CD0FEF7DEF9002804D179
:101F900007E0FEF769FAFEF73DFAFEF70FFA0028B0
:101FA000F7D12068012804D11DA81CA900F030F841
:101FB00026601D980128E3D1FEF72CFEE0E7C0461D
:101FC0004D0E0008AD0D00081CE400E000E100E04B
:101FD00000300140004400400048004032323130BF
:101FE0003139000030373232343731372E31313326
:101FF0003231300030303833333931353138370011
:102000006B02000866660640B1080008A8000020C0
:102010007FB50D4604461A48067802A801A9FFF7C5
:1020200027FA002E0BD002A80079B11CC9B2884251
:102030000AD3311DC9B2884206D2012105E0002031
:10204000286002A8007901E00021296002A94979ED
:102050000A460243002A0CD0B21DD2B2831A094AA2
:102060001578AB420ADB0836F3B2CB1A52789342AA
:1020700004DB01222260034A517010707FBDC0460C
:1020800000000808A40000200FB410B504A9074BF5
:1020900002AA039800F01CF8044602A9002000F0F0
:1020A00085F9204610BC08BC04B01847AD230008D1
:1020B00002E008C8121F08C1002AFAD17047704711
:1020C000002001E001C1121F002AFBD1704700006F
:1020D000FFB58FB00F460446002606E025280AD03B
:1020E000129A11999047641C761C20780028F5D12B
:1020F000304613B0F0BD00250121A14A009500E053
:102100000543641C23780846203B98401042F7D1D1
:1021100020782E2815D1042005436078641C2A28D5
:102120000AD101CF641C00900BE000990A225143B0
:1021300030394018641C0090207801463039092954
:10214000F3D920786C280ED004DC4C2813D06A28F0
:1021500012D104E074280ED07A280DD10BE00120B2
:102160004005054307E00121090562780D438242DD
:1021700001D16D18641C641C2078864669284AD0F9
:1021800008DC0028B4D058286DD0632810D064280B
:1021900008D140E070286BD0732812D0752860D029
:1021A000782860D0129A704611999047761CE5E025
:1021B0003878694608720020487202A80190012010
:1021C00003E0386801900020C0433F1D69070CD52B
:1021D000002500E06D1C00998D420FDA8542F9DB85
:1021E0000199495D0029F5D108E0002500E06D1C4A
:1021F0008542FCDB0199495D0029F8D1761907E099
:10220000019801990078491C0191129A11999047FF
:102210006D1EF5D2B2E00A20029000216802400F44
:10222000039102280CD001CFC117844600290DDA92
:102230006246084652420021814194462D2008E022
:10224000FF1DFF08FF0003CF8446EFE7280504D5F4
:102250002B206A46107401203CE0E8073AD0202089
:10226000F7E70A2000E0102000210391029007E028
:1022700010200290002104200543082003910090C3
:102280006802400F022810D001CF002184460020B0
:102290000D9028071FD5704670280CD0029A102088
:1022A000039B42401A430CD015E0FF1DFF08FF00BE
:1022B00003CF8446EBE740206A46107401200D905E
:1022C0000CE06046084306D030206A461074704621
:1022D000507402200D907046582804D029A0019017
:1022E0000DA80E900DE02CA0F9E76046039B029A22
:1022F000FDF746FF019B84469B5C0E9A521E0E9290
:10230000137060460843F0D10E9805A9081A2030D2
:102310000190680701D5009801E001200090019923
:10232000884203DD01460198081A00E000200025DC
:10233000009006E004A8129A405D119990476D1C28
:10234000761C0D988542F5DB04E0129A3020119935
:102350009047761C0099481E00900029F5DC08E0A3
:102360000E980E990078491C0E91129A1199904777
:10237000761C0199481E01900029F1DC641CB4E62A
:10238000092801003031323334353637383961624B
:10239000636465660000000030313233343536370F
:1023A0003839414243444546000000000A68531C46
:1023B0000B60107070470000000000000000010278
:1023C00003040607080900000000010203040304D7
:1023D00006080C1018203041434B3F002578257823
:1023E00025782578257825782578002B2B2B00411A
:1023F000544448004154444C002C00002024000860
:102400000000002008000000B02000082824000878
:1024100008000020A8040000C02000080000000000
:08242000000000000000200094
:04000005080000C12E
:00000001FF
