:020000040800F2
:10000000A0040020D5000008F91700086B090008BB
:1000100000000000000000000000000000000000E0
:10002000000000000000000000000000B1190008FE
:10003000000000000000000089180008B319000843
:100040000501000805010008050100080501000878
:100050000501000805010008050100080501000868
:100060000000000005010008050100080501000866
:100070000501000805010008000000000501000856
:100080000000000000000000000000000000000070
:100090000501000800000000000000000501000844
:1000A0000000000005010008000000000000000042
:1000B000051C0008FD1300080000000000000000FF
:1000C0000348854600F0E6F8004800472D23000865
:1000D000A00400200C4880F308880C480168090E31
:1000E0000B4A914205D10B480B4901600B480C4962
:1000F00001600C4880470C480047FEE7FEE7FEE73A
:10010000FEE7FEE7FEE70000A00400200400000078
:100110001F000000341002400100000000000140F8
:10012000000000009D1B0008C100000830B50B4610
:10013000014600202022012409E00D46D5409D42C1
:1001400005D31D469540491B254695404019154647
:10015000521E002DF1DC30BD70B50024254600286C
:1001600001DA01244042002901DA01254942FFF762
:10017000DDFFAC4200D04042002C00D0494270BDAF
:10018000F0B51FB40646002082B005464024019118
:1001900000901BE0019922460F46304600F069F8B6
:1001A000049A059B801A994110D31046194622469D
:1001B00000F04FF8361A8F410197224601200021A6
:1001C000009F00F046F838184D4100902046641E0C
:1001D0000028DFDC019B00982946324607B0F0BDBD
:1001E00003460B439B0703D009E008C9121F08C050
:1001F000042AFAD203E00B780370401C491C521EFB
:10020000F9D27047D2B201E00270401C491EFBD205
:1002100070470022F6E710B513460A460446194611
:10022000FFF7F0FF204610BD421C0178401C00295A
:10023000FBD1801A704710B5002200E0521C835C8D
:100240008C5CA34201D1002BF8D1D8B2E1B2401AA4
:1002500010BD10B5202A04DB0146203A9140002051
:1002600010BD914020239C1A0346E340194390405F
:1002700010BD10B5202A04DB0846203AD0400021EA
:1002800010BD0B46D340D0402024A21A9140084311
:10029000194610BD064C0125064E05E0E36807CC63
:1002A0002B430C3C98471034B442F7D3FFF70CFFB4
:1002B000F8230008182400087CB50020694608715E
:1002C0001948046829E0002504E06946681C085CB8
:1002D00048556D1C032DF8DB1448005D69464855F0
:1002E0001248005D3F2811D111A16846FFF7A3FF16
:1002F000002808D104210EA000F044F9601C0A492E
:10030000086001207CBD601C07490860601CC117A3
:10031000890E091889118901441A07480068844226
:10032000D1D10020EEE70000080000201C000020D2
:1003300041434B3F000000000000002001207047B7
:1003400030B58DB000BF1A480068401E1949085CDE
:100350003F28F8D116480068401E1749086034212C
:100360006846FFF756FF002412E012481349096857
:10037000425C2046641C69460A5410490968481CBE
:10038000C117890E091889118901411A0B4A116098
:100390000A480068084909688842E6D16846FFF7BC
:1003A00043FF05462946684601F044FC0DB030BDC8
:1003B000000000201C000020040000200800002095
:1003C00010B50446230001F01FFE081A050B080EA5
:1003D0001114171A00F096F910BD00F0E1F8FBE7D0
:1003E00000F032F9F8E700F0A9F8F5E7FFF7A8FF09
:1003F000F2E701F0F5FCEFE701F07EFDECE700200D
:10040000C043E9E730B58DB03A4805683A4804681A
:100410000EE03A48005D3F2803D1601C384908606F
:1004200008E0601CC117890E091889118901441A56
:10043000AC42EED100BFAC4202D100200DB030BDC5
:1004400034216846FFF7E5FE002412E02B482A49D4
:100450000968425C2046641C69460A5426490968BA
:10046000481CC117890E091889118901411A224AAD
:10047000116021480068224909688842E6D121A11B
:100480006846FFF7D8FE002801D10120D6E71FA15A
:100490006846FFF7D0FE002801D10220CEE71DA15B
:1004A0006846FFF7C8FE002801D10320C6E71BA15C
:1004B0006846FFF7C0FE002801D10420BEE719A15D
:1004C0006846FFF7B8FE002801D10520B6E717A15E
:1004D0006846FFF7B0FE002801D10620AEE715A15F
:1004E0006846FFF7A8FE002801D10720A6E70020F4
:1004F000A4E7000000000020080000201C000020ED
:10050000040000205453543F0000000050474D3F6A
:1005100000000000544D503F000000004750473F8E
:10052000000000004346473F000000004746473FA9
:100530000000000047534E3F0000000010B58EB091
:10054000074A322101A800F0D1F901A8FFF76CFE9B
:100550000446214601A800F015F800200EB010BD99
:1005600000000808014600BF0548816200BF00BFC7
:100570000348C069402210404028F9D1002070474C
:100580000044004030B503460C46002504E01878CE
:10059000FFF7E8FF5B1C6D1CA542F8DB002030BDB7
:1005A00010B58CB0234800F095FDC1B26846817744
:1005B000204800F07EFDC1B2684641771D4800F03A
:1005C00067FDC1B2684601771A4800F053FCC1B21A
:1005D00068468175174800F059FCC1B268464175FC
:1005E000144800F06BFCC1B26846C175114800F0B8
:1005F0005EFCC1B268460175017DC27D437D807D90
:1006000002930392049101906846007F009068462F
:10061000437F827F08A108A801F0CAFC08A8FFF761
:1006200003FE0446214608A8FFF7ACFF00200CB0EB
:1006300010BD000000280040257825782578257811
:10064000257825782578000070B58EB000BF284841
:100650000068401E2749085C3F28F8D124480068FC
:10066000401E25490860342101A8FFF7D2FD00F0A3
:100670004BF9224A322101A800F061F9054600F049
:1006800025F9002412E01B481D490968425C2046F8
:10069000641C01A90A541A490968481CC117890E2B
:1006A000091889118901411A154A11601448006816
:1006B000114909688842E6D111480068401C104978
:1006C00008600D480068401C0B49086000F01CF9E8
:1006D00001A8FFF7A9FD0646084A314601A800F027
:1006E0002EF9054600F0F2F828460EB070BD000065
:1006F000000000201C00002004000020000008086A
:100700000800002030B58DB000BF66480068401E6C
:100710006549085C3F28F8D162480068401E63497B
:100720000860002412E0604861490968425C204684
:10073000641C09A90A545E490968481CC117890E3E
:10074000091889118901411A594A116058480068ED
:10075000564909688842E6D1002108A88174002022
:10076000079008A8007930380A21414308A8407949
:1007700008183038C1B208A88170807930380A2151
:10078000414308A8C07908183038C1B208A84170A0
:10079000007A30380A21414308A8407A08183038D6
:1007A000C1B208A80170434800F064FBC1B26846BA
:1007B000817608A8807A30380A21414308A8C07A97
:1007C00008183038C1B26846817608A8007B3038F6
:1007D0000A21414308A8407B08183038C1B2684656
:1007E000417608A8807B30380A21414308A8C07BA5
:1007F00008183038C1B26846C17608A9097C084695
:1008000030380721FFF7A8FCC8B26946087607AA66
:100810000021284800F06AFC06AA0021254800F0C3
:100820005FFB244800F056FC08A98870214800F0BE
:1008300040FC08A948701F4800F02AFC08A908706D
:100840001C4800F017FB694688761A4800F01EFB2A
:1008500069464876174800F031FB6946C876154866
:1008600000F025FB694608766846017EC27E437E1D
:10087000807E029303920491019008A80078009072
:1008800008A8437882780CA109A801F091FB09A877
:10089000FFF7CAFC0546294609A8FFF773FE0020AA
:1008A0000DB030BD000000201C000020040000201E
:1008B0000800002000280040257825782578257834
:1008C00025782578257800007047000000BF06488D
:1008D0008069C007C00F0028F9D103484068012192
:1008E00008430149486070470020024030B5034684
:1008F0001546002404E0287818705B1C6D1C641CED
:100900008C42F8DB002030BD07484068C007C00FAC
:10091000002806D005480449C8600548C860002082
:1009200070470020C043FBE700200240EFCDAB89B9
:100930000504030202460B461A7000207047F0B50A
:1009400004460E46154600270BE020782946FFF79F
:10095000F1FF002802D00020C043F0BD641C6D1CD4
:100960007F1CB742F1DB0020F7E700BFFEE7000085
:1009700008B50549896B0143034A91631146896BA8
:100980000140009100BF08BD0010024008B50549B4
:10099000496B0143034A51631146496B0140009181
:1009A00000BF08BD00100240024949688143014A66
:1009B0005160704700040140024909688143014ABF
:1009C0001160704700040140024949680143014A2F
:1009D00051607047000401400249C9680143014A5F
:1009E000D160704700040140024909680143014A8F
:1009F0001160704700040140024989680143014ABF
:100A0000916070470004014070B5044600252079CC
:100A100000284DD02068002850D06079002804D0EC
:100A2000012809D0022815D10DE02068FFF7BCFF8E
:100A30002068FFF7D9FF0FE02068FFF7BDFF2068AF
:100A4000FFF7C2FF08E02068FFF7CEFF2068FFF73E
:100A5000BBFF01E0012500BF00BFA07900282DD019
:100A6000A079012804D002280DD003281DD115E05B
:100A700020681349C9688143114AD16000BF2068CA
:100A8000FFF7BAFF13E020680D49896881430C4ADB
:100A9000916000BF2068FFF79FFF08E02068FFF724
:100AA000ABFF2068FFF798FF01E0012500BF05E0DC
:100AB0002068FFF781FF2068FFF776FF284670BDAA
:100AC00000040140F0B502460B460026002162E01A
:100AD0000124B44018682040014600295AD05868C3
:100AE00014680D464D436F00ED19AC430D464D4360
:100AF00045432C43146000BF5868012802D0586851
:100B000002280DD1986894680D464D436F00ED1989
:100B1000AC430D464D4345432C43946000BF00BF9A
:100B20001869D4680D464D436F00ED19AC430D466E
:100B30004D4345432C43D46000BF5868022829D157
:100B4000FF2911D85869146A0D464D434D434D4352
:100B50002F017D1BAC430D464D434D434D43454353
:100B60002C43146200BF15E05F69080A40430C0A79
:100B700060430C0A60430401241A506AA0430C0A23
:100B800064430D0A6C430D0A6C437C43204350625E
:100B900000BF00BF761C1868F040002898D1586844
:100BA000012802D05868022809D1DC681868556805
:100BB0008543074667433D43556000BF00BF0020A3
:100BC000F0BD8162704730B503680C464C43650048
:100BD0006419A3430C464C4354432343036030BD84
:100BE00030B5C3680C464C4365006419A3430C46FA
:100BF0004C4354432343C36030BD000008B505494E
:100C0000C96A0143034AD1621146C96A0140009191
:100C100000BF08BD0010024070B504467D25ED0000
:100C200029462046FFF782FA401E04494861002009
:100C300088610520086100BF70BD000000E000E091
:100C4000FEB504460D4601200290002600BF206834
:100C5000C007C00F012148404840002837D1E9684B
:100C6000686808432969084321681A4A1140084303
:100C70002060A86861680322120391430143616008
:100C800000BF6869A168121191430143A16000BFD0
:100C9000900000F02DF80646002E18D02868002895
:100CA00015D0002002902F68FF210131304601F05D
:100CB00093F97A080023801859413A46019100902F
:100CC000FFF75EFA04490840E06000BF00BF0298E9
:100CD000FEBD0000F3E9FFEFFFFF0F0003480069CE
:100CE000012189040843014908617047401002400E
:100CF000F8B50446002500BF1948C0682040002808
:100D000020D001218902401A04D0401A06D0401A8E
:100D100017D10FE000F0DEFD05461DE000F066F89B
:100D2000002806D000F06AF8002801D00D4D00E040
:100D30000D4D11E000F06AF8002801D00125ED0307
:100D40000AE000BF00F0C6FD074600F09FFD064622
:100D500000F0AEFD054600BF00BF2846F8BD00000C
:100D60004010024000093D000024F400F8B504469C
:100D700000250C2C32D100BF1948C0682040210446
:100D800008432104401A1ED0042804D0082806D0A5
:100D90000C2817D10FE000F09DFD05461DE000F086
:100DA00025F8002806D000F029F8002801D00D4DC4
:100DB00000E00D4D11E000F029F8002801D00125D8
:100DC000ED030AE000BF00F085FD074600F05EFD80
:100DD000064600F06DFD054600BF00BF2846F8BD81
:100DE0004010024000093D000024F4000248006861
:100DF0000421084080087047001002400248006843
:100E000010210840000970470010024003480069A3
:100E1000012149020840400A70470000401002408A
:100E2000024840680721490308407047001002400B
:100E3000F8B5069CF02525402D042607360B3543D2
:100E40004E033543F0261E4036021F073F0D3E433A
:100E50003543F026164017073F0F3E4335430095B4
:100E60004568034E3540009E35434560F8BD00009F
:100E7000C00000FF014648688206920E30201040F4
:100E80000009000113071B0F18437047014648680B
:100E90001F231B0218400246012000031040000BD4
:100EA00000010F231B0213401B0A18437047014621
:100EB0004868072252031040400B704701464868BB
:100EC000FF231B04184002460F2000051040000DB0
:100ED00000010F231B0413401B0C18437047000034
:100EE000F7B584B00D46144601200390002D09D1BA
:100EF000607810210840102804D16078EF21084064
:100F00000A306070002D00D100E000BF049800F0AE
:100F100055F8049800F05AF8012843D0002D08D065
:100F2000E07800906378A27821780498FFF780FF3A
:100F300029E0E0780A21FFF7F9F80701E0780A21B3
:100F4000FFF7F4F80F43FEB260780A21FFF7EEF8DE
:100F5000070160780A21FFF7E9F80F43F8B2029021
:100F6000A0780A21FFF7E2F80701A0780A21FFF72D
:100F7000DDF80F43F8B20096019021780246029BFB
:100F80000498FFF755FF0A4800F014F8049800F0A1
:100F900058F8002804D1049800F018F9039001E0F3
:100FA00000200390049800F00EF8039807B0F0BDFD
:100FB000002800408021C943C1607047CA214162B6
:100FC000532141627047FF2141627047F8B50546E1
:100FD0007D20C00000900026284600F026F800285A
:100FE0001CD100BF401EE86000BF284600F01DF87D
:100FF00004460EE000F07CF9012802D10098401E62
:101000000090284600F011F804460098002800D10E
:1010100001260098002801D0012CEBD13046F8BD04
:10102000014688684022104070470146C868402247
:101030001040800970470146C868202210404009CE
:101040007047014688682022104040097047000020
:10105000F8B5069CF02515402D041607360B3543D0
:101060000D43F0261E4036021F073F0D3E43354319
:10107000F026264027073F0F3E433543009505687D
:10108000024E3540009E35430560F8BD808080FFEC
:10109000014608683F231B04184002460320000550
:1010A0001040000D00010F231B0413401B0C1843BC
:1010B0007047014608687F231B021840024607203C
:1010C00000031040000B00010F231B0213401B0AFA
:1010D00018437047014608684206520E70201040BF
:1010E0000009000113071B0F18437047F7B584B0C0
:1010F0000D46144601200390002D09D10498FFF7F6
:101100008FFF002800D002E00020206000BF09E02F
:101110000498FFF785FF002800D002E0002020603F
:1011200000BF00BF0498FFF749FF0498FFF74EFF88
:10113000012843D0002D08D0A0790090637922794E
:1011400021680498FFF784FF29E0A0790A21FEF7BF
:10115000EDFF0701A0790A21FEF7E8FF0F43FEB279
:1011600060790A21FEF7E2FF070160790A21FEF7A4
:10117000DDFF0F43F8B2029020790A21FEF7D6FF77
:10118000070120790A21FEF7D1FF0F43F8B200963C
:10119000019021680246029B0498FFF759FF0A4814
:1011A000FFF708FF0498FFF74CFF002804D10498CC
:1011B00000F00CF8039001E0002003900498FFF782
:1011C00002FF039807B0F0BD00280040F8B50446C0
:1011D0007D20C0000090002500BFE068802108400D
:1011E000A021C9430843E06000BF2046FFF723FF6A
:1011F00006460EE000F07CF8012802D10098401E5F
:1012000000902046FFF717FF06460098002800D1FF
:1012100001250098002801D0002EEBD1012D1BD014
:101220007D20C00000902046FFF705FF06460EE037
:1012300000F05EF8012802D10098401E0090204680
:10124000FFF7F9FE06460098002800D10125009816
:10125000002801D0012EEBD12846F8BD30B502465A
:10126000012300BF1068402420408009002826D1B7
:101270004C68086820438C682043CC6820430C6984
:1012800020434C6920438C692043CC6920430C6A7D
:10129000204314680B4D2C402043106050680424F8
:1012A000A0434C69240C204350605C03086AA042B0
:1012B00004D1486A84B2146100BF00BF00231846FD
:1012C00030BD00004000FFFF10B5084A0B069B0D23
:1012D000D2580C0C0F23A3409A430C0C0346A34096
:1012E0001A43024B0C06A40D1A5110BD0800014010
:1012F00003480069012109040840000C7047000000
:1013000000E000E00149086070470000180000207C
:10131000016801221143016070470000F0B585B0FB
:1013200004460D460120049000200390204600F062
:101330005DF8002850D1E9686868084329690843C6
:10134000A96908432168264A114008432060A8681B
:1013500061680322120391430143616000BF686921
:10136000A168121191430143A16000BF1D4884424E
:1013700003D10C20FFF7FAFC0390039800282BD030
:101380002868002828D000200490039FA8690290B4
:101390002E680121C9030298884214D1790072088D
:1013A00088183146FEF7C2FE80B201900E490198BE
:1013B0000840009001980007400F009908430090F2
:1013C0000098E06006E07108C8193146FEF7AEFEED
:1013D00080B2E06000BF00BF049805B0F0BD00001F
:1013E000F369FFEF00440040F0FF00000146086889
:1013F000C007C00F01225040504070470848406A63
:101400000849094A1268885407490968481CC117E5
:10141000890E091889118901411A034A1160704720
:10142000004800405C0000200C00002000B589B09E
:10143000002007900890182101A8FEF7EAFE04207A
:10144000FFF7DCFB0120FFF7D9FB0220FFF7D6FBFB
:10145000082105200007FFF7B4FBFF21013105201B
:101460000007FFF7AEFB0121C90205200007FFF7C7
:10147000A8FB08214648FFF7A4FB10214448FFF7CA
:10148000A0FB20214248FFF79CFB0820019001208F
:101490000290002003900490059001A90520000708
:1014A000FFF710FBFF200130019001200290002087
:1014B00003900490059001A905200007FFF702FBA7
:1014C0000120C002019001200290002003900490AE
:1014D000059001A905200007FFF7F4FA0820019004
:1014E00001200290002003900490059001A9284853
:1014F000FFF7E8FA102001900120029000200390ED
:101500000490059001A92248FFF7DCFA2020019001
:1015100001200290002003900490059001A91C482E
:10152000FFF7D0FA1B490120FFF7CEFE1A49012030
:10153000FFF7CAFE002240211548FFF751FB0022A9
:1015400080211348FFF74CFB002240211048FFF791
:101550003AFB002280210E48FFF735FB4020079020
:10156000012108A80170002141700121817007A8A4
:10157000FFF74AFA80200790012108A80170002196
:1015800041700121817007A8FFF73EFA09B000BD44
:10159000000400500100080001000C0000B58DB0EF
:1015A000182107A8FEF735FE182101A8FEF731FE25
:1015B00001208004FFF7DCF90120FFF71FFB012069
:1015C00001900220029003200390002004900590D7
:1015D0000620069001A905200007FFF773FA0220F4
:1015E00001900290032003900020049005900620B3
:1015F000069001A905200007FFF764FA00211D20CD
:1016000000F006F91D2000F0F9F84B20C00107900A
:101610000020089009900A900C200B9000200C905C
:1016200007A90248FFF70CFB0DB000BD00480040C1
:101630000EB50020009001900290FFF74FFB0020B4
:1016400000907F200190FF20029000BF0848806832
:101650000121890208430649886000BF002089688B
:10166000C908C9000143024A916000BF0EBD0000D5
:101670000028004000B591B0282107A8FEF7C9FD59
:10168000182101A8FEF7C5FD01200003FFF77EF930
:101690000120FFF7B3FA20200190022002900320DE
:1016A0000390002004900590069001A905200007F2
:1016B000FFF708FA402001900220029003200390D7
:1016C000002004900590069001A905200007FFF76F
:1016D000F9F980200190022002900320039000205D
:1016E00004900590069001A905200007FFF7EAF98C
:1016F00000200790FF2005300890002009900A90F4
:101700000B90012040020C9000200D900E900F9045
:101710000720109007A90748FFF7A0FD0020054902
:101720004968102291430143024A516000BF11B041
:1017300000BD00000030014000B58DB01C2106A89E
:10174000FEF767FD18216846FEF763FD012040049F
:10175000FFF70EF90120FFF751FA01204002009037
:1017600002200190032002900020039004900420A6
:101770000590694605200007FFF7A4F901208002C3
:10178000009002200190032002900020039004901A
:1017900004200590694605200007FFF793F9002112
:1017A0001C2000F035F81C2000F028F84B20C00168
:1017B000069000200790089009900C200A900020C5
:1017C0000B900C9006A90B48FFF7A8FD00BF094835
:1017D00040680921C9028843064948600846806874
:1017E0002A2188430349886000BF0846FFF790FD1F
:1017F0000DB000BD0044004070470000C206D20E8C
:1018000001219140014A11607047000000E100E0B1
:1018100010B5002819DA1A4A03071B0F083B9B086A
:101820009B00D2588307DC0EFF23A3409A438B070B
:101830001B0E8407E40EA3401A43114B0407240F28
:10184000083CA408A4001A5118E00E4A03231B0206
:10185000D21883089B00D2588307DC0EFF23A340D5
:101860009A438B071B0E8407E40EA3401A43054BD3
:10187000032424021B198408A4001A5110BD00007F
:101880001CED00E000E100E070470000014600BFF1
:101890000548C068F022104010400009034A125C5D
:1018A0000846D0407047000000100240D4230008D2
:1018B000014600BF0548C068072212021040000A16
:1018C000034A125C0846D0407047000000100240F6
:1018D000E423000810B500BF1648C0680C2108407A
:1018E000002806D004280CD0082812D00C2816D1C5
:1018F00011E0FFF795FA400B401C01218140CC0319
:1019000015E0FFF77BFA002801D00B4C00E00B4CF0
:101910000DE00B4C0BE000F015F8044607E0FFF774
:101920007FFA400B401C01218140CC0300BF00BF67
:10193000204610BD0010024000093D000024F400C4
:1019400000127A00F8B500BF1448C06801210904EC
:1019500008400546002D07D1FFF750FA002801D0B6
:101960000F4C00E00F4C01E00F4C00BF00BF00BF68
:101970000A48C068032189050840800D461C0748B5
:10198000C0680F2189040840800C0849085C604346
:1019900007463146FEF7CAFBF8BD000000100240C2
:1019A00000093D000024F40000127A00EC23000836
:1019B0007047704710B5002073490968490849000D
:1019C0000143714A116000BF00BF10460068C007A4
:1019D000C00F002801D0FEF777FF0120C0026B493D
:1019E00009680322D20291430143684A116000BF93
:1019F00000BF67480068911508436549086000BF4B
:101A000000BF00BF62480068012149020840400A47
:101A10000028F6D048015E494968072252039143E5
:101A200001435B4A516000BF00201146496809022A
:101A3000090A02061143564A516000BF00BF5348CD
:101A40000068911508435149086000BF00BF504825
:101A5000403000690121C90408434D494031086103
:101A600000BF00BF084600690121C90488434849F6
:101A70004031086100BF002009690322D20291436E
:101A80000143434A4032116100BF00BF1046006964
:101A9000911508431146086100BF00BF00BF3C48D4
:101AA00040300069012149020840400A0028F5D071
:101AB000C8013749403109690322120491430143A7
:101AC000334A4032116100BFFFF708F90020304966
:101AD000C968F022914301432D4AD16000BF00BF85
:101AE0001146C9680722120291430143284AD16076
:101AF00000BF00BF1146C9680722D20291430143CB
:101B0000234AD16000BF00BF1146C9688908890017
:101B10000143D16000BF00BF00BF1D48C0680C2159
:101B200008400028F8D101208004FFF775F8042050
:101B3000042806D11749096904221143154A116185
:101B400005E01449096904229143124A116100BF5A
:101B500001208004FFF7D6FB0F480D494031C968CA
:101B6000020C914382B21143094A4032D16000BF56
:101B700000201146C9680322920291430143044A9E
:101B80004032D16000BF10BD002002400070004014
:101B90000010024000E000E004000C00154800685E
:101BA000FF2101310843134908600846C068124903
:101BB00008401049C86008460068104908400D49AF
:101BC0000860084680684008400088600846006851
:101BD000012189048843074908600846C068FD213F
:101BE000090488430349C86000200861C803044908
:101BF00088607047001002400C40FF88F6FFF6FE38
:101C000000ED00E00848406A0849094A1268885413
:101C100007490968481CC117890E091889118901EB
:101C2000411A034A11607047004400401C00002024
:101C30000000002070B58AB004460D4600200490D4
:101C4000059006900190029003900622214601A87B
:101C5000FEF7C6FAAA1FA11D04A8FEF7C1FA0020CC
:101C600007900890099003214EA000F093F969466F
:101C700007A800F0F3F807A80099FEF783FC0421F9
:101C800049A000F087F9012149A000F083F90D2057
:101C900000F070F9694607A800F0E0F807A800997D
:101CA000FEF770FC042143A000F074F9032143A067
:101CB00000F070F90D2000F05DF9694607A800F00A
:101CC000CDF807A80099FEF75DFC04213CA000F0C8
:101CD00061F904A8FEF7A8FA0646314604A800F008
:101CE00059F90D2000F046F9694607A800F0B6F84A
:101CF00007A80099FEF746FC042133A000F04AF93A
:101D000001A8FEF791FA0646314601A800F042F913
:101D10000D2000F02FF9694607A800F09FF807A8EA
:101D20000099FEF72FFC042129A000F033F90D20C3
:101D300000F020F9694607A800F090F807A800997C
:101D4000FEF720FC042124A000F024F90D2000F06F
:101D500011F9694607A800F081F807A80099FEF775
:101D600011FC042118A000F015F90D2000F002F973
:101D7000694607A800F072F807A80099FEF702FC70
:101D800004210FA000F006F90D2000F0F3F86946D9
:101D900007A800F063F807A80099FEF7F3FB0020FE
:101DA0000AB070BD2B2B2B0041544354000000009F
:101DB0003500000041544754000000003146340013
:101DC0004154444C000000004154444800000000CD
:101DD00041544143000000004154575200000000AC
:101DE00000B58FB0342102A8FEF713FA032116A024
:101DF00000F0D0F801A902A800F030F802A801997B
:101E0000FEF7C0FB042111A000F0C4F80D2000F083
:101E1000B1F801A902A800F021F802A80199FEF783
:101E2000B1FB04210BA000F0B5F80D2000F0A2F8E2
:101E300001A902A800F012F802A80199FEF7A2FB7E
:101E400000200FB000BD00002B2B2B004154444854
:101E5000000000004154444C0000000070B50446EE
:101E60000D4600BF20480068401E2049085C0D2830
:101E7000F8D11D480068401E1D490860002611E089
:101E80001A481C490968425C3046761C225419499C
:101E90000968481CC117890E091889118901411A5E
:101EA000144A116013480068114909688842E7D153
:101EB0002046FEF7B9F928600B490968481CC1178C
:101EC000890E091889118901411A074A11600949C7
:101ED0000968881CC117890E091889118901411ADE
:101EE000044A1160002070BD0C0000205C0000203E
:101EF000100000201400002000B58FB0342102A88B
:101F0000FEF787F9032116A000F044F801A902A802
:101F1000FFF7A4FF02A80199FEF734FB042111A0EA
:101F200000F038F80D2000F025F801A902A8FFF70D
:101F300095FF02A80199FEF725FB04210BA000F0F4
:101F400029F80D2000F016F801A902A8FFF786FF76
:101F500002A80199FEF716FB00200FB000BD00009B
:101F60002B2B2B0041545348000000004154534C8C
:101F700000000000014600BF0548816200BF00BFAD
:101F80000348C069402210404028F9D10020704722
:101F90000048004030B503460C46002504E01878A0
:101FA000FFF7E8FF5B1C6D1CA542F8DB002030BD8D
:101FB0000FB410B504A9074B02AA039800F042F829
:101FC000044602A9002000F0ABF9204610BC08BC72
:101FD00004B0184721230008F8B582B28BB2040C74
:101FE0000D0C10465843002126465E43370C36043C
:101FF0008019794116466E43370C360480197941B1
:1020000026466E438919F8BD30B47446641E25789F
:10201000641CAB4204D3635D5B00E31830BC18471B
:102020001D46F8E702E008C8121F08C1002AFAD1CD
:1020300070477047002001E001C1121F002AFBD148
:1020400070470000FFB58FB00F460446002606E03B
:1020500025280AD0129A11999047641C761C207882
:102060000028F5D1304613B0F0BD00250121A14A6A
:10207000009500E00543641C23780846203B984007
:102080001042F7D120782E2815D10420054360781E
:10209000641C2A280AD101CF641C00900BE000992F
:1020A0000A22514330394018641C009020780146C0
:1020B00030390929F3D920786C280ED004DC4C285B
:1020C00013D06A2812D104E074280ED07A280DD1DA
:1020D0000BE001204005054307E001210905627876
:1020E0000D43824201D16D18641C641C2078864621
:1020F00069284AD008DC0028B4D058286DD063285D
:1021000010D0642808D140E070286BD0732812D01A
:10211000752860D0782860D0129A7046119990473F
:10212000761CE5E03878694608720020487202A8FB
:102130000190012003E0386801900020C0433F1D5A
:1021400069070CD5002500E06D1C00998D420FDA5F
:102150008542F9DB0199495D0029F5D108E00025A8
:1021600000E06D1C8542FCDB0199495D0029F8D136
:10217000761907E0019801990078491C0191129A9B
:10218000119990476D1EF5D2B2E00A20029000210D
:102190006802400F039102280CD001CFC11784467A
:1021A00000290DDA624608465242002181419446D8
:1021B0002D2008E0FF1DFF08FF0003CF8446EFE756
:1021C000280504D52B206A46107401203CE0E8075E
:1021D0003AD02020F7E70A2000E0102000210391E8
:1021E000029007E0102002900021042005430820FF
:1021F000039100906802400F022810D001CF002107
:10220000844600200D9028071FD5704670280CD0FA
:10221000029A1020039B42401A430CD015E0FF1D88
:10222000FF08FF0003CF8446EBE740206A461074A6
:1022300001200D900CE06046084306D030206A462D
:1022400010747046507402200D907046582804D0C7
:1022500029A001900DA80E900DE02CA0F9E7604692
:10226000039B029AFDF78CFF019B84469B5C0E9AB0
:10227000521E0E92137060460843F0D10E9805A9C5
:10228000081A20300190680701D5009801E001206C
:1022900000900199884203DD01460198081A00E088
:1022A00000200025009006E004A8129A405D1199D4
:1022B00090476D1C761C0D988542F5DB04E0129A60
:1022C000302011999047761C0099481E00900029F3
:1022D000F5DC08E00E980E990078491C0E91129AD0
:1022E00011999047761C0199481E01900029F1DC54
:1022F000641CB4E6092801003031323334353637F6
:102300003839616263646566000000003031323341
:1023100034353637383941424344454600000000E1
:102320000A68531C0B601070704700000120FEF714
:102330002DFB01200007FEF71BFBFFF73BFBFFF720
:1023400075F8FFF775F9FFF795F9FFF7F5F9FFF75E
:1023500025F900BF1D480068400840001B4908607F
:1023600000BF00BF1A4800684008400018490860D4
:1023700000BF08460068202108431549086013483B
:102380000068202108431149086000BF1048006818
:10239000012108430E49086000BF0C48FEF7B8FF52
:1023A00062B611E0FDF7CAFF00280DD0FDF784FFEB
:1023B000002809D004E0FEF725F80446FEF700F8EF
:1023C000FDF7BCFF0028F6D1ECE700000044004018
:1023D000004800400000000000000000010203046B
:1023E00006070809000000000102030403040608B0
:1023F0000C101820300000001824000800000020F5
:102400001C00000024200008342400081C000020C8
:1024100084040000342000080000000000000000D8
:1024200000000000000000000000000000000000AC
:042430000000200088
:04000005080000C12E
:00000001FF
