:020000040800F2
:10000000A8040020D50000085D1200087D08000843
:1000100000000000000000000000000000000000E0
:100020000000000000000000000000003D14000877
:100030000000000000000000A51200083F140008A6
:1000400005010008050100088113000805010008EA
:100050000501000805010008050100080501000868
:100060000000000005010008050100080501000866
:100070000501000805010008000000000501000856
:100080000000000000000000000000000000000070
:100090000501000800000000000000000501000844
:1000A0000000000005010008000000000000000042
:1000B00089150008290F000800000000000000005A
:1000C0000348854600F0E6F800480047C91D0008CF
:1000D000A80400200C4880F308880C480168090E29
:1000E0000B4A914205D10B480B4901600B480C4962
:1000F00001600C4880470C480047FEE7FEE7FEE73A
:10010000FEE7FEE7FEE70000A80400200400000070
:100110001F000000341002400100000000000140F8
:100120000000000035150008C100000830B50B467E
:10013000014600202022012409E00D46D5409D42C1
:1001400005D31D469540491B254695404019154647
:10015000521E002DF1DC30BD70B50024254600286C
:1001600001DA01244042002901DA01254942FFF762
:10017000DDFFAC4200D04042002C00D0494270BDAF
:10018000F0B51FB40646002082B005464024019118
:1001900000901BE0019922460F46304600F069F8B6
:1001A000049A059B801A994110D31046194622469D
:1001B00000F04FF8361A8F410197224601200021A6
:1001C000009F00F046F838184D4100902046641E0C
:1001D0000028DFDC019B00982946324607B0F0BDBD
:1001E00003460B439B0703D009E008C9121F08C050
:1001F000042AFAD203E00B780370401C491C521EFB
:10020000F9D27047D2B201E00270401C491EFBD205
:1002100070470022F6E710B513460A460446194611
:10022000FFF7F0FF204610BD421C0178401C00295A
:10023000FBD1801A704710B5002200E0521C835C8D
:100240008C5CA34201D1002BF8D1D8B2E1B2401AA4
:1002500010BD10B5202A04DB0146203A9140002051
:1002600010BD914020239C1A0346E340194390405F
:1002700010BD10B5202A04DB0846203AD0400021EA
:1002800010BD0B46D340D0402024A21A9140084311
:10029000194610BD064C0125064E05E0E36807CC63
:1002A0002B430C3C98471034B442F7D3FFF70CFFB4
:1002B000C81E0008E81E00087CB500206946164DDF
:1002C00008716E46AC681AE0002031184978315444
:1002D000401C0328F9DB1149095D31543F2907D13E
:1002E0000FA16846FFF7A7FF00280DD0601CA8608B
:1002F000641CE017800E001980098001241A286808
:100300008442E1D100207CBD042105A000F006F963
:10031000641C0120AC607CBD04000020280000208B
:1003200041434B3F000000000120704770B5144D61
:10033000144E2C688EB030192038C07F3F28FDD174
:10034000641E342168466C60FFF763FF00216A4633
:10035000A86809E0335C5354401CC3179B0E1B185C
:100360009B099B01C01A491CA042F3D1A86010460A
:10037000FFF75AFF0146684601F048F90EB070BD1C
:10038000040000202800002010B5030001F080FBCD
:10039000081A050B080E1114171A00F051F910BDB8
:1003A00000F0CAF810BD00F005F910BD00F098F893
:1003B00010BDFFF7BBFF10BD01F00EFA10BD01F03C
:1003C00083FA10BD0020C04310BD0000F0B5344ECC
:1003D0008DB0B468334F2546306809E0395D3F2958
:1003E00012D0641CE117890E091989098901641A60
:1003F0008442F3D1844241D034216846FFF709FF9B
:1004000000206A4671680CE0611C7160F2E77B5D58
:1004100013546D1CEB179B0E5B199B099B01ED1A86
:10042000401C8D42F3D120A11046B560FFF703FFB9
:10043000002826D01EA16846FFF7FDFE002822D026
:100440001DA16846FFF7F7FE00281ED01CA16846D4
:10045000FFF7F1FE00281AD01BA16846FFF7EBFE5C
:10046000002816D01AA16846FFF7E5FE002812D032
:1004700019A16846FFF7DFFE00280ED000200DB05E
:10048000F0BD0120FBE70220F9E70320F7E7042095
:10049000F5E70520F3E70620F1E70720EFE7000086
:1004A00004000020280000205453543F00000000A6
:1004B00050474D3F00000000544D503F00000000E9
:1004C0004750473F000000004346473F0000000000
:1004D0004746473F0000000047534E3F00000000E2
:1004E00000B58DB0074A3221684600F06DF96846C4
:1004F000FFF79AFE0146684600F010F800200DB0A4
:1005000000BD00000000080803498862C869400671
:10051000FCD50020704700000044004010B50C4698
:100520000346002204E01878FFF7EEFF521C5B1C24
:10053000A242F8DB002010BD70B5194C8AB02068CB
:1005400042062068520E7F21090208404004430EF3
:1005500020683F21090408408002860E60686168B7
:100560008006800E1F252D022940C904CD0E61682A
:1005700064680902090E2404640F03910190009637
:100580000295049407A105A801F06EFA05A8FFF7EB
:100590004BFE014605A8FFF7C1FF00200AB070BD61
:1005A0000028004025782578257825782578257835
:1005B00025780000F0B51F4C1F4D20688DB029181C
:1005C0002039C97F3F29FDD1401E60603421684633
:1005D000FFF71FFE00F004F9184F32213A46684633
:1005E00000F012F900F0E4F800216B466268A068A0
:1005F00009E02E5C5E54401CC617B60E3618B609CC
:10060000B601801B491C16469042F2D1721C401C58
:100610006260A06000F0E4F86846FFF705FE01465E
:100620003A46684600F0F0F8044600F0C1F820466B
:100630000DB0F0BD040000202800002000000808D4
:10064000F0B5544A544B11688DB058182038C07F0B
:100650003F28FDD1491E5160002405AD906809E096
:100660001E5C2E55401CC617B60E3618B609B601CC
:10067000801B641C8842F3D19060002108A881701F
:1006800068460A91417D007D0A2230385043303857
:10069000091808A881736846C17D807D3F4C3038B9
:1006A00050433038091808A841736846417E007EDF
:1006B000303850433038091808A80173606868461C
:1006C000C17E807E303850433038091808A88171C7
:1006D0006846417F007F303850433038091808A8F9
:1006E00041716846C17F807F3038504330380918E7
:1006F00008A8C171007807213038FFF72DFD08A840
:1007000001710AAA0021204600F0F8FA09AA002186
:10071000204600F06DFA20684206520E08A8827347
:1007200020687F21090208404004430E08A8437353
:1007300020683F21090408408002870E08A807733B
:1007400060688106890E08A8817160681F252D02E6
:100750002840C004C60E08A8467160680002050E55
:1007600008A8C57160680004440F08A804710191CD
:10077000009702960395049409A105A801F074F965
:1007800005A8FFF751FD014605A8FFF7C7FE0020A9
:100790000DB0F0BD0400002028000020002800401B
:1007A00025782578257825782578257825780000FE
:1007B00004488169C907FCD14168012211434160A5
:1007C000704700000020024010B5002304E01478B8
:1007D0000470401C521C5B1C8B42F8DB002010BDD7
:1007E00006484168C90705D00549C1600549C1608F
:1007F000002070470020C0437047000000200240E6
:10080000EFCDAB890504030210B5002304E00478A2
:100810001470401C521C5B1C8B42F8DB002010BD86
:1008200008484168890709D50749016107490161FD
:100830004168022291434160002070470020C0437C
:100840007047000000200240BFAE9D8C16151413A7
:1008500072B6094A9369DB07FCD108609069C0074A
:10086000FCD162B69069800703D502209061002018
:10087000704701207047000000200240FEE70000A2
:1008800008B504498A6B02438A63896B0140009171
:1008900008BD00000010024008B504494A6B02433D
:1008A0004A63496B0140009108BD000000100240FE
:1008B00010B50479002325490268002C3DD0002A98
:1008C00042D04479002C0FD0012C15D0022C16D028
:1008D00001238279002A37D0012A18D0022A1FD09A
:1008E000032A21D001232FE04C6894434C60026816
:1008F0000C6814430C60ECE70C68944301E00C684E
:1009000014430C6002684C6814434C60E1E70268D1
:10091000CC689443CC6000688A6802438A6013E024
:1009200002688C68944302E002688C6814438C600F
:100930000068CA680243CA6006E00C6894430C6011
:1009400000684A6882434A60184610BD00040140AE
:10095000F0B500243EE001232A46A3401A4038D0D7
:100960004F680668134653435D005D19AE435F430D
:100970003E4306604E68012E01D0022E05D18F68DD
:1009800086685F43AE433E4386600F69C668AE43E8
:100990001D467D432E43C6604D68022D19D1FF2AA6
:1009A0000AD84E69056A534353431A01D21A954334
:1009B00073431D4305620CE0130A1A465A435A4317
:1009C0005A4313019E1A4D69436A6A43B343134362
:1009D0004362641C0A681546E240BCD14A68012A99
:1009E00001D0022A06D1CB6841682A4691435A4376
:1009F000114341600020F0BD10B5036849434C002D
:100A00000C19A34351430B43036010BD10B5C368D9
:100A100049434C000C19A34351430B43C36010BD21
:100A200008B50449CA6A0243CA62C96A0140009112
:100A300008BD00000010024010B57D21C900FFF77D
:100A400075FB0449401E486100208861052008614B
:100A500010BD000000E000E070B5044600680E46DE
:100A6000012528402AD1F16870682268084331695D
:100A7000134B1A40114308432060B1686068032299
:100A800012039043084360607169A068121190439B
:100A90000843A060900000F01FF800280ED03268D4
:100AA000002A0BD0010E06020025500830186941BB
:100AB0002B46FFF765FB0003000BE060284670BD86
:100AC000F3E9FFEF03480169012292041143016138
:100AD000704700004010024010B514490024CA6855
:100AE00002400815121A11D0121A13D0824206D1F0
:100AF00008698005C00F00D05401204610BD00F0E9
:100B0000EDFB00F0D1FB00F0DDFB01E000F0E6FBC7
:100B10000446F2E700F048F80028EED000F04CF868
:100B2000002801D0024CE8E7024CE6E74010024002
:100B300000093D000024F40010B500240C2828D141
:100B40001549CA68024000040243144810180AD02C
:100B500004280CD0082816D000F0C0FB00F0A4FB3D
:100B600000F0B0FB01E000F0B9FB044611E000F03A
:100B70001BF800280DD000F01FF8002801D0084C09
:100B800007E0084C05E008698005C00F01D001248A
:100B9000E403204610BD000040100240FCFFF3FFBC
:100BA00000093D000024F400024800684007C00F1F
:100BB000704700000010024002480068C006C00FE5
:100BC000704700000010024010B5029C4903240643
:100BD000240A1B0621431B0C1943D2B2114342685D
:100BE000024B1A400A43426010BD0000C00000FFE3
:100BF000F8B5012614460F460546002906D160784F
:100C0000C10603D5EF2108400A306070CA2068622F
:100C100053206862284600F039F801282AD0E0788D
:100C2000002F04D000906378A278217816E00A2182
:100C3000FFF77CFA00010843C7B260780A21FFF78A
:100C400075FA00010843C6B2A0780A21FFF76EFAD0
:100C50000001084300972178C2B233462846FFF7C7
:100C6000B3FF80200849C043C860A8688006C00F51
:100C700004D00026FF2068623046F8BD284600F008
:100C800087F80646F6E700000028004018B57D21E9
:100C9000C9000091C16800224906C90F15D1491E3B
:100CA000C160C1680B4B4906C90F0CE01969C90343
:100CB000C90F02D00099491E0091C168009C4906E5
:100CC000C90F002C03D00029F0D0104618BD012216
:100CD000FBE7000000E000E01206120A10B50A432C
:100CE0001906090C029C0A43E1B20A430168024B4F
:100CF00019401143016010BD808080FFF8B50546A2
:100D000014460F4601260020AA6840210A4200D15D
:100D10002060CA206862532068622846FFF7B6FF49
:100D200001282AD0A079002F04D00090637922797D
:100D3000216816E00A21FFF7F9F900010843C7B25C
:100D400060790A21FFF7F2F900010843C6B2207961
:100D50000A21FFF7EBF90001084300972168C2B2AE
:100D600033462846FFF7B8FF80200849C043C860D3
:100D7000A8688006C00F04D00026FF2068623046B5
:100D8000F8BD284600F004F80646F6E700280040C3
:100D900038B57D24E4000094C268002180231A4005
:100DA000A13AC260C268164B9206D20F0CE01A69D3
:100DB000D203D20F02D0009A521E0092C268009D48
:100DC0009206D20F002D18D0002AF0D1002912D19E
:100DD0000094C2689206D20F0BE01A69D203D20FB8
:100DE00001D0621E0092C268009C9206D20F002CB5
:100DF00003D0002AF1D0084638BD0121FBE70000EE
:100E000000E000E010B5036801225B06DB0F25D18E
:100E10000CC94C681A430B6823431A438B681A4366
:100E2000CB681A430B691A434B691A438B691A43FF
:100E300003680B4C23401A430260426804239A4320
:100E4000CB681B0C1A43426001238A695B03083993
:100E50009A4202D1898C89B201610022104610BDEC
:100E60004000FFFF0A06930D054A10B59B189A68CB
:100E7000090C0F248C40A243884002439A6010BDA5
:100E80000000014001490860704700002400002074
:100E900070B5044600680D46012630403BD1E96834
:100EA0006868AA69084329691143084321681B4AF5
:100EB000114008432060A86861680322120391432F
:100EC000014361606969A068121190430843A06002
:100ED000134884421FD10C20FFF72EFE00281AD0A1
:100EE0002968002917D0AA690026E3139A420CD179
:100EF00040004A088018FFF719F981B209480840F4
:100F00000907490F0143E16005E04A081018FFF79F
:100F10000DF980B2E060304670BD0000F369FFEF6C
:100F200000440040F0FF00000848426A0949084BAD
:100F300008681A54401CC217920E121892099201A6
:100F4000801A08600449012008607047004800408A
:100F500068000020100000201C000020F0B589B0BF
:100F600000240694182168460794FFF752F90420DC
:100F7000FFF756FD0120FFF753FD0220FFF750FD5C
:100F8000082005263607B0624001B062C000B0629A
:100F9000394F0820B8621020B8622020B8620820BB
:100FA000012500900294039469460195049430460B
:100FB000FFF7CEFC28020090029403946946019545
:100FC00004943046FFF7C4FCE802009002940394B6
:100FD0006946019504943046FFF7BAFC082000905A
:100FE000029403946946019504943846FFF7B0FCD7
:100FF00010200090029403946946019504943846A9
:10100000FFF7A6FC20200090029403946946019506
:1010100004943846FFF79CFC18490120FFF722FF93
:1010200017490120FFF71EFF002240213846FFF735
:10103000EDFC002280213846FFF7E8FC0022402129
:101040003846FFF7D9FC002280213846FFF7D4FC50
:1010500040200690684605774477857706A8FFF715
:1010600027FC80200690684605774477857706A898
:10107000FFF71EFC09B0F0BD00040050010008009D
:1010800001000C00F0B58DB0182106A8FFF7C1F8DB
:1010900018216846FFF7BDF801208004FFF7F0FB38
:1010A0000120FFF7BDFC00240627012002250326AE
:1010B00003946A460597049461C2052069460007B7
:1010C000FFF746FC00950520039469460007059745
:1010D000029601950494FFF73BFC00211D2000F0CF
:1010E000BFF80949280708604B20C00106900C2072
:1010F0000A9007940894099406A90B940348FFF7F3
:10110000ABFC0DB0F0BD000000E100E00048004085
:10111000F0B591B0282106A8FFF77BF818216846A2
:10112000FFF777F801200003FFF7B6FB0120FFF778
:1011300077FC0024202002250326039404946A46A9
:10114000059461C205273F0769463846FFF700FC52
:101150004020039404946A46059461C26946384667
:10116000FFF7F6FB8020039404946A46059461C25D
:1011700069463846FFF7ECFBFF20053007900694E0
:101180000894099428020A940C940D940E940B90E0
:101190000720064C0F9006A92046FFF733FE606833
:1011A00010218843606011B0F0BD000000300140A4
:1011B000F0B58DB01C2106A8FFF72BF81821684662
:1011C000FFF727F801204004FFF75AFB0120FFF743
:1011D00027FC002401200427400202250326039453
:1011E0006A460597049461C2052069460007FFF727
:1011F000AFFB680203946A460597049461C2052018
:1012000069460007FFF7A4FB00211C2000F028F826
:1012100001251049280708604B20C001069007945B
:10122000089409940B940C940C200B4C0A9006A97A
:101230002046FFF72DFE60680921C90288436060DF
:10124000A0682A218843A0602068284320600DB050
:10125000F0BD000000E100E00044004070470000E5
:101260008307FF22DB0E9A408907090E9940002868
:101270000BDA0007000F0838830808489B0018188D
:10128000C36993430B43C3617047830804489B00C1
:101290001B181868904308431860704700ED00E081
:1012A00000E400E0704700000449C968F0221140E2
:1012B000034A0909515CC840704700000010024011
:1012C000A41E00080349C968034A4905490F515C37
:1012D000C840704700100240BD1E000810B50F49FD
:1012E000CA680C2002400E4805D0042A09D0082AFA
:1012F0000FD00C2A0FD049680904490F491C8840B7
:1013000010BDFFF759FC002801D0064810BD064863
:1013100010BD064810BD00F00BF810BD00100240D3
:101320000080000000093D000024F40000127A0053
:1013300010B50E4CE06801210904084205D1FFF701
:101340003BFC00280FD00A4A00E00A4AE06800028D
:10135000810FE068084B8002000F185C491C504365
:10136000FEF7E4FE10BD054AF0E700000010024061
:1013700000093D0000127A00B41E00080024F400A9
:1013800002480168491C016070470000000000200D
:1013900010B5154A13683F24240423409B029B0E7A
:1013A000037113687F24240223405B045B0E4371A6
:1013B00013685B065B0E837113680124A405234048
:1013C000036050688006800E887050681F231B02DF
:1013D0001840C004C00E48705068000CC8705068B7
:1013E0000004400F087010BD0028004010B51048E0
:1013F000CA21416253214162826881158A43826019
:10140000C268D207FCD0826805239B021A4382601F
:10141000C269D209D201C261064BC269064C2240A0
:101420001A43C26182680A438260FF21416210BD93
:1014300000280040008080807F7F7F7F704770475A
:10144000F8B5384801684908490001600068364924
:1014500001230868DB020322D2029043184308608C
:10146000324D2B68881503432B602B689B05DB0FDF
:10147000FBD001246B68A40307267603B343234300
:101480006B606B681B021B0A6B600B6803430B608D
:10149000264C403423690121C9040B43236123698D
:1014A0008B432361216991432161216901432161BA
:1014B00020698005C00FFBD00121206909040322A7
:1014C0001204904308432061FFF7FCFAE868F0211A
:1014D0008843E860E868072109028843E860E86813
:1014E000C9008843E860E86880088000E8600C264E
:1014F000E8683042FCD10127BF043846FFF79CFA68
:101500000B4801690425294301613846FFF7BAFCFD
:10151000E068B0432843E060E06803218902884323
:10152000E060F8BD00200240007000400010024062
:1015300000E000E010480168821511430160C168B5
:101540000E4A1140C16001680D4A11400160816876
:1015500049084900816001680122920491430160B9
:10156000C168FD2212049143C16000210161054957
:10157000C003886070470000001002400C40FF88E4
:10158000F6FFF6FE00ED00E00748426A0849074B07
:1015900008681A54401CC217920E12189209920140
:1015A000801A0860704700000044004028000020B6
:1015B0000400002010B51349C86800281FD0124B42
:1015C0000A68886809E01C5C3F2C0BD0401CC417DB
:1015D000A40E2418A409A401001B9042F3D10120F9
:1015E000C04310BD401CC217920E121892099201FE
:1015F000801A88603F2000F0E7F9002010BD00202D
:10160000C04310BD100000206800002070B58AB0F3
:1016100000240E460546049401460594069407945A
:101620000894062207A80994FEF7DAFDB21FA91D47
:1016300004A8FEF7D5FD0194029403214EA0039463
:1016400000F0CCF9694601A800F004F901A800995E
:10165000FEF764FF042149A000F0C0F9012149A070
:1016600000F0BCF90D2000F0AFF9694601A800F0C8
:10167000F1F801A80099FEF751FF042142A000F003
:10168000ADF9032142A000F0A9F90D2000F09CF96A
:10169000694601A800F0DEF801A80099FEF73EFFB8
:1016A00004213CA000F09AF904A8FEF7BDFD014614
:1016B00004A800F093F90D2000F086F9694601A80E
:1016C00000F0C8F801A80099FEF728FF042133A014
:1016D00000F084F907A8FEF7A7FD014607A800F06F
:1016E0007DF90D2000F070F9694601A800F0B2F80C
:1016F00001A80099FEF712FF04212AA000F06EF95C
:101700000D2000F061F9694601A800F0A3F801A8D6
:101710000099FEF703FF042124A000F05FF90D20DB
:1017200000F052F9694601A800F094F801A8009968
:10173000FEF7F4FE042119A000F050F90D2000F08E
:1017400043F9694601A800F085F801A80099FEF761
:10175000E5FE04210FA000F041F90D2000F034F95E
:10176000694601A800F076F801A80099FEF7D6FEB8
:1017700000200AB070BD00002B2B2B0041544354B5
:1017800000000000350000004154475400000000F4
:10179000314634004154444C000000004154444858
:1017A00000000000415441430000000041545752E2
:1017B00000000000024841692022914341617047C6
:1017C0000004005010B5012802D00020C04310BD15
:1017D00000F012F910BD000000B58FB0342168464A
:1017E000FEF717FD032116A000F0F8F80DA96846D2
:1017F00000F030F868460D99FEF790FE042111A024
:1018000000F0ECF80D2000F0DFF80DA9684600F0BC
:1018100021F868460D99FEF781FE04210BA000F027
:10182000DDF80D2000F0D0F80DA9684600F012F8A0
:1018300068460D99FEF772FE00200FB000BD000053
:101840002B2B2B0041544448000000004154444CD1
:1018500000000000F8B51A4C1A4B22680F46991880
:101860002039C97F0D29FDD1521E62600025A16873
:1018700009E05E5C4655491CCE17B60E7618B609CF
:10188000B601891B6D1C9142F3D1A1600021E1607A
:10189000FEF7CAFC38602068401CC117890E091881
:1018A00089098901401A2060A068801CC117890E2F
:1018B000091889098901401AA0600020F8BD0000BC
:1018C000100000206800002000B58FB03421684669
:1018D000FEF79FFC032116A000F080F80DA96846D2
:1018E000FFF7B8FF68460D99FEF718FE042111A016
:1018F00000F074F80D2000F067F80DA96846FFF7B6
:10190000A9FF68460D99FEF709FE04210BA000F01F
:1019100065F80D2000F058F80DA96846FFF79AFF0A
:1019200068460D99FEF7FAFD00200FB000BD0000DB
:101930002B2B2B0041545348000000004154534CC2
:1019400000000000F0B51C4E8DB0B4681B4F25465A
:10195000306809E0395D3F2912D0641CE117890E17
:10196000091989098901641A8442F3D184421DD07E
:1019700034216846FEF74DFC00206A4671680CE091
:10198000611C7160F2E77B5D13546D1CEB179B0EBD
:101990005B199B099B01ED1A401C8D42F3D108A1F4
:1019A0001046B560FEF747FC002802D000200DB0BD
:1019B000F0BD0120FBE700001000002068000020BF
:1019C0004454413F0000000003498862C869400652
:1019D000FCD50020704700000048004010B50C46C0
:1019E0000346002204E01878FFF7EEFF521C5B1C50
:1019F000A242F8DB002010BD00B587B0182209A173
:101A00006846FEF7EDFB6846FEF70EFC01466846A9
:101A1000FFF7E4FF3F20FFF7D7FF084900200861E8
:101A200007B000BD746869732C69730A62756C6CC9
:101A3000736869742C6461746100000010000020F8
:101A400010B5FFF7B7FEFFF7B5FD002809D1054C2B
:101A500001202061FFF776FFFFF7B4FE2069002820
:101A6000F8D110BD100000200FB410B504A9074B29
:101A700002AA039800F028F8044602A9002000F00A
:101A800091F9204610BC08BC04B01847A51D0008F9
:101A900030B47446641E2578641CAB4200D21D46E7
:101AA000635D5B00E31830BC184702E008C8121FF2
:101AB00008C1002AFAD170477047002001E001C137
:101AC000121F002AFBD17047FFB58FB00F460446A6
:101AD000002606E025280AD0129A11999047641C26
:101AE000761C20780028F5D1304613B0F0BD0025D3
:101AF0000121A14A009500E00543641C23780846B3
:101B0000203B98401042F7D120782E2815D1042090
:101B100005436078641C2A280AD101CF641C009018
:101B20000BE000990A22514330394018641C0090A0
:101B30002078014630390929F3D920786C280ED055
:101B400004DC4C2813D06A2812D104E074280ED08B
:101B50007A280DD10BE001204005054307E0012163
:101B6000090562780D43824201D16D18641C641C22
:101B70002078864669284AD008DC0028B4D0582846
:101B80006DD0632810D0642808D140E070286BD055
:101B9000732812D0752860D0782860D0129A7046C9
:101BA00011999047761CE5E0387869460872002064
:101BB000487202A80190012003E0386801900020DB
:101BC000C0433F1D69070CD5002500E06D1C00993E
:101BD0008D420FDA8542F9DB0199495D0029F5D183
:101BE00008E0002500E06D1C8542FCDB0199495DA1
:101BF0000029F8D1761907E0019801990078491C6D
:101C00000191129A119990476D1EF5D2B2E00A2007
:101C1000029000216802400F039102280CD001CFEE
:101C2000C117844600290DDA624608465242002157
:101C3000814194462D2008E0FF1DFF08FF0003CFDF
:101C40008446EFE7280504D52B206A46107401204E
:101C50003CE0E8073AD02020F7E70A2000E0102017
:101C600000210391029007E010200290002104203F
:101C700005430820039100906802400F022810D00D
:101C800001CF0021844600200D9028071FD5704603
:101C900070280CD0029A1020039B42401A430CD0AB
:101CA00015E0FF1DFF08FF0003CF8446EBE740204F
:101CB0006A46107401200D900CE06046084306D07F
:101CC00030206A4610747046507402200D907046A1
:101CD000582804D029A001900DA80E900DE02CA04A
:101CE000F9E76046039B029AFEF74AFA019B844695
:101CF0009B5C0E9A521E0E92137060460843F0D100
:101D00000E9805A9081A20300190680701D500989F
:101D100001E0012000900199884203DD014601980D
:101D2000081A00E000200025009006E004A8129A9E
:101D3000405D119990476D1C761C0D988542F5DB2E
:101D400004E0129A302011999047761C0099481EA1
:101D500000900029F5DC08E00E980E990078491CE7
:101D60000E91129A11999047761C0199481E019084
:101D70000029F1DC641CB4E609280100303132335B
:101D800034353637383961626364656600000000B7
:101D900030313233343536373839414243444546A1
:101DA000000000000A68531C0B60107070470000B0
:101DB0000448816B012211438163FF2007309107A2
:101DC00088627047001002400EB50120FEF764FDE6
:101DD00001200007FEF754FDFFF732FBFFF7BEF8C6
:101DE000FEF770FE00210220FFF73AFA012427498E
:101DF00004200860264881680215114381608168CB
:101E0000C908C9008160FFF783F9FFF7D1F9FFF72F
:101E100039F920480168A14301601F490A68A243BB
:101E20000A600B68202213430B60036813430360AE
:101E30000A6822430A6001682143016062B6FFF725
:101E4000D5FAFFF7B5FFFEF7CBFCFEF7E9FC134927
:101E50001348FEF7FDFCFEF7ABFCFEF765FA002821
:101E60000CD0FEF729FA002804D107E0FEF7AEFAFD
:101E7000FEF78AFAFEF758FA0028F7D1FFF7E0FDDF
:101E800002A96846FFF784FAE7E7000000E100E0F6
:101E9000002800400044004000480040003F000887
:101EA000BFBF0000000000000000000001020304AA
:101EB00006070809030406080C101820300000006B
:101EC0000001020304000000E81E000800000020DA
:101ED00028000000AA1A0008101F0008280000208F
:101EE00080040000BA1A0008000000000000000092
:101EF00000000000000000000000000000000000E2
:101F000000000000000000000000000000002000B1
:04000005080000C12E
:00000001FF
