:020000040800F2
:10000000E8040020D5000008E1280008F50F0008EA
:1000100000000000000000000000000000000000E0
:10002000000000000000000000000000B52B0008E8
:10003000000000000000000091290008B72B000814
:100040000501000805010008C92A0008050100088B
:100050000501000805010008050100080501000868
:100060000000000005010008050100080501000866
:100070000501000805010008000000000501000856
:100080000000000000000000000000000000000070
:100090000501000800000000000000000501000844
:1000A0000000000005010008000000000000000042
:1000B000792D000821240008000000000000000045
:1000C0000348854600F0A6F900480047B52D000812
:1000D000E80400200C4880F308880C480168090EE9
:1000E0000B4A914205D10B480B4901600B480C4962
:1000F00001600C4880470C480047FEE7FEE7FEE73A
:10010000FEE7FEE7FEE70000E80400200400000030
:100110001F000000341002400100000000000140F8
:1001200000000000812C0008C100000830B50B461B
:10013000014600202022012409E00D46D5409D42C1
:1001400005D31D469540491B254695404019154647
:10015000521E002DF1DC30BD70B50024254600286C
:1001600001DA01244042002901DA01254942FFF762
:10017000DDFFAC4200D04042002C00D0494270BDAF
:10018000F0B51FB40646002082B005464024019118
:1001900000901BE0019922460F46304600F0AEF871
:1001A000049A059B801A994110D31046194622469D
:1001B00000F094F8361A8F41019722460120002161
:1001C000009F00F08BF838184D4100902046641EC7
:1001D0000028DFDC019B00982946324607B0F0BDBD
:1001E000D2B201E00270401C491EFBD270470022CF
:1001F000F6E710B513460A4604461946FFF7F0FF26
:10020000204610BD10B5044605E00B780370401C75
:10021000002B00D0491C521EF7D2204610BD421CB4
:100220000178401C0029FBD1801A704770B5104D31
:10023000002800D12868002414E00A4602E09E420B
:1002400003D0521C1378002BF9D1DAB2224307D025
:10025000002B06D0002C04D000210170401C04E0CB
:100260000446401C0678002EE7D12860204670BD69
:100270000000002070B5064602F0ECFD046805465B
:100280000A220021304600F04BF82C6070BD01229C
:10029000D207002800DB101A002900DB511A814226
:1002A00001D801207047002070470122D2070028A2
:1002B00000DB101A002900DB511A814201D901200C
:1002C000704700207047C217C10F504010B540184A
:1002D000CA079623002100F063F810BD10B5202A4C
:1002E00004DB0146203A9140002010BD91402023BC
:1002F0009C1A0346E3401943904010BD10B5202AD4
:1003000004DB0846203AD040002110BD0B46D34004
:10031000D0402024A21A91400843194610BD000085
:10032000F7B5009C0F4600262578641C002D05D0EB
:1003300000F082F80068405DC007F5D12B2D02D097
:100340002D2D18D0641E39462046029A00F078F808
:10035000002F04D03968A14201D10099396071059C
:10036000022400290BDA4042002803DD02F072FD6E
:100370000460A007FEBD012080020643E3E70028D9
:10038000F8DA02F067FD04600048FEBDFFFFFF7F62
:10039000002904DA401C490001D1400840007047A0
:1003A00070B40024050C05D11024000402D10029EA
:1003B00021D01124050E01D100020834050F01D10E
:1003C0000001241D850F01D18000A41C002801DB41
:1003D0004000641C002908D020252E1B0D46F54046
:1003E000A14000D001212943084301061B1B000A3C
:1003F000DB1D02D5002070BC7047DB051818801883
:100400000029F8DA401C4900F5D170BC40084000D2
:1004100070470000064C0125064E05E0E36807CC56
:100420002B430C3C98471034B442F7D3FFF74CFEF3
:10043000242F0008442F000800487047FC2E0008B5
:10044000F7B582B0029C00272078641C15460197FE
:10045000302802D0002D15D015E020780127641C2B
:10046000782804D0582802D0002D09D00BE0002DA8
:1004700001D0102D07D1002710252078641C02E040
:10048000082500E00A250026009610E000990127C3
:1004900069430818020C294680B2714300908E18F7
:1004A0003804864201D3012001902078641C29463B
:1004B00000F019F80028E9DA0398002805D0002F89
:1004C00001D0641E00E0029C04600198002806D060
:1004D00002F0C0FC02210160C81E05B0F0BD009909
:1004E00030040843F9E73A2800D230382023024686
:1004F0009A43412A01D310463738884201D300205D
:10050000C043704780B584B0014603AA10701078CC
:10051000094A02901046029A0191114601F066FFC5
:10052000FFE70648006840210840402801D0FFE767
:10053000F7E7002004B080BD004400401C440040A8
:1005400080B586B00A4603460590049100200390CA
:1005500002920193FFE70398049988420DDAFFE7BE
:1005600005980078FFF7CEFF0599491C059100908A
:10057000FFE70398401C0390EDE7002006B080BD24
:1005800010B585B00A46034604AC20700391039869
:10059000029004980299087000200192009305B01F
:1005A00010BDB0B588B013460C46054606900591BF
:1005B000049200200390029301940095FFE70398B2
:1005C0000599884217DAFFE7069800780499FFF743
:1005D000D7FF002804D0FFE70020C04307900DE0BC
:1005E0000698401C06900498401C0490FFE703986E
:1005F000401C0390E3E700200790FFE7079808B04E
:10060000B0BD7047FFE7E6480068C007002801D08A
:10061000FFE7F8E7C64801680122114301600020A6
:100620007047C046B0B588B013460C4605460790E3
:10063000069105920598039000200490029301947E
:100640000095FFE70498069988420FDAFFE70398C0
:100650000078079908700798401C07900398401C81
:100660000390FFE70498401C0490EBE7002008B0DB
:10067000B0BD000081B0AE480068C007002808D0B7
:10068000FFE7074807490160074901600020009023
:1006900003E00020C0430090FFE7009801B07047DE
:1006A0000C200240EFCDAB890504030283B0014664
:1006B00001909F4802684123DB001A4302600198C1
:1006C000002202600091FFE7B5480068C0070028DB
:1006D00001D0FFE7F8E7B24800688007002804D59A
:1006E000FFE7AF480221016003E00020C043029011
:1006F00008E08F4801684122D20091430160002048
:100700000290FFE7029803B07047C04680B58AB0F8
:10071000774809901048089007A900220A700690AF
:100720000591FFF7A7FF099A08A90423049008463A
:100730001946FFF736FF039000F0DEF806990290A5
:100740000846FFF7B3FF0190FFF75CFF05990A78B1
:10075000009010460AB080BD00370008F0B5ABB07D
:10076000349C339D329E319F1590309814901846DA
:1007700013901046129008461190159829942895C8
:1007800027962697149C25942493239222911599B9
:100790002191239A1DAB1A7021AA557A5D70957A22
:1007A0009D70D57ADD70269B1CAD2B70537D6B70D0
:1007B000937DAB70D37DEB70289B1BAD2B70537F6B
:1007C0006B70937FAB70D27FEA7020AA0421484BF4
:1007D000109010461A46FFF725FF209920311F91EF
:1007E0002099444A91420F9004D3FFE70020C04370
:1007F0002A9079E0FFF73EFF1FA909783C4A0E9046
:1008000008461146FFF7BCFE0D9000F075F820A9D0
:100810000978490600290C9005D1FFE72098FFF7D9
:1008200045FF0B90FFE721A81E901E990968209AAA
:100830000A900846114600F083F80A990A1D1E9294
:100840001E9A1268209B191D0990104600F078F836
:100850001DA91E911E990968209A08320890084621
:10086000114600F06DF80A990C311E911E99096825
:10087000209A0C3207900846114600F061F80A9958
:1008800010311E911E990968209A10320690084670
:10089000114600F055F81CA91E911E990968209A6E
:1008A000143205900846114600F04AF80A991831AA
:1008B0001E911E990968209A183204900846114624
:1008C00000F03EF81BA91E911E990968209A1C325F
:1008D00003900846114600F033F80290FFF792FEAD
:1008E00000212A910190FFE72A982BB0F0BDC04665
:1008F00014000808FFFF000881B00D480068800759
:1009000000280DD5FFE70B480B4901600B4901603A
:10091000074801680222914301600020009003E033
:100920000020C0430090FFE7009801B07047C04628
:100930000420024010200240BFAE9D8C16151413F7
:1009400085B00A4603460390029172B60192009365
:10095000FFE713480068C007002801D0FFE7F8E769
:10096000039802990860FFE70D480068C007002857
:1009700001D0FFE7F8E762B6094800688007002861
:1009800006D5FFE70648022101600020049003E03D
:100990000020C0430490FFE7049805B07047C046AC
:1009A0001820024007480168012212021143016029
:1009B0007047C0460348016801221202914301605A
:1009C0007047C046140000500548016810221143CA
:1009D000016070470248016810229143016070472E
:1009E0001404005080B586B0124805901248049057
:1009F000124803901248029000200190FFE70198EE
:100A00000F2813DCFFE7FFE7F04800680006002826
:100A100001D5FFE7F8E7019802A9095CEA4801F06F
:100A2000A5FBFFE70198401C0190E8E7002006B015
:100A300080BDC0460100053F010101010800F10031
:100A4000B562060110B5BCB03BA900220A700121B5
:100A50003A91399219A97D230D90084619460C92B6
:100A6000FFF7C5FB0C9818901790169012A9087004
:100A7000D249242208460B911146FFF7B8FBD04813
:100A80000B9908620C9810900F900E90FFE712A837
:100A90000078002800D086E13A98401E04280A9089
:100AA00000D97FE10A98400078448088400087445C
:100AB0000400790129008C00BF00C348002101F027
:100AC00055FBFFE7C14800680006002801D5FFE795
:100AD000F8E7BD4801F023FB3BA9087008782428FB
:100AE00005D1FFE703203A9000201890FFE73BA8CC
:100AF0000078B52805D1FFE70020189004203A902F
:100B0000FFE74FE1B048002101F030FBFFE7AF48BD
:100B100000680006002801D5FFE7F8E7AA4801F0C1
:100B2000FEFA3BA908703B98189A19AB98540878BC
:100B3000FF2803D1FFE701203A9006E03BA80078A8
:100B4000FF2801D0FFE7FFE7FFE7189819A9085C25
:100B50002A282FD1FFE79C48002101F007FBFFE77F
:100B60009A4800680006002801D5FFE7F8E7964894
:100B7000099001F0D4FA13A908700021099801F036
:100B8000F5FAFFE7914800680006002801D5FFE765
:100B9000F8E78D4801F0C3FA13A94870189819A90D
:100BA00008180D224270189808180A218170052033
:100BB0003A90FFE718987D2803DBFFE701203A9081
:100BC000FFE71898401C1890ECE07F48002101F0E6
:100BD000CDFAFFE77D4800680006002801D5FFE751
:100BE000F8E7794801F09BFA3BA908703B98189AFE
:100BF00019AB98540878FF2803D1FFE701203A90F9
:100C00000BE03BA80078FF2806D0FFE73BA801785F
:100C10006F4801F0F8FBFFE7FFE718987D2803DB3A
:100C2000FFE701203A90FFE71898401C1890B9E0C0
:100C300019A87D210890FFF783FC08990A78502AAB
:100C4000079053D1FFE719A8407855284ED1FFE708
:100C500019A88078422849D1FFE75A4919A8FFF717
:100C6000E5FA159000201690FFE7169815283CDC51
:100C7000FFE754490020FFF7D9FA15901698801E17
:100C8000062806902CD806987844007940008744BE
:100C9000030B101827271D00159948480A300A220F
:100CA000FFF7B0FA05901BE01598007843490875E6
:100CB00016E01599414815300A22FFF7A3FA04906F
:100CC0000EE0159800783D49C87709E01598FFF7C0
:100CD000D1FAFFF7F8FA3949086217201690FFE7B2
:100CE000FFE71698401C1690BFE7FFE719A80078A9
:100CF000472853D1FFE719A840784E284ED1FFE787
:100D000019A88078522849D1FFE719A8C0784D2842
:100D100044D1FFE700201190FFE7119819A9039033
:100D20000846FFF77CFA0399814236D2FFE7119813
:100D300019A9085C2C2808D1FFE71098401C1090D6
:100D40000F980E9011980F90FFE71098022810D17D
:100D5000FFE7399800280CD1FFE70E9819A9081869
:100D6000411C16480422FFF74DFA012139910290E7
:100D7000FFE710980A280BD1FFE70E9819A9081869
:100D8000411C0E48001D0422FFF73CFA019004E0CC
:100D9000FFE71198401C1190BFE7FFE712A801215F
:100DA0000170FFE773E605480D991CC81CC11CC8FB
:100DB0001CC11CC81CC13CB010BDC0465400002062
:100DC000804FC347212F0008003001400830014008
:100DD00000440040F0B5A5B07E4824211890FFF7EC
:100DE00006FA7D4818990862FFF7F4FDFFF7DAFD6F
:100DF000962001F077FF1790FFF7DCFD7D20800043
:100E000001F070FF1690FFF7EDFD7449159008464C
:100E100001F098FFFFE7724800680021C007002832
:100E200014910FD1FFE76B48006A6E49FFF73DFA56
:100E3000012100281390129101D113981290129859
:100E40001490FFE71498C00700280DD0FFE719A8F9
:100E50001190FFF7F7FD5F4811991CC91CC01CC910
:100E60001CC01CC91CC0D6E75A48006A5D49FFF780
:100E70000EFA00280DD1FFE756485B4941820182F6
:100E8000C1818181418115300A213022FFF7A8F903
:100E9000FFE7504801780A2213464B43417859181E
:100EA000524BC91823AC2171817815464D43C17846
:100EB0006918C9186171017914464C434179611868
:100EC000C91822ACA170817915464D43C1796918C2
:100ED000C9186170017A4A43407A1018C018E0704E
:100EE0006078022806DCFFE722A8C1784A1EC2709B
:100EF000109104E022A8C078801E1090FFE710989F
:100F000022A98A781018887048781722424309204D
:100F10000F9010460F9A0E911146FFF707F90E99A0
:100F20008A788018CA789308C018001D64210D9033
:100F30001046FFF7FBF80D99081A0721FFF70CF987
:100F40000E9A1170D1782C290C901AD0FFE722A8A4
:100F5000C078012815DBFFE722A8C078632810DCE1
:100F6000FFE72499239822AA137854782402E318DF
:100F70009478D278120212191204D21801F0F2FDFC
:100F800006E014481A490160174A02814160FFE7F0
:100F90001048C368826841680468056946698769C2
:100FA0000B90C0690A900B98006A099068460890F7
:100FB00009980791089908610A98C8608F604E6087
:100FC0000D6020460799FFF7C9FB002106900846EF
:100FD00025B0F0BD78000020804FC3473075000079
:100FE000100000400000484230300000F0FDFFFFDC
:100FF00030303030FFE7FEE784B0014603900398BD
:10100000064A1368034313601068039A1040029065
:1010100002980191009004B07047C0463810024019
:1010200084B0014603900398064A13680343136093
:101030001068039A1040029002980191009004B049
:101040007047C0463410024082B0014601900198BA
:101050001B4A136883431360009102B07047C04677
:1010600082B00146019001981C4A136883431360C3
:10107000009102B07047C04682B0014601900198CD
:101080001D4A136883431360009102B07047C04645
:1010900082B00146019001981E4A13688343136091
:1010A000009102B07047C04682B00146019001989D
:1010B000034A136803431360009102B07047C046AF
:1010C0000404014082B0014601900198034A13686C
:1010D00003431360009102B07047C0460C04014006
:1010E00082B0014601900198034A136803431360DC
:1010F000009102B07047C0460004014082B0014632
:1011000001900198034A136803431360009102B0F1
:101110007047C0460804014080B586B0014605907E
:1011200004A800220270059800790028039167D076
:10113000FFE705980068002861D0FFE7059840792F
:101140000028029008D0FFE7029801280DD0FFE7A1
:101150000298022812D01AE005980068FFF774FF81
:1011600005980068FFF7BCFF15E005980068FFF7D9
:1011700083FF05980068FFF797FF0CE0059800686B
:10118000FFF7AEFF05980068FFF78EFF03E004A8A5
:1011900001210170FFE70598807900282ED0FFE734
:1011A000059880790128019008D0FFE7019802286E
:1011B0000DD0FFE70198032812D01AE005980068C7
:1011C000FFF74EFF05980068FFF798FF15E00598B8
:1011D0000068FFF75DFF05980068FFF773FF0CE0FC
:1011E00005980068FFF78AFF05980068FFF76AFF17
:1011F00003E004A801210170FFE7FFE7FFE708E033
:1012000005980068FFF738FF05980068FFF71CFF96
:10121000FFE704A8007806B080BD00000948006818
:10122000012108407047C04682B001460190054840
:10123000026801239A43019B1A430260009102B0A5
:101240007047C0460020024080B588B00A46034679
:101250000790069100200590049003920293FFE707
:10126000069800680599C840002845D0FFE7069811
:101270000068059901228A401040049004980028D3
:1012800036D0FFE707980499069A526800F0ABF849
:1012900006984068012805D0FFE7069840680228B4
:1012A00007D1FFE707980499069A926800F0FCF8C6
:1012B000FFE707980499069A126900F0DCF806988F
:1012C0004068022813D1FFE70498FF2807D8FFE7FA
:1012D00007980499069A526900F031F806E00798D9
:1012E0000499069A526900F047F8FFE7FFE7FFE725
:1012F0000598401C0590B3E706984068012805D082
:10130000FFE70698406802280AD1FFE70798069988
:101310000A68C96801911146019A00F07DF8FFE75B
:10132000002008B080BD84B00A46034603900291B5
:101330000298039988620192009304B0704770B5D7
:1013400086B013460C460546059004910392059815
:10135000006A04990A4652430E46564371430F22CF
:101360004A439043039A4A43104305990862029303
:101370000194009506B070BD70B586B013460C465A
:1013800005460590049103920598406A0499090A5C
:101390000A4652430E46564371430F224A43904336
:1013A000039A4A43104305994862029301940095B9
:1013B00006B070BDB0B586B013460C460546059024
:1013C00004910392059800680499494303224A4313
:1013D0009043039A4A43104305990860029301948D
:1013E000009506B0B0BDB0B586B013460C460546B4
:1013F00005900491039205980068049949430322DB
:101400004A439043039A4A43104305990860029364
:101410000194009506B0B0BDB0B586B013460C4639
:101420000546059004910392059840680499884305
:10143000039A4A431043059948600293019400952A
:1014400006B0B0BDB0B586B013460C460546059053
:10145000049103920598C0680499494303224A43C2
:101460009043039A4A4310430599C860029301943C
:10147000009506B0B0BDB0B586B013460C46054623
:101480000590049103920598C0680499494303228A
:101490004A439043039A4A4310430599C860029314
:1014A0000194009506B0B0BDB0B586B013460C46A9
:1014B0000546059004910392059880680499494374
:1014C00003224A439043039A4A4310430599886094
:1014D00002930194009506B0B0BD000084B00146AF
:1014E00003900398064A1368034313601068039A35
:1014F0001040029002980191009004B07047C046DD
:101500002C10024080B582B00146019001987D22E6
:10151000D2000091114600F003F802B080BD000037
:1015200080B584B00A46034603900291039802995D
:1015300001920093FEF7FAFD401E05490860054838
:101540000021016004480521016004B080BDC0464F
:1015500014E000E018E000E010E000E082B0014696
:1015600001900198026801239A430260009102B041
:10157000704782B0014601900198026801231A4326
:101580000260009102B0704780B586B00A460346FB
:101590000590049103A80121017000200290059894
:1015A0000192009300F03AF8002830D1FFE7059847
:1015B00000681949084004994A68CB681A430969C8
:1015C0000A4310430599086005980499896800F05A
:1015D0005FF805980499496900F048F803208002F3
:1015E00000F09CF80290029800280FD0FFE70498C2
:1015F000006800280AD0FFE703A8002101700598C1
:101600000299049A126800F013F8FFE7FFE703A8B5
:10161000007806B080BDC046F3E9FFEF82B0014616
:1016200001900198006801221040009102B07047BB
:10163000F0B587B013460C46054606900591049216
:101640000598010E0002049A560800278019794176
:1016500003933B4602940195FEF792FD0249084030
:101660000699C86007B0F0BDFFFF0F0084B00A46BE
:10167000034603900291039880680321090288437E
:1016800002990843039988600192009304B070475F
:1016900084B00A46034603900291039840680321F0
:1016A0000903884302990843039948600192009313
:1016B00004B070470A480168012212021143016018
:1016C0007047C04682B00146019005480268032376
:1016D000DB029A43019B1A430260009102B07047FB
:1016E00000700040D3480168012292041143016058
:1016F0007047C046CF4801680122D20411430160FF
:101700007047C046D3480068F02108407047C04683
:10171000D0480068072109020840704780B584B0AE
:1017200001460390002002900398019100F044F8D4
:1017300001460028009132D0FFE701208002009985
:1017400081420CD0FFE70120C002009981420AD0FB
:10175000FFE7032080020099814216D020E001F0CB
:1017600041F9029024E000F09BF800280CD0FFE73C
:1017700000F09CF8002803D0FFE74248029002E006
:101780003F480290FFE7FFE712E000F0A5F80028CD
:1017900004D0FFE70120C0030290FFE708E0FFE765
:1017A00001F020F901F0F6F801F008F90290FFE7E6
:1017B000029804B080BDC04682B001460190AE4898
:1017C0000068019A1040009102B07047A14800687B
:1017D0000C2108407047C0469E4800680C21084014
:1017E0007047C04680B584B0014603900020029047
:1017F00003980C2801913ED1FFE7039800F044F8CC
:101800001E4940180C2800902CD800987844007984
:101810004000874426272727062727270A27272728
:101820001C0001F0DFF8029024E000F039F80028F5
:101830000CD0FFE700F03AF8002803D0FFE711488A
:10184000029002E00E480290FFE7FFE712E000F08E
:1018500043F8002804D0FFE70120C0030290FFE70F
:1018600008E0FFE701F0BEF801F094F801F0A6F8F7
:101870000290FFE7FFE7029804B080BD0000F4FF8C
:101880000024F40000093D0082B0014601907A482E
:101890000068019A104012041043009102B0704792
:1018A00023480068042108408008704720480068E9
:1018B00010210840000970475E48016801221202A9
:1018C000114301607047C0465A480068012149022F
:1018D0000840400A7047C046564800680121490246
:1018E0000840400A7047C04682B001460190514806
:1018F00002680323DB029A43019B1A4302600091B2
:1019000002B070470A4801680122120211430160C7
:101910007047C046164800680721490308407047D1
:1019200003480068012149020840400A7047C04648
:101930000010024082B0014601900D480268FF236A
:101940001B069A43019B1B06D2180260009102B04D
:101950007047C04682B001460190054802680723DF
:101960005B039A43019B1A430260009102B07047E7
:101970000410024037480068032189050840704779
:101980003448006801210904084070473148006864
:101990000F21890408407047264801680122D204BB
:1019A000914301607047C04682B0014601902948CA
:1019B0000268F0239A43019B1A430260009102B02F
:1019C0007047C04682B00146019022480268072352
:1019D0001B029A43019B1A430260009102B07047B8
:1019E00082B0014601901B4802680723DB029A433C
:1019F000019B1A430260009102B0704782B0014619
:101A000001901D48026803239B029A43019B1A43DD
:101A10000260009102B0704782B001460190054813
:101A2000026803231B049A43019B1A43026000913E
:101A300002B070475010024082B001460190054844
:101A4000026803239A43019B1A430260009102B08B
:101A50007047C0460C10024010B582B0014601909C
:101A600005480268019B1C0CA2439BB21A4302600A
:101A7000009102B010BDC0464C10024082B0014639
:101A800001900198826801231B029A4382600091B1
:101A900002B0704782B0014601900198826801232C
:101AA0001B021A438260009102B0704784B00A465C
:101AB0000346039002910398C069054908400299C2
:101AC00008430399C8610192009304B07047C0466F
:101AD0007F7F7F7F84B00A4603460390029103987C
:101AE000C0697F21884302A9097808430399C86126
:101AF0000192009304B0704782B0014601900198B2
:101B0000C06880221040A022D2438018019AD06081
:101B1000009102B070470000F0B58BB0109C1D46DC
:101B200016460F460590049005980A900991089270
:101B300007930999490310AA12781204114307AABE
:101B400012781202114308AA1278891806910A998C
:101B50004968064A1140069A11430A9A5160039453
:101B60000295019600970BB0F0BDC046C00000FF83
:101B7000B0B58EB013460C4605460D900C910B92F5
:101B80000AA8012101700C98002809930894079570
:101B90000DD1FFE70B984078C006002807D5FFE776
:101BA0000B984178EF2211400A314170FFE70C9801
:101BB000002801D1FFE700E0FFE70D9800F074F87E
:101BC0000D9800F099F8012851D0FFE70C980028F3
:101BD0000ED0FFE70D980B990A788B784C78C9786E
:101BE0006D46296011461A462346FFF795FF2AE005
:101BF0000D980B990A788B780A240690184605915F
:101C0000214604920394FEF791FA00010843C2B200
:101C10000598407803990292FEF788FA000108437C
:101C2000C3B20598C07803990193FEF77FFA0001CB
:101C30000843C0B26946086006980499029A019B5D
:101C4000FFF76AFFFFE7BF4800F018F80D9800F0B3
:101C5000B8F8002806D1FFE70D9800F092F90AA91C
:101C6000087003E00AA800210170FFE7FFE70D9864
:101C700000F039F80AA800780EB0B0BD82B0014675
:101C8000019001988022D243C260009102B0704757
:101C900082B0014601900198CA2242620198532203
:101CA0004262009102B0704782B0014601900198F3
:101CB000CA224262019853224262009102B07047E8
:101CC00082B00146019001980022D243C260009187
:101CD00002B0704782B0014601900198FF22426233
:101CE000009102B0704782B0014601900198FF2236
:101CF0004262009102B0704780B586B001460590FF
:101D00007D20C000049003A8002202700598019174
:101D100000F041F8002830D1FFE70598FFF7D0FF29
:101D2000059800F038F80290FFE704980021002899
:101D3000009106D0FFE70298401E411E88410090A6
:101D4000FFE70098C007002816D0FFE700F03AFA36
:101D5000012804D1FFE70498401E0490FFE705988E
:101D600000F019F802900498002804D1FFE703A8B6
:101D700001210170FFE7D8E7FFE703A8007806B06C
:101D800080BD82B0014601900198806840221040D9
:101D9000009102B0704782B0014601900198C0687E
:101DA000402210408009009102B0704782B0014685
:101DB00001900198C068202210404009009102B0B3
:101DC000704782B00146019001988068202210403F
:101DD0004009009102B07047F0B58BB0109C1D46D1
:101DE00016460F460590049005980A9009910892AE
:101DF0000793099908AA12781204114307AA1278C6
:101E00001202114310AA1278114306910A99096827
:101E1000054A1140069A11430A9A116003940295EB
:101E2000019600970BB0F0BD808080FFB0B58EB0FA
:101E300013460C4605460D900C910B920AA8012101
:101E400001700C9800280993089407950CD1FFE7BE
:101E50000D98FFF796FF002801D0FFE703E00B98ED
:101E600000210160FFE70BE00D98FFF78AFF0028D3
:101E700001D0FFE703E00B9800210160FFE7FFE7D7
:101E80000D98FFF711FF0D98FFF736FF012851D08D
:101E9000FFE70C9800280ED0FFE70D980B990A6811
:101EA0000B794C7989796D46296011461A4623468B
:101EB000FFF792FF2AE00D980B990A680B790A2424
:101EC000069018460591214604920394FEF72EF9D8
:101ED00000010843C2B20598407903990292FEF7C7
:101EE00025F900010843C3B205988079039901934D
:101EF000FEF71CF900010843C0B269460860069865
:101F00000499029A019BFFF767FFFFE70D48FFF76F
:101F1000B5FE0D98FFF755FF002806D1FFE70D9895
:101F200000F02FF80AA9087003E00AA80021017048
:101F3000FFE7FFE70D98FFF7D6FE0AA800780EB07E
:101F4000B0BDC0460028004082B001460190019813
:101F5000826801239B021A438260009102B070479D
:101F600084B00A46034603900291039880680721D3
:101F7000884302990843039988600192009304B052
:101F8000704780B58AB0014609907D20C000089056
:101F900007A80022027009980591FFF7ADFD099886
:101FA000FFF704FF0690FFE708980021002804913E
:101FB0000BD0FFE70698012100280390029101D180
:101FC0000398029002980490FFE70498C007002845
:101FD00016D0FFE700F0F6F8012804D1FFE70898D3
:101FE000401E0890FFE70998FFF7E0FE069008986A
:101FF000002804D1FFE707A801210170FFE7D3E71C
:1020000007A80078012830D0FFE77D20C0000890A5
:102010000998FFF7CBFE0690FFE7089800210028FB
:10202000019106D0FFE70698401E411E88410190AD
:10203000FFE70198C007002816D0FFE700F0C2F8BC
:10204000012804D1FFE70898401E0890FFE709988F
:10205000FFF7ACFE06900898002804D1FFE707A818
:1020600001210170FFE7D8E7FFE707A800780AB071
:1020700080BD000080B586B00A46034605900491F5
:1020800003A80121017005980292019300F03CF829
:10209000002833D1FFE7059800681A4908400499E1
:1020A0000A684B681A438B681A43CB681A430B695A
:1020B0001A434B691A438B691A43CB691A43096A5D
:1020C0000A43104305990860059840680421884335
:1020D0000499C98A0843059948600498006A012157
:1020E0004903884206D1FFE705980499496A00F040
:1020F0001FF8FFE703A800210170FFE703A800789D
:1021000006B080BD4000FFFF82B0014601900198FB
:102110000068402210408009009102B0704782B0F0
:10212000014601900198C068C0B2009102B07047AA
:1021300084B00A4603460390029102A800880399DE
:1021400008610192009304B0704784B00A460346C8
:102150000390029103984068102188430299084334
:10216000039948600192009304B0704785B00A4615
:102170000346049003A8017004980C300290039861
:10218000029908700192009305B0704770B584B051
:102190000A4603460390029102A80078800008498D
:1021A0004058029C250C0F26AE40B043039EAE4023
:1021B0003043E4B2A40060500192009304B070BDBB
:1021C000080001400E480068012109040840000C85
:1021D0007047C04682B001460190019804280091E2
:1021E00006D1FFE70648016804221143016005E0BB
:1021F00003480168042291430160FFE702B0704781
:1022000010E000E082B0014601900198024A10609F
:10221000009102B07047C0460800002082B001461D
:102220000190019842680923DB029A4342600198B9
:1022300082682A239A438260009102B0704782B07C
:10224000014601900198026801239A4302600091BF
:1022500002B0704782B001460190019802680123E4
:102260001A430260009102B07047000080B588B048
:102270000A4603460790069105A801210170002037
:10228000049007980392029300F048F800283CD18C
:10229000FFE7079800681F49084006994A68CB681D
:1022A0001A430B691A4389690A4310430799086066
:1022B00007980699896800F087F807980699496990
:1022C00000F070F807981449884205D1FFE70C2008
:1022D000FFF788FA049000E0FFE70498002813D085
:1022E000FFE70698006800280ED0FFE705A8002148
:1022F000017007980499069A9369126801921A4628
:10230000019B00F015F8FFE7FFE705A8007808B08B
:1023100080BDC046F369FFEF0044004082B0014633
:1023200001900198006801221040009102B07047AE
:10233000F0B58BB01C4615460E4607460A9009912B
:102340000892079308980121C903884204940395D1
:102350000296019718D1FFE70998400007994A08AB
:102360008018FDF7E3FE80B2069006980C490840FD
:10237000059006980E2108404008059901430591F3
:1023800005980A99C86009E0099807994A088018D1
:10239000FDF7CCFE80B20A99C860FFE70BB0F0BD34
:1023A000F0FF000084B00A460346039002910398B0
:1023B00080680321090288430299084303998860D1
:1023C0000192009304B0704784B00A46034603901C
:1023D0000291039840680321090388430299084346
:1023E000039948600192009304B0704784B00A4694
:1023F0000346039002A80170007803998862019255
:10240000009304B0704784B00A460346039002A8C4
:1024100001700078039988620192009304B07047BC
:102420000948006809490A68094B98540868401C23
:10243000C217920E82183F239A43801A08600548FB
:10244000012101607047C04624480040E0000020A0
:102450009C000020DC00002010B59EB000201D90E4
:102460001C901B901A9019901890179016900421A8
:1024700015900846FFF732F801201490FFF72EF868
:102480000220FFF72BF80520000708211390129176
:10249000FEF749FF1498010213981191FEF743FFCC
:1024A0001498C10213981091FEF73DFF52480F9007
:1024B0001299FEF738FF10200F990E9008460E99DA
:1024C000FEF731FF20200F990D9008460D99FEF779
:1024D0002AFF1298169014991791159A189219922A
:1024E0001A9216AB139819460C93FEF7ADFE11998C
:1024F0001691149A1792159B189319931A93139C7B
:102500000B9020460C99FEF79FFE10991691149A95
:102510001792159B189319931A93139C0A902046AF
:102520000C99FEF791FE12991691149A1792159B29
:10253000189319931A930F9C099020460C99FEF753
:1025400083FE0E991691149A1792159B189319935E
:102550001A930F9C089020460C99FEF775FE0D9972
:102560001691149A1792159B189319931A930F9C0E
:10257000079020460C99FEF767FE2049149A0690B2
:102580001046FFF703FE1E491498FFF7FFFD402099
:102590000F99059008460599159AFEF753FF80207C
:1025A0000F99049008460499159AFEF74BFF0F986F
:1025B0000599159AFEF7FEFE0F980499159AFEF7F5
:1025C000F9FE05981C901CA9149A0A71159B4B7171
:1025D0008A7108460391FEF79FFD04991C91149A95
:1025E000039B1A71159C5C719A7102901846FEF754
:1025F00093FD01901EB010BD0004005001000800C2
:1026000001000C0070B598B000201790169015903E
:10261000149013901290119010900F900E900D90B6
:102620000C9001218A040B9010460A91FEF7E4FCFD
:102630000A98FEF753FF0A980C9002210D9103228D
:102640000E920B9B0F9310930624119405252D07D2
:102650000CAE2846099131460892079406950596D6
:10266000FEF7F2FD09990C910D91089A0E920B9BC1
:102670000F931093079C1194069D0490284605998A
:10268000FEF7E2FD1D21039008460B9A02911146C8
:1026900000F038F9029800F025F94B20C0011290A3
:1026A0000B981390149015900C21169117900348D5
:1026B00012A9FEF769FF019018B070BD00480040F4
:1026C00080B586B000200590049003900290FFF73B
:1026D00009F802200190029900F014F9019800F025
:1026E00001F9029803907F210491FF21059105498A
:1026F00008460091FFF728FC00980299FFF730FC8C
:1027000006B080BD0028004070B59EB014A82821F6
:102710000D90FDF76CFD0020139012901190109019
:102720000F900E9001210A030C9010460B91FEF7BA
:1027300077FC0B98FEF7D2FE20200E9002200F901F
:10274000032110910C9A11921292139205231B07E8
:102750000EAC0A9018460991214608930794FEF79B
:1027600073FD40210E910A9A0F92099B10930C9CC5
:10277000119412941394089D06902846079E059183
:102780003146FEF761FD80210E910A990F91099A59
:1027900010920C9B119312931393089C0490204663
:1027A0000799FEF751FD0C99149141229200159260
:1027B0001691179118910B9A530219931A911B9124
:1027C0001C9107231D930E4B039018460D990293FD
:1027D000FFF750FC0299019008460C99FFF7B5FCF1
:1027E00002980168059A1140402906D0FFE7044885
:1027F0000168402211430160FFE71EB070BDC04672
:102800000030014070B59AB00020199018901790D0
:1028100016901590149013901290119010900F90A4
:102820000E900D9001214A040C9010460B91FEF77A
:10283000E3FB0B98FEF752FE0B9841020D9102212B
:102840000E9103220F920C9B109311930424129467
:1028500005252D070DAE28460A91314609920894A8
:1028600007950696FEF7F0FC0B998A020D920A9ADC
:102870000E92099B0F930C9C10941194089D129535
:10288000079E059030460699FEF7DEFC1C21049059
:1028900008460C9A0391114600F034F8039800F0B2
:1028A00021F84B20C00113900C98149015901690AD
:1028B0000C21179118901990084913AA0846029103
:1028C0001146FFF7D3FC029901900846FFF7A6FCDA
:1028D0000298FFF7BFFC1AB070BDC046004400402C
:1028E0007047000082B0014601AA107010781F22C4
:1028F00010400122824002480260009102B07047FD
:1029000000E100E070B584B00A46034603AC2070D5
:102910000291207840B20028019200931BDAFFE771
:1029200003A801780F22114008390323DB43194023
:10293000164C0959007840B28507ED0EFF26AE40CF
:10294000B143029EB601F6B2AE40314310400838A2
:102950001840015116E003A8017849B20322D2437E
:102960001140094BC958007840B28407E40EFF2596
:10297000A540A943029DAD01EDB2A54029431040F9
:10298000C150FFE704B070BD00E400E01CED00E0C2
:102990007047000080B584B001460390039802910F
:1029A0000190FEF7AFFEC0B200090349085C01992F
:1029B000C140084604B080BD002F000880B584B037
:1029C00001460390039802910190FEF7A1FE000AD0
:1029D0000349085C0199C140084604B080BDC04667
:1029E000102F000880B582B0FEF7F6FE01460C28D5
:1029F000009128D80098C046784400794000874468
:102A0000062222220F2222221B2222221E00FEF751
:102A100081FF400B401C01218140C80301901BE055
:102A2000FEF744FF002803D0FFE72448019002E0AE
:102A300021480190FFE70FE0214801900CE000F0F1
:102A40000FF8019008E0FEF765FF400B401C0121E4
:102A50008140C8030190FFE7019802B080BDC046E5
:102A600080B584B0FEF78CFF0290029800280CD14C
:102A7000FFE7FEF71BFF002803D0FFE70F48039096
:102A800002E00D480390FFE702E00D480390FFE7E6
:102A900003980190FEF77AFF800C0A49085C0199BF
:102AA00048430090FEF766FF800D411C0098FDF73B
:102AB0003DFB04B080BDC0460024F40000093D0089
:102AC00000127A00182F00080A480068C005002884
:102AD0000ED5FFE7084801210160064802680B0295
:102AE0009A4302600548026849040A430260FFE70E
:102AF0007047C0460C280040E40000201404014048
:102B000080B582B02A480190FFF7C2F80198FEF71D
:102B1000B5FF1048016805229202114301600921A6
:102B20000198FEF7D7FF0C490198FEF7BFFF019807
:102B3000FEF7B0FF0198FFF7CDF8084801680122C1
:102B4000520411430160064801681143016002B05C
:102B500080BDC046082800400080808000040140FD
:102B60000804014070B58CB00B46044615460B9125
:102B70000A90100E09A9C870100C8870100A4870CD
:102B80000A700B4800220AAE08900791114606927F
:102B90003246059304940395FFF748F9089902908B
:102BA00008460699079AFEF7E3FF01900CB070BD46
:102BB000002800407047704780B584B00020FEF7C1
:102BC00033FBFEF72BFB002803D0FFE7FDF719FDD1
:102BD000FFE70120C002FEF775FDFEF793FEFFE759
:102BE000FEF79EFE012801D0FFE7F9E701208003F0
:102BF000FEF7B0FE00200390FEF79CFEFEF75AFDA4
:102C0000FEF778FDFEF7C8FE0398FEF76DFEFEF7AF
:102C100053FEFFE7FEF758FE012801D0FFE7F9E772
:102C200001200004FEF7F8FEFEF75CFD0020029094
:102C3000FEF7BAFE0298FEF7C5FE0298FEF7D0FE38
:102C40000298FEF7F9FEFFE7FEF7C0FD002801D06D
:102C5000FFE7F9E7012080040190FEF753FC042010
:102C6000FFF7B8FA0198FFF7CDFA0448FEF7F4FE33
:102C70000020FEF7C3FE04B080BDC04604000C0077
:102C800010B51148016801221302194301600F4970
:102C90000B680F4C23400B6003680E4C234003600D
:102CA0000D4B1C6894431C6003689404A3430360A9
:102CB0000868FD231B049843086008480021016050
:102CC000D0060749086010BD001002400C100240F9
:102CD0000C40FF88F6FFF6FE08100240101002407C
:102CE00008ED00E082B0014601AA10801F480023D1
:102CF00003601F48036010881E4A1060012082078D
:102D00001368034313600091FFE718480068C00789
:102D1000002801D1FFE7F8E7002002B07047C04665
:102D200006480168012211430160832040000449E4
:102D30000860900701681143016070473810024035
:102D40002800004082B0014601AA108007480023F5
:102D50000360074803601088064A1060012082075C
:102D6000136803431360009102B0704710000040E5
:102D7000240000402C0000400748006807490A680A
:102D8000074B98540868401CC217920E82183F23C4
:102D90009A43801A08607047244400405000002085
:102DA0001000002002480168202211430160704792
:102DB0001404005080B58AB00020099001210690CB
:102DC00008460591FEF72CF905980007FEF714F95F
:102DD000FFF7F2FEFFF740FBFFF772FCFFF794FCF2
:102DE000FFF710FDFFF70EFC18480490FFF727FAD5
:102DF00017480390FEF7B2FB0398016820221143A5
:102E0000016004990B6813430B60FEF7B2FB049852
:102E1000FFF720FA62B6FFF773FEFFF781FFFFF7B7
:102E2000C1FFFDF7D1FDFDF7BDFD069808900790A5
:102E3000FDF76CFC0290FFE7FDF7CCFF64210190E9
:102E40000846FFF74FFF0090F6E7C04600440040F9
:102E500000480040004870470400002002E008C815
:102E6000121F08C1002AFAD170477047002001E004
:102E700001C1121F002AFBD1704700404040404072
:102E8000404040404141414141404040404040403D
:102E90004040404040404040404040050202020265
:102EA000020202020202020202020220202020206C
:102EB0002020202020020202020202029090909024
:102EC0009090101010101010101010101010101002
:102ED0001010101010100202020202028888888866
:102EE0008888080808080808080808080808080862
:102EF0000808080808080202020240007B2E0008A9
:102F00000000000000000000010203040607080999
:102F10000000000001020304030406080C1018203E
:102F2000302C0000482F0008000000201000000096
:102F30005C2E0008582F000810000020D804000064
:102F40006C2E0008000000000000000000000000DF
:082F5000000020000000000059
:04000005080000C12E
:00000001FF
