:020000040800F2
:10000000F0040020D5000008890C00084908000809
:1000100000000000000000000000000000000000E0
:10002000000000000000000000000000A90D000812
:1000300000000000000000008B0C0008AB0D000861
:100040000501000805010008190D00080501000858
:100050000501000805010008050100080501000868
:100060000000000005010008050100080501000866
:100070000501000805010008000000000501000856
:100080000000000000000000000000000000000070
:100090000501000800000000000000000501000844
:1000A0000000000005010008000000000000000042
:1000B000350F0008550C000800000000000000008B
:1000C0000348854600F000F900480047710F00081A
:1000D000F00400200C4880F308880C480168090EE1
:1000E0000B4A914205D10B480B4901600B480C4962
:1000F00001600C4880470C480047FEE7FEE7FEE73A
:10010000FEE7FEE7FEE70000F00400200400000028
:100110001F000000341002400100000000000140F8
:1001200000000000950E0008C100000830B50B4625
:10013000014600202022012409E00D46D5409D42C1
:1001400005D31D469540491B254695404019154647
:10015000521E002DF1DC30BDF0B51FB40646002064
:1001600082B005464024019100901BE0019922468F
:100170000F46304600F096F8049A059B801A994184
:1001800010D310461946224600F07CF8361A8F41EB
:100190000197224601200021009F00F073F83818D3
:1001A0004D4100902046641E0028DFDC019B009832
:1001B0002946324607B0F0BD03460B439B0703D0E8
:1001C00009E008C9121F08C0042AFAD203E00B781C
:1001D0000370401C491C521EF9D27047D2B201E094
:1001E0000270401C491EFBD270470022F6E710B592
:1001F00013460A4604461946FFF7F0FF204610BD95
:10020000421C0178401C0029FBD1801A704703462C
:100210000A780270401C491C002AF9D11846704720
:1002200070B5104D002800D12868002414E00A465B
:1002300002E09E4203D0521C1378002BF9D1DAB2AF
:10024000224307D0002B06D0002C04D000210170DF
:10025000401C04E00446401C0678002EE7D12860CC
:10026000204670BD000000200122D207002800DBDC
:10027000101A002900DB511A814201D80120704771
:100280000020704710B5202A04DB0146203A914037
:10029000002010BD914020239C1A0346E3401943DF
:1002A000904010BD10B5202A04DB0846203AD0400B
:1002B000002110BD0B46D340D0402024A21A91400B
:1002C0000843194610BD0000064C0125064E05E006
:1002D000E36807CC2B430C3C98471034B442F7D367
:1002E000FFF7F2FE3C1300085C1300080349C860E6
:1002F00008684006FCD500207047C0461C440040FA
:1003000070B50C460546002603E0A85DFFF7EEFF3A
:10031000761CA642F9DB002070BD10B5002302E078
:10032000C45C9C545B1C8B42FADB002010BD0000B7
:1003300058484169C907FCD1016801220A4302609B
:100340000020704710B5002302E0D45CC4545B1C4D
:100350008B42FADB002010BD01464120C3004D4A0C
:10036000106818431060002008605169C907FCD16B
:100370005169890701D4C043704702215161116856
:10038000994311607047C0461CB50C4C019441481C
:100390000168C90703D0344981603449816001A8EC
:1003A00004212F4AFFF7B9FF00F064F82046FFF759
:1003B000D3FFFFF7BDFF002002B010BD00370008DB
:1003C000F0B589B005AC0EC4074608A80421244E38
:1003D0003246FFF7B7FF0024089D2248854201D925
:1003E000E4433AE02B480168C90703D01E49816005
:1003F0001E49816011980490109803900F98029004
:100400000E98019028462030307000F033F86806CE
:1004100002D12846FFF7A0FF154E38462946B047BF
:10042000291D0598B047294608310698B047294646
:100430000C310798B047294610310198B04729463A
:1004400014310298B047294618310398B0471C353B
:1004500004982946B047FFF76BFF204609B0F0BD6E
:1004600014000808FEFF0008EFCDAB890504030265
:10047000A1040008002007490A68920701D4C0437C
:100480007047054ACA60054ACA600A6802239A434F
:100490000A60704704200240BFAE9D8C16151413ED
:1004A00072B6094A1368DB07FCD108601068C00700
:1004B000FCD162B600201168890701D4C04370479F
:1004C000022111607047C04618200240012000023E
:1004D000D9490A6802430A607047C046D548016896
:1004E00010220A43026070470020064906A205E078
:1004F0000B681B06FCD4135C0B71401C1028F7D151
:100500000020704708300140B56206010800F10084
:10051000010101010100053FF0B5A9B0019009A852
:100520007D21FFF762FE9849C1480862012500203D
:10053000964B049008952F46039004460246029578
:100540000646F80700D118E10898411E04293046F4
:100550002F46F5D830462F467944097949008F4413
:10056000030214384D00EBE70020187119680906E2
:10057000FCD45968C9B20327089724292F46DFD035
:10058000B52900D1F1E00120F0E0174600201871F4
:1005900019680906FCD4596809AA9155CAB2012103
:1005A000FF2A089100D1D3E02A2A00D0CFE01871A9
:1005B00019680906FCD45968187118680006FCD43B
:1005C000586809A880190A2181700D214170052100
:1005D000BEE00020187118680006FCD4586809A90C
:1005E0008855C1B20120FF29089002D069480160F6
:1005F00004207C2E00DDAFE00890ADE0059209AF4D
:100600007D213846FFF77CFE387850283ED109A975
:100610004A785020552A39D18978422936D1089410
:10062000374609A85A4E3146FFF7FAFD002427E065
:1006300000203146FFF7F4FD0146A01E06281ED813
:10064000784400794000874403090E141A1A1900EF
:100650004D480A30FFF7DBFD022410E008784A49D4
:10066000087503240BE048481530FFF7D0FD04243B
:1006700005E008784449C877052400E01724641C85
:10068000152CD5DD09A800783E46089C09A900274D
:1006900005220892472830463C4B059A00D04FE788
:1006A00048784E28304600D04AE7887852283046AD
:1006B00000D045E7C8784D28304600D040E709A86B
:1006C000FFF79EFD059A079000273D460499039B7E
:1006D000069703E06D1C14463A46069F079885422C
:1006E0003DD209A8405D2C28274600D017462C286B
:1006F0002A4600D022462C2800D15B1C002911D1AB
:10070000022B0FD1F8430592321809A8C019411CD9
:100710001D4834461E46FFF74FFD059A33462646D0
:100720000121D7E70A2BD5D10491F843144632189A
:1007300009A8C019411C1448001DFFF73DFD0A20FF
:10074000039030463A46029D104B069FF8E603217F
:100750007C2E3A4600DC0891701C2F46F0E603938D
:1007600004913046029D094BEAE604200890B52921
:1007700001D03046F1E70020EFE703492422019839
:10078000FFF71AFD29B0F0BDA40000200830014099
:100790003713000828440040F0B591B0234C24489A
:1007A0002062244801681022914301600120060262
:1007B000214F3868304338609625284600F092FB78
:1007C0003868B0433860284600F08CFBFFF78CFE99
:1007D0001A4800F0A5FB1A4F1A4D0EE03046294684
:1007E000FFF742FD00280CD108AE3046FFF794FE1B
:1007F000242220463146FFF7DFFC3868266AC0070E
:10080000ECD0206806906068079027460837ACCF88
:10081000A169E4696846A0C0003052C006980799F3
:10082000FFF7CEFD002011B0F0BDC046C80000208B
:10083000804FC3471404005014000050307500006E
:100840001000004000007041FEE7000081B0054943
:100850000A6802430A60096801400091009801B0EB
:100860007047C0463810024081B005490A6802430B
:100870000A60096801400091009801B07047C046C5
:100880003410024010B5014602680079002810D0EB
:10089000002A15D04879204B022813D0012814D003
:1008A00000281AD15868904358601868104318609F
:1008B00011E019480168914301604168914341602A
:1008C000002010BD1868104301E0186890431860BC
:1008D000586810435860002000E0012089790329FE
:1008E0000DD8C0467944097949008F4409010A0DA1
:1008F000D9689143D96099681143996010BD01206E
:1009000010BD9968914301E0996811439960D968D5
:100910001143D96010BDC04600040140F8B500265F
:100920003AE00124B4402340002B34D000961C460A
:100930005C434D6826466E43032767430268BA430B
:1009400032430260FE436A1E012A05D88A68624368
:1009500087683740174387600A696243C768374032
:100960001743C760022D009E15D14D69FF2B08D893
:10097000644365430F226243036A93432B4303623C
:1009800009E01A0A5243524355430F235343426A24
:100990009A432A434262761C0B681C46F440C0D13D
:1009A0004A68521E012A05D8C968594342689A43C9
:1009B0000A434260002001B0F0BD000081B005494B
:1009C0000A6802430A60096801400091009801B07A
:1009D0007047C0462C10024080B57D21C900FFF74A
:1009E000A5FB401E03494860002088600520086080
:1009F00080BDC04610E000E070B5054600680124E7
:100A0000C0072BD10E46286815490140706808437D
:100A1000F1680143306908432860B168032002038C
:100A20006B6893430B436B6071690202AB6893433D
:100A30000B43AB60800200F017F800280ED032683C
:100A4000002A0BD0010E530800020024C018614197
:100A50002346FFF781FB03490140E960204670BD52
:100A6000F3E9FFEFFFFF0F0010B5974CE16C014079
:100A70000A20C141032906D002290AD001290DD13B
:100A800000F004F910BD0120C103206D8001084071
:100A900010BD2068400710D4002010BD00F0F6F80B
:100AA000E168E2685205520F244B9A5C0906090F6F
:100AB000234B595CC840D04010BD2068C00601D50A
:100AC000934810BD914810BD10B5014600200C2977
:100AD0002ED1EE4CE16C0C220A40032189045118FE
:100AE000154A89188908032906D002290AD0012944
:100AF00010D100F0CBF810BD0120C103206D8001A2
:100B0000084010BD2168490712D52068C00610D5DD
:100B10007F4810BD00F0BAF8E168E2685205520F54
:100B2000064B9A5C0906090F054B595CC840D0403A
:100B300010BD764810BDC0460000F4FF2613000823
:100B400016130008FFB5026852062AD40268174C33
:100B5000144064C90B6800934B6801938B68CF689D
:100B600002970F69039722432A433243009C224392
:100B7000019C22431A43029C2243039C22434C695A
:100B80002243026042680425AA431B0C13434360BE
:100B90000122530300220C399C4203D1898C01614C
:100BA00000E00122104604B0F0BDC0464000FFFF47
:100BB000014908607047C0460400002070B50D462A
:100BC00001680124C9071BD101681F4A0A406968EE
:100BD0001143EA680A4329691143AA690A4302607A
:100BE000A9680322130346689E430E434660696961
:100BF0001202836893430B438360144EB04201D0CA
:100C0000204670BD0C20FFF75FFF0028F8D0296850
:100C10000029F5D00122D203AB690D4C93420AD1D1
:100C200040004A081018FFF781FA04400007400FFF
:100C30002043F06006E04A081018FFF777FA0F34F7
:100C40000440F4600024DBE7F369FFEF0044004058
:100C5000F0FF00000848006808490A68084B9854EB
:100C6000084801230360501CC217920E82183F23CC
:100C70009A43801A086070472448004054000020BE
:100C800064000020600000207047704780B59149E3
:100C9000C8680007800F012808D0022804D0032864
:100CA00009D100F013F880BD174880BD0868C00660
:100CB00008D5174880BD0120000449680904490F80
:100CC000884080BD114880BD0010024080B50D49AC
:100CD0000868C00306D408460C380068C00603D56F
:100CE0000B4A02E0084A00E0084A08688002000F48
:100CF000084B185C504309680902890F491CFFF72B
:100D000015FA80BD0C10024000127A000024F40095
:100D100000093D002E13000808480168C9050BD5DD
:100D2000074901220A60110203688B4303605004E3
:100D300004490A6802430A607047C0460C28004014
:100D4000EC0000201404014010B51448CA21C16110
:100D50005321C16101210A02036893430360052303
:100D60009B0204681C430460436909241C437623E6
:100D70009C43446143690A4C1C4380239C43446167
:100D8000036813430360FF22C261480405490A68EF
:100D900002430A608A6802438A6010BD0828004046
:100DA000008080800004014070477047F8B53449E6
:100DB0000A68012082430A600968324E3168324A6B
:100DC0001140C302C91831600402424D2968214311
:100DD0002960430229681942FCD007214F036A6841
:100DE000BA438703D2196A60FF2212066F689743DD
:100DF0006F60326822433260C2042E6D16432E6546
:100E00002E6D96432E652A6D1F4E32402A652A6D3F
:100E100022432A652A6D1A42FCD0032632042B6D28
:100E2000934302049A182A658404286D2043286598
:100E3000E868F0229043E8600802EA688243EA60CA
:100E4000C802E9688143E960E868B043E860E8689F
:100E50000007800FFBD12046FFF7BEFD0C4801685C
:100E60000427394301602046FFF7A2FEE86C3843AF
:100E700008218843E864B002E96C8143E964F8BD65
:100E80000020024000700040FFE7FFFF001002401A
:100E900010E000E0012002020E490B6813430B60D2
:100EA000CA680D4B1340CB600A680C4B13400B60B3
:100EB0008A6882438A6082040B6893430B60FD2238
:100EC0001204CB689343CB6000220A61C006044938
:100ED00008607047001002400C40FF88F6FFF6FEE5
:100EE00008ED00E00122910700230B614B62C8620C
:100EF0000868104308600869C007FCD000207047EC
:100F000006480168012211430160900783214900CE
:100F100081620168114301607047C0463810024089
:100F200001218A07002313615362D06210680843CD
:100F3000106070470748006807490A68074B9854D3
:100F4000501CC217920E82183F239A43801A0860E1
:100F50007047C046244400400800002014000020D0
:100F60000248016820220A430260704714040050BE
:100F7000A0B001242046FFF777FC20070590FFF77B
:100F800065FCFFF713FF00261B961A9615960420A2
:100F90000A90CC4DA8472046A84702200F90A847AA
:100FA0000520070708230793BB6220020C90B86254
:100FB000E0020890B862C44A9362102009909062DF
:100FC00020200D9090621496139610A858C010AD72
:100FD000BE4A38460E9729469047149613961296A5
:100FE00011940C98109038462946B84A90471496A8
:100FF0001396129611940898109038462946B34FCC
:10100000B8473A4614961396129611940798109082
:10101000AD4F3846294617469047149613961296B8
:10102000119409981090A8482946B8473A46149652
:101030001396129611940D981090A34807462946CE
:1010400090470F200102A24A13688B430C9959184C
:101050001160000311688143250348191060F86886
:101060009C490840F860F8689B4A1040F86038686E
:10107000084038603868104038601AAFBC71BC80D6
:10108000402006901A903846FFF7FCFBBC71BC80EC
:10109000802002901A903846FFF7F4FBA2040B94CC
:1010A0008E480168049211430160FF2008900004FB
:1010B0008B491C390A6882430A608A480A99016090
:1010C000A202894801680392114301600168072266
:1010D0000192914301602846FFF7C6FB20467949FB
:1010E00088471F961E961D9603251C950F9F1B97DC
:1010F0000D981A901AA900910E9C2046734A9047A9
:101100001F961E961D961C951B9706981A902046B2
:10111000009C21466D4FB8471F961E961D96079559
:101120001C950F981B9002981A900B9D0E982146C3
:10113000B847019819901896179616962C4668028B
:10114000029015901496139612960C98001D11900B
:101150001096664D10A92846FFF7F4FC68680999B7
:10116000884368602868400603D4286806990843C5
:1011700028606004FFF76AFB2046FFF71FFC0A9F08
:101180001F971E961D96079C1C940F981B90029803
:101190001A901AA90C910E9D28464C4A90471F9709
:1011A0001E961D961C940F981B9003981A90284623
:1011B0000C99464A90474A4801460068089A90436D
:1011C0000860059847490860169615960C200C9003
:1011D00014901396129611964B20C0010A9010900D
:1011E000434D10A92846FFF7E9FC0920C0026968B1
:1011F00081436960A8682A218843A86028680B9FFA
:10120000384328600498FFF721FB3846FFF7D6FBE8
:10121000062009901F901E961D961C940F9C1B94EF
:101220001A971AAD0E9F38462946284A90470998C2
:101230001F901E961D9607981C901B941A94384672
:101240002946224A904708980002254A116881439E
:1012500011600B9C60072349086015960C98149048
:101260001396129611960A981090224D10A92846AE
:10127000FFF7C2FBE0431E4A116801401160296874
:101280000140296028680D990843286010680843C8
:10129000106028682043286010682043106062B600
:1012A000FFF752FDFFF72CFEFFF75AFEFFF716F986
:1012B000FFF70CF9FFF768F8FFF76EFA6420FFF705
:1012C00011FEF9E7BD090008000400501D090008DF
:1012D0000C000140FFCFFFFFFF3FFFFF5010024017
:1012E0001CE400E000E100E008280040003001407C
:1012F000004400400048004002E008C8121F08C136
:10130000002AFAD170477047002001E001C1121F86
:10131000002AFBD17047000000000000000001021D
:101320000304060708090000000001020304030487
:1013300006080C101820302C000000006013000874
:101340000000002008000000F812000868130008E0
:1013500008000020E8040000081300080000000056
:08136000000000000000200065
:04000005080000C12E
:00000001FF
