:020000040800F2
:10000000A8040020D5000008B90D0008610300080D
:1000100000000000000000000000000000000000E0
:10002000000000000000000000000000710F000848
:100030000000000000000000490E0008730F0008D7
:100040000501000805010008050100080501000878
:100050000501000805010008050100080501000868
:100060000000000005010008050100080501000866
:100070000501000805010008000000000501000856
:100080000000000000000000000000000000000070
:100090000501000800000000000000000501000844
:1000A0000000000005010008000000000000000042
:1000B000C5110008B10900080000000000000000A0
:1000C0000348854600F0B2F8004800474512000892
:1000D000A80400200C4880F308880C480168090E29
:1000E0000B4A914205D10B480B4901600B480C4962
:1000F00001600C4880470C480047FEE7FEE7FEE73A
:10010000FEE7FEE7FEE70000A80400200400000070
:100110001F000000341002400100000000000140F8
:10012000000000005D110008C100000830B50B465A
:10013000014600202022012409E00D46D5409D42C1
:1001400005D31D469540491B254695404019154647
:10015000521E002DF1DC30BDF0B51FB40646002064
:1001600082B005464024019100901BE0019922468F
:100170000F46304600F049F8049A059B801A9941D1
:1001800010D310461946224600F02FF8361A8F4138
:100190000197224601200021009F00F026F8381820
:1001A0004D4100902046641E0028DFDC019B009832
:1001B0002946324607B0F0BDD2B201E00270401CC1
:1001C000491EFBD270470022F6E710B513460A46D7
:1001D00004461946FFF7F0FF204610BD421C017887
:1001E000401C0029FBD1801A704710B5202A04DB7F
:1001F0000146203A9140002010BD914020239C1AD6
:100200000346E3401943904010BD10B5202A04DB9B
:100210000846203AD040002110BD0B46D340D040C4
:100220002024A21A91400843194610BD064C01250E
:10023000064E05E0E36807CC2B430C3C984710348E
:10024000B442F7D3FFF740FFB0130008D013000803
:10025000014600BF0548816200BF00BF0348C06976
:10026000402210404028F9D100207047004400404F
:1002700030B503460C46002504E01878FFF7E8FF88
:100280005B1C6D1CA542F8DB002030BD70470000F0
:1002900000B50346FF2000F047F800BF0248C068E1
:1002A000C0B2187000BD00000030014005200007FA
:1002B0004069FF2101310843052109074861704762
:1002C000052000074069FF21013188430521090706
:1002D00048617047034840691021884301494861DB
:1002E0007047000000040050F0B505460E462C464D
:1002F000002714E02046FFF7CBFF2078FF2802D12B
:100300000120C043F0BD20780A2801D10020F9E780
:100310002078002801D1401EF4E7641C7F1CB742FE
:10032000E8DB0020C043EDE70549087300BF00BFCC
:1003300003498968082211400029F9D1704700005B
:100340000030014070B503460C46002505E01E78DC
:100350003046FFF7E9FF5B1C6D1CA542F7DB70BD63
:1003600000BFFEE708B50549896B0143034A916365
:100370001146896B0140009100BF08BD001002408A
:1003800008B50549496B0143034A51631146496B5E
:100390000140009100BF08BD0010024002494968B9
:1003A0008143014A516070470004014002490968D5
:1003B0008143014A116070470004014002494968C5
:1003C0000143014A51607047000401400249C96875
:1003D0000143014AD16070470004014002490968A5
:1003E0000143014A116070470004014002498968D5
:1003F0000143014A916070470004014070B5044612
:100400000025207900284DD02068002850D0607940
:10041000002804D0012809D0022815D10DE0206859
:10042000FFF7BCFF2068FFF7D9FF0FE02068FFF758
:10043000BDFF2068FFF7C2FF08E02068FFF7CEFF8E
:100440002068FFF7BBFF01E0012500BF00BFA079D6
:1004500000282DD0A079012804D002280DD003282F
:100460001DD115E020681349C9688143114AD16044
:1004700000BF2068FFF7BAFF13E020680D498968C4
:1004800081430C4A916000BF2068FFF79FFF08E09E
:100490002068FFF7ABFF2068FFF798FF01E0012518
:1004A00000BF05E02068FFF781FF2068FFF776FFB7
:1004B000284670BD00040140F0B502460B460026F8
:1004C000002162E00124B440186820400146002960
:1004D0005AD0586814680D464D436F00ED19AC436F
:1004E0000D464D4345432C43146000BF5868012816
:1004F00002D0586802280DD1986894680D464D4383
:100500006F00ED19AC430D464D4345432C439460B9
:1005100000BF00BF1869D4680D464D436F00ED1948
:10052000AC430D464D4345432C43D46000BF58684F
:10053000022829D1FF2911D85869146A0D464D4364
:100540004D434D432F017D1BAC430D464D434D4361
:100550004D4345432C43146200BF15E05F69080A10
:1005600040430C0A60430C0A60430401241A506A99
:10057000A0430C0A64430D0A6C430D0A6C437C4390
:100580002043506200BF00BF761C1868F04000286E
:1005900098D15868012802D05868022809D1DC682F
:1005A000186855688543074667433D43556000BF5B
:1005B00000BF0020F0BD8162704730B503680C4673
:1005C0004C4365006419A3430C464C4354432343F6
:1005D000036030BD30B5C3680C464C4365006419F8
:1005E000A3430C464C4354432343C36030BD000037
:1005F00008B50549C96A0143034AD1621146C96A6F
:100600000140009100BF08BD0010024070B50446D3
:100610007D25ED0029462046FFF788FD401E044950
:100620004861002088610520086100BF70BD00009E
:1006300000E000E0FEB504460D46012002900026D1
:1006400000BF2068C007C00F012148404840002873
:1006500037D1E968686808432969084321681A4A5C
:10066000114008432060A868616803221203914387
:100670000143616000BF6869A168121191430143A1
:10068000A16000BF900000F02DF80646002E18D0A3
:100690002868002815D0002002902F68FF21013122
:1006A000304600F0A7FD7A080023801859413A46E9
:1006B00001910090FFF750FD04490840E06000BF41
:1006C00000BF0298FEBD0000F3E9FFEFFFFF0F003F
:1006D0000348006901218904084301490861704702
:1006E00040100240F8B50446002500BF1948C06814
:1006F0002040002820D001218902401A04D0401A4D
:1007000006D0401A17D10FE000F0C4FB05461DE0EB
:1007100000F066F8002806D000F06AF8002801D042
:100720000D4D00E00D4D11E000F06AF8002801D0F9
:100730000125ED030AE000BF00F0ACFB074600F026
:1007400085FB064600F094FB054600BF00BF284627
:10075000F8BD00004010024000093D000024F400F4
:10076000F8B5044600250C2C32D100BF1948C068EA
:100770002040210408432104401A1ED0042804D03C
:10078000082806D00C2817D10FE000F083FB05469F
:100790001DE000F025F8002806D000F029F8002818
:1007A00001D00D4D00E00D4D11E000F029F80028BA
:1007B00001D00125ED030AE000BF00F06BFB074606
:1007C00000F044FB064600F053FB054600BF00BFA7
:1007D0002846F8BD4010024000093D000024F40006
:1007E0000248006804210840800870470010024059
:1007F00002480068102108400009704700100240BC
:1008000003480069012149020840400A704700007E
:1008100040100240024840680721490308407047E1
:100820000010024030B50246012300BF106840248A
:1008300020408009002826D14C68086820438C6835
:100840002043CC6820430C6920434C6920438C69C9
:100850002043CC6920430C6A204314680B4D2C4084
:100860002043106050680424A0434C69240C2043AA
:1008700050605C03086AA04204D1486A84B21461E3
:1008800000BF00BF0023184630BD00004000FFFF3E
:1008900010B5084A0B069B0DD2580C0C0F23A34031
:1008A0009A430C0C0346A3401A43024B0C06A40DBA
:1008B0001A5110BD0800014001490860704700004E
:1008C00020000020016801221143016070470000F0
:1008D000F0B585B004460D46012004900020039039
:1008E000204600F05DF8002850D1E96868680843A8
:1008F00029690843A96908432168264A1140084329
:100900002060A8686168032212039143014361607B
:1009100000BF6869A168121191430143A16000BF43
:100920001D48844203D10C20FFF71AFF039003985F
:1009300000282BD02868002828D000200490039F8E
:10094000A86902902E680121C9030298884214D137
:100950007900720888183146FFF7E8FB80B20190F1
:100960000E4901980840009001980007400F009937
:10097000084300900098E06006E07108C81931460D
:10098000FFF7D4FB80B2E06000BF00BF049805B061
:10099000F0BD0000F369FFEF00440040F0FF0000ED
:1009A00001460868C007C00F012250405040704700
:1009B0000A48406A0A490B4A12688854094909687A
:1009C000481CC117890E091889118901411A054A65
:1009D0001160012004490860704700000048004091
:1009E000640000200C0000201800002000B589B031
:1009F000002007900890182101A8FFF7E4FB0420CD
:100A0000FFF7F6FD0120FFF7F3FD0220FFF7F0FDF1
:100A1000082105200007FFF7CEFDFF210131052049
:100A20000007FFF7C8FD0121C90205200007FFF7F5
:100A3000C2FD08214648FFF7BEFD10214448FFF7DC
:100A4000BAFD20214248FFF7B6FD082001900120A1
:100A50000290002003900490059001A90520000752
:100A6000FFF72AFDFF2001300190012002900020B5
:100A700003900490059001A905200007FFF71CFDD5
:100A80000120C002019001200290002003900490F8
:100A9000059001A905200007FFF70EFD0820019031
:100AA00001200290002003900490059001A928489D
:100AB000FFF702FD1020019001200290002003901A
:100AC0000490059001A92248FFF7F6FC2020019030
:100AD00001200290002003900490059001A91C4879
:100AE000FFF7EAFC1B490120FFF7D2FE1A4901205B
:100AF000FFF7CEFE002240211548FFF76BFD0022D4
:100B000080211348FFF766FD002240211048FFF7BF
:100B100054FD002280210E48FFF74FFD4020079032
:100B2000012108A80170002141700121817007A8EE
:100B3000FFF764FC80200790012108A801700021C4
:100B400041700121817007A8FFF758FC09B000BD72
:100B5000000400500100080001000C0000B58DB039
:100B6000182107A8FFF72FFB182101A8FFF72BFB7F
:100B700001208004FFF7F6FB0120FFF739FD01207B
:100B80000190022002900320039000200490059021
:100B90000620069001A905200007FFF78DFC022022
:100BA00001900290032003900020049005900620FD
:100BB000069001A905200007FFF77EFC00211D20FB
:100BC00000F006F91D2000F0F9F84B20C001079055
:100BD0000020089009900A900C200B9000200C90A7
:100BE00007A90248FFF726FD0DB000BD00480040F0
:100BF0000EB50020009001900290FFF769FD0020E3
:100C000000907F200190FF20029000BF084880687C
:100C10000121890208430649886000BF00208968D5
:100C2000C908C9000143024A916000BF0EBD00001F
:100C30000028004000B591B0282107A8FFF7C3FAAB
:100C4000182101A8FFF7BFFA01200003FFF798FB66
:100C50000120FFF7CDFC202001900220029003200C
:100C60000390002004900590069001A9052000073C
:100C7000FFF722FC40200190022002900320039005
:100C8000002004900590069001A905200007FFF7B9
:100C900013FC80200190022002900320039000208A
:100CA00004900590069001A905200007FFF704FCB9
:100CB00000200790FF2005300890002009900A903E
:100CC0000B90012040020C9000200D900E900F9090
:100CD0000720109007A90748FFF7A4FD0020054949
:100CE0004968102291430143024A516000BF11B08C
:100CF00000BD00000030014000B58DB01C2106A8E9
:100D0000FFF761FA18216846FFF75DFA01204004F9
:100D1000FFF728FB0120FFF76BFC01204002009049
:100D200002200190032002900020039004900420F0
:100D30000590694605200007FFF7BEFB01208002F1
:100D40000090022001900320029000200390049064
:100D500004200590694605200007FFF7ADFB002140
:100D60001C2000F035F81C2000F028F84B20C001B2
:100D7000069000200790089009900C200A9000200F
:100D80000B900C9006A90B48FFF7A2FD00BF094885
:100D900040680921C90288430649486008468068BE
:100DA0002A2188430349886000BF0846FFF78AFD6F
:100DB0000DB000BD0044004070470000C206D20ED6
:100DC00001219140014A11607047000000E100E0FC
:100DD00010B5002819DA1A4A03071B0F083B9B08B5
:100DE0009B00D2588307DC0EFF23A3409A438B0756
:100DF0001B0E8407E40EA3401A43114B0407240F73
:100E0000083CA408A4001A5118E00E4A03231B0250
:100E1000D21883089B00D2588307DC0EFF23A3401F
:100E20009A438B071B0E8407E40EA3401A43054B1D
:100E3000032424021B198408A4001A5110BD0000C9
:100E40001CED00E000E100E070470000014600BF3B
:100E50000548C068F022104010400009034A125CA7
:100E60000846D04070470000001002408C13000874
:100E7000014600BF0548C068072212021040000A60
:100E8000034A125C0846D040704700000010024040
:100E90009C13000810B500BF1648C0680C2108401C
:100EA000002806D004280CD0082812D00C2816D10F
:100EB00011E0FFF7AFFC400B401C01218140CC0347
:100EC00015E0FFF795FC002801D00B4C00E00B4C1F
:100ED0000DE00B4C0BE000F015F8044607E0FFF7BF
:100EE00099FC400B401C01218140CC0300BF00BF96
:100EF000204610BD0010024000093D000024F4000F
:100F000000127A00F8B500BF1448C0680121090436
:100F100008400546002D07D1FFF76AFC002801D0E4
:100F20000F4C00E00F4C01E00F4C00BF00BF00BFB2
:100F30000A48C068032189050840800D461C0748FF
:100F4000C0680F2189040840800C0849085C604390
:100F500007463146FFF7EAF8F8BD000000100240EE
:100F600000093D000024F40000127A00A4130008D8
:100F70007047704710B50020734909684908490057
:100F80000143714A116000BF00BF10460068C007EE
:100F9000C00F002801D0FFF779F90120C0026B498A
:100FA00009680322D20291430143684A116000BFDD
:100FB00000BF67480068911508436549086000BF95
:100FC00000BF00BF62480068012149020840400A92
:100FD0000028F6D048015E49496807225203914330
:100FE00001435B4A516000BF002011464968090275
:100FF000090A02061143564A516000BF00BF534818
:101000000068911508435149086000BF00BF50486F
:10101000403000690121C90408434D49403108614D
:1010200000BF00BF084600690121C9048843484940
:101030004031086100BF002009690322D2029143B8
:101040000143434A4032116100BF00BF10460069AE
:10105000911508431146086100BF00BF00BF3C481E
:1010600040300069012149020840400A0028F5D0BB
:10107000C8013749403109690322120491430143F1
:10108000334A4032116100BFFFF722FB0020304994
:10109000C968F022914301432D4AD16000BF00BFCF
:1010A0001146C9680722120291430143284AD160C0
:1010B00000BF00BF1146C9680722D2029143014315
:1010C000234AD16000BF00BF1146C9688908890062
:1010D0000143D16000BF00BF00BF1D48C0680C21A4
:1010E00008400028F8D101208004FFF78FFA04207F
:1010F000042806D11749096904221143154A1161D0
:1011000005E01449096904229143124A116100BFA4
:1011100001208004FFF7D0FB0F480D494031C9681A
:10112000020C914382B21143094A4032D16000BFA0
:1011300000201146C9680322920291430143044AE8
:101140004032D16000BF10BD00200240007000405E
:101150000010024000E000E004000C0015480068A8
:10116000FF2101310843134908600846C06812494D
:1011700008401049C86008460068104908400D49F9
:10118000086008468068400840008860084600689B
:10119000012189048843074908600846C068FD2189
:1011A000090488430349C86000200861C803044952
:1011B00088607047001002400C40FF88F6FFF6FE82
:1011C00000ED00E00848406A0849094A126888545E
:1011D00007490968481CC117890E09188911890136
:1011E000411A034A11607047004400402400002067
:1011F00000000020F8B582B28BB2040C0D0C104632
:101200005843002126465E43370C36048019794145
:1012100016466E43370C36048019794126466E43D4
:101220008919F8BD02E008C8121F08C1002AFAD1C6
:1012300070477047002001E001C1121F002AFBD156
:10124000704700008EB00120FFF79AF801200007D8
:10125000FFF788F8FFF78EFEFFF7C8FBFFF7C8FC23
:10126000FFF7E8FCFFF748FDFFF778FC00BF3D48BB
:101270000068400840003B49086000BF00BF3A4892
:101280000068400840003849086000BF0846006810
:10129000202108433449086032480068202108436F
:1012A0003049086000BF30480068012108432E49DA
:1012B000086000BF2B48FFF705FB62B62B480068AB
:1012C00040210840402804D02848006808432749A6
:1012D0000860FEF7FFFFFEF7E9FFFEF7F1FF0024CD
:1012E00012E0322101A8FEF7FFFF002807D101A874
:1012F000FEF774FF0546294601A8FEF7B9FF342121
:1013000001A8FEF760FF641C1E2CEADBFEF7CEFF8F
:10131000FEF7D6FF1A2116A0FFF714F80D20FFF7ED
:1013200003F80A20FFF700F8FEF7C0FFFEF7C8FF3A
:1013300016E0002412E0322101A8FEF7D5FF0028B4
:1013400007D101A8FEF74AFF0546294601A8FEF786
:101350008FFF342101A8FEF736FF641C0F2CEADB57
:10136000E7E7000000440040004800400030014032
:10137000505542582C34302C524D432C312C312CAA
:10138000312C312C312C302A343600000000000082
:101390000000000001020304060708090000000025
:1013A00001020304030406080C101820300000009A
:1013B000D0130008000000202400000024120008C0
:1013C000F4130008240000208404000034120008F4
:1013D000000000000000000000000000000000000D
:1013E00000000000000000000000000000000000FD
:0413F00000002000D9
:04000005080000C12E
:00000001FF
