:020000040800F2
:10000000B8040020D50000082114000825060008C7
:1000100000000000000000000000000000000000E0
:10002000000000000000000000000000D1160008E1
:100030000000000000000000B1140008D316000802
:100040000501000805010008D91500080501000890
:100050000501000805010008050100080501000868
:100060000000000005010008050100080501000866
:100070000501000805010008000000000501000856
:100080000000000000000000000000000000000070
:100090000501000800000000000000000501000844
:1000A0000000000005010008000000000000000042
:1000B00099190008F90F0008000000000000000076
:1000C0000348854600F0D0F800480047491A000868
:1000D000B80400200C4880F308880C480168090E19
:1000E0000B4A914205D10B480B4901600B480C4962
:1000F00001600C4880470C480047FEE7FEE7FEE73A
:10010000FEE7FEE7FEE70000B80400200400000060
:100110001F000000341002400100000000000140F8
:1001200000000000BD180008C100000830B50B46F3
:10013000014600202022012409E00D46D5409D42C1
:1001400005D31D469540491B254695404019154647
:10015000521E002DF1DC30BDF0B51FB40646002064
:1001600082B005464024019100901BE0019922468F
:100170000F46304600F066F8049A059B801A9941B4
:1001800010D310461946224600F04CF8361A8F411B
:100190000197224601200021009F00F043F8381803
:1001A0004D4100902046641E0028DFDC019B009832
:1001B0002946324607B0F0BDD2B201E00270401CC1
:1001C000491EFBD270470022F6E710B513460A46D7
:1001D00004461946FFF7F0FF204610BD70B5104DDC
:1001E000002800D12868002414E00A4602E09E425C
:1001F00003D0521C1378002BF9D1DAB2224307D076
:10020000002B06D0002C04D000210170401C04E01B
:100210000446401C0678002EE7D12860204670BDB9
:100220003000002010B5202A04DB0146203A91401E
:10023000002010BD914020239C1A0346E34019433F
:10024000904010BD10B5202A04DB0846203AD0406B
:10025000002110BD0B46D340D0402024A21A91406B
:100260000843194610BD0000064C0125064E05E066
:10027000E36807CC2B430C3C98471034B442F7D3C7
:10028000FFF722FF101B0008301B0008014600BFCB
:100290000548816200BF00BF0348C069402210408A
:1002A0004028F9D1002070470044004030B5034693
:1002B0000C46002504E01878FFF7E8FF5B1C6D1C76
:1002C000A542F8DB002030BD7047704705200007CD
:1002D0004069FF2101310843052109074861704742
:1002E000052000074069FF210131884305210907E6
:1002F000486170470348406910210843014948613B
:1003000070470000000400500348406910218843F2
:100310000149486170470000000400501FB50DA35B
:100320000FCB6C460FC40024002004460DE000BF34
:100330000C488068802108408028F9D06846015D1B
:10034000084800F0BDFD601C0446102CEFDB04B033
:1003500010BD0000B56206010800F10001010101B5
:100360000100053F00300140F0B5ABB00024012092
:100370002A9080210AA8FFF726FF002600270020E8
:10038000089005E12A98012806D003281ED00428E9
:1003900062D0052819D17EE00021804800F090FD50
:1003A00000BF7E488068802108408028F9D07B48C3
:1003B00000F082FD0446242C02D103202A9000265E
:1003C000B52C02D1002604202A90E0E000217348D9
:1003D00000F076FD00BF71488068802108408028C9
:1003E000F9D06E4800F068FD04460AA88455FF2C39
:1003F00002D101202A9000E000BF0AA8805D2A28CF
:1004000028D10021654800F05BFD00BF634880688B
:10041000802108408028F9D0604800F04DFD08A9EF
:10042000087100215D4800F04BFD00BF5B4880680B
:10043000802108408028F9D0584800F03DFD08A9E7
:1004400048710D210AAA701C11540A21B01C1154C4
:1004500005202A90761C9AE00021504800F030FDDB
:1004600000BF4E488068802108408028F9D04B4862
:1004700000F022FD04460AA88455FF2C02D1012079
:100480002A9006E0FF2C04D000BF4548846200BFDC
:1004900000BF761C7BE07D210AA8FFF707FF08A8B4
:1004A000007A50284AD108A8407A552846D108A891
:1004B000807A422842D13BA10AA8FFF78FFE054669
:1004C000002739E037A10020FFF788FE05463B00F2
:1004D00001F09CFA09300625292A2B30302F3000F4
:1004E000287830380A214843697830394018C1B239
:1004F00068460171A87830380A214843E9783039D4
:100500004018C1B268464171287930380A21484301
:10051000697930394018C1B2684681710AE028789B
:100520006946087406E005E004E028786946087624
:1005300000E000BF00BF7F1C162FC3DB08A8007AB5
:10054000472821D108A8407A4E281DD108A8807AD2
:10055000522819D108A8C07A4D2815D111A10AA88E
:10056000FFF73CFE054600270CE00EA10020FFF738
:1005700035FE0546082F04D100216846817241727C
:10058000C1727F1C162FF0DB0120089000BF00BF56
:100590000898002800D1F5E62BB0F0BD00300140EE
:1005A000004400402C00000000B58DB0202105A8BB
:1005B000FFF709FE19480C90FFF7A6FEFFF786FE2D
:1005C000962001F0AFF9FFF78BFE052001F0AAF9A4
:1005D000FFF7A4FE124801F0D1F902E005A8FFF7E9
:1005E000C3FE012080070069C007C00F0028F5D0B6
:1005F0000C980F28F2DC05A8C07A002803D005A8C3
:1006000007C801F057F809A80FC803936B4607C342
:1006100005A80FC8FFF759FE0DB000BD0F27000059
:100620003075000000BFFEE708B50549896B01433E
:10063000034A91631146896B0140009100BF08BDD8
:100640000010024008B50549496B0143034A516354
:100650001146496B0140009100BF08BD00100240E7
:10066000024949688143014A5160704700040140D2
:10067000024909688143014A116070470004014042
:10068000024949680143014A516070470004014032
:100690000249C9680143014AD16070470004014022
:1006A000024909680143014A116070470004014092
:1006B000024989680143014A916070470004014082
:1006C00070B504460025207900284DD02068002808
:1006D00050D06079002804D0012809D0022815D113
:1006E0000DE02068FFF7BCFF2068FFF7D9FF0FE09F
:1006F0002068FFF7BDFF2068FFF7C2FF08E0206811
:10070000FFF7CEFF2068FFF7BBFF01E0012500BF28
:1007100000BFA07900282DD0A079012804D002289C
:100720000DD003281DD115E020681349C968814305
:10073000114AD16000BF2068FFF7BAFF13E02068BC
:100740000D49896881430C4A916000BF2068FFF71A
:100750009FFF08E02068FFF7ABFF2068FFF798FFD6
:1007600001E0012500BF05E02068FFF781FF206858
:10077000FFF776FF284670BD00040140F0B5024641
:100780000B460026002162E00124B4401868204096
:10079000014600295AD0586814680D464D436F0031
:1007A000ED19AC430D464D4345432C43146000BF47
:1007B0005868012802D0586802280DD198689468BA
:1007C0000D464D436F00ED19AC430D464D43454377
:1007D0002C43946000BF00BF1869D4680D464D4398
:1007E0006F00ED19AC430D464D4345432C43D46097
:1007F00000BF5868022829D1FF2911D85869146A06
:100800000D464D434D434D432F017D1BAC430D46DB
:100810004D434D434D4345432C43146200BF15E007
:100820005F69080A40430C0A60430C0A60430401F4
:10083000241A506AA0430C0A64430D0A6C430D0A43
:100840006C437C432043506200BF00BF761C186895
:10085000F040002898D15868012802D05868022832
:1008600009D1DC68186855688543074667433D43EE
:10087000556000BF00BF0020F0BD8162704730B5F9
:1008800003680C464C4365006419A3430C464C4373
:1008900054432343036030BD30B5C3680C464C431A
:1008A00065006419A3430C464C4354432343C3607F
:1008B00030BD000008B50549C96A0143034AD16249
:1008C0001146C96A0140009100BF08BD00100240F6
:1008D00070B504467D25ED0029462046FFF726FC2D
:1008E000401E04494861002088610520086100BF5E
:1008F00070BD000000E000E0FEB504460D4601209A
:100900000290002600BF2068C007C00F01214840A8
:100910004840002837D1E9686868084329690843D6
:1009200021681A4A114008432060A86861680322C0
:10093000120391430143616000BF6869A16812110D
:1009400091430143A16000BF900000F02DF80646DE
:10095000002E18D02868002815D0002002902F689B
:10096000FF210131304601F039F87A080023801860
:1009700059413A4601910090FFF7EEFB04490840C7
:10098000E06000BF00BF0298FEBD0000F3E9FFEF8A
:10099000FFFF0F0003480069012189040843014952
:1009A0000861704740100240F8B50446002500BFBA
:1009B0001948C0682040002820D001218902401A2F
:1009C00004D0401A06D0401A17D10FE000F096FD6F
:1009D00005461DE000F066F8002806D000F06AF831
:1009E000002801D00D4D00E00D4D11E000F06AF837
:1009F000002801D00125ED030AE000BF00F07EFDD4
:100A0000074600F057FD064600F066FD054600BFAC
:100A100000BF2846F8BD00004010024000093D001C
:100A20000024F400F8B5044600250C2C32D100BF98
:100A30001948C0682040210408432104401A1ED0F0
:100A4000042804D0082806D00C2817D10FE000F0A5
:100A500055FD05461DE000F025F8002806D000F001
:100A600029F8002801D00D4D00E00D4D11E000F0F7
:100A700029F8002801D00125ED030AE000BF00F0AD
:100A80003DFD074600F016FD064600F025FD054633
:100A900000BF00BF2846F8BD4010024000093D00DD
:100AA0000024F400024800680421084080087047D0
:100AB00000100240024800681021084000097047F9
:100AC0000010024003480069012149020840400A21
:100AD0007047000040100240024840680721490367
:100AE0000840704700100240F8B5069CF0252540EC
:100AF0002D042607360B35434E033543F0261E40A2
:100B000036021F073F0D3E433543F02616401707B8
:100B10003F0F3E43354300954568034E3540009EE8
:100B200035434560F8BD0000C00000FFF7B584B054
:100B30000D46144601200390002D09D16078102144
:100B40000840102804D16078EF2108400A30607016
:100B5000002D00D100E000BF049800F055F8049883
:100B600000F05AF8012843D0002D08D0E07800901A
:100B70006378A27821780498FFF7B6FF29E0E0783F
:100B80000A21FFF7D3FA0701E0780A21FFF7CEFA2E
:100B90000F43FEB260780A21FFF7C8FA07016078B8
:100BA0000A21FFF7C3FA0F43F8B20290A0780A2196
:100BB000FFF7BCFA0701A0780A21FFF7B7FA0F4345
:100BC000F8B20096019021780246029B0498FFF744
:100BD0008BFF0A4800F014F8049800F058F8002839
:100BE00004D1049800F0EAF8039001E0002003909B
:100BF000049800F00EF8039807B0F0BD00280040FC
:100C00008021C943C1607047CA21416253214162BA
:100C10007047FF2141627047F8B505467D20C0004E
:100C200000900026284600F026F800281CD100BFBE
:100C3000401EE86000BF284600F01DF804460EE0A4
:100C400000F054F9012802D10098401E0090284677
:100C500000F011F804460098002800D10126009801
:100C6000002801D0012CEBD13046F8BD0146886840
:100C70004022104070470146C86840221040800959
:100C800070470146C868202210404009704701465D
:100C9000886820221040400970470000F8B5069C83
:100CA000F02515402D041607360B35430D43F0266D
:100CB0001E4036021F073F0D3E433543F0262640B7
:100CC00027073F0F3E43354300950568024E3540E8
:100CD000009E35430560F8BD808080FFF7B584B085
:100CE0000D46144601200390002D09D10498FFF70A
:100CF000BDFF002800D002E00020206000BF09E016
:100D00000498FFF7B3FF002800D002E00020206025
:100D100000BF00BF0498FFF777FF0498FFF77CFF40
:100D2000012843D0002D08D0A07900906379227962
:100D300021680498FFF7B2FF29E0A0790A21FFF7A4
:100D4000F5F90701A0790A21FFF7F0F90F43FEB288
:100D500060790A21FFF7EAF9070160790A21FFF7B4
:100D6000E5F90F43F8B2029020790A21FFF7DEF986
:100D7000070120790A21FFF7D9F90F43F8B200964D
:100D8000019021680246029B0498FFF787FF0A48FA
:100D9000FFF736FF0498FFF77AFF002804D1049884
:100DA00000F00CF8039001E0002003900498FFF796
:100DB00030FF039807B0F0BD00280040F8B50446A6
:100DC0007D20C0000090002500BFE0688021084021
:100DD000A021C9430843E06000BF2046FFF751FF50
:100DE00006460EE000F082F8012802D10098401E6D
:100DF00000902046FFF745FF06460098002800D1E6
:100E000001250098002801D0002EEBD1012D1BD028
:100E10007D20C00000902046FFF733FF06460EE01D
:100E200000F064F8012802D10098401E009020468E
:100E3000FFF727FF06460098002800D101250098FB
:100E4000002801D0012EEBD12846F8BD30B502466E
:100E5000012300BF1068402420408009002826D1CB
:100E60004C68086820438C682043CC6820430C6998
:100E700020434C6920438C692043CC6920430C6A91
:100E8000204314680B4D2C4020431060506804240C
:100E9000A0434C69240C204350605C03086AA042C4
:100EA00004D1486A84B2146100BF00BF0023184611
:100EB00030BD00004000FFFF0146C868C0B2704767
:100EC0000173704710B5084A0B069B0DD2580C0CE5
:100ED0000F23A3409A430C0C0346A3401A43024B32
:100EE0000C06A40D1A5110BD08000140034800690A
:100EF000012109040840000C7047000000E000E0F8
:100F000001490860704700002C00002001680122A0
:100F10001143016070470000F0B585B004460D46EE
:100F20000120049000200390204600F05DF8002886
:100F300050D1E9686868084329690843A9690843EA
:100F40002168264A114008432060A868616803228E
:100F5000120391430143616000BF6869A1681211E7
:100F600091430143A16000BF1D48844203D10C207E
:100F7000FFF758FD0390039800282BD0286800281D
:100F800028D000200490039FA86902902E680121B8
:100F9000C9030298884214D1790072088818314632
:100FA000FFF7C4F880B201900E4901980840009004
:100FB00001980007400F0099084300900098E060F6
:100FC00006E07108C8193146FFF7B0F880B2E0605A
:100FD00000BF00BF049805B0F0BD0000F369FFEF4B
:100FE00000440040F0FF000001460868C007C00F41
:100FF00001225040504070470A48406A0A490B4A53
:101000001268885409490968481CC117890E0918D3
:1010100089118901411A054A1160012004490860BB
:1010200070470000004800407400002018000020B5
:101030002400002000B589B00020079008901821F6
:1010400001A8FFF7C0F80420FFF734FC0120FFF7E8
:1010500031FC0220FFF72EFC082105200007FFF7D6
:101060000CFCFF21013105200007FFF706FC0121E0
:10107000C90205200007FFF700FC08214648FFF7DA
:10108000FCFB10214448FFF7F8FB20214248FFF702
:10109000F4FB0820019001200290002003900490AE
:1010A000059001A905200007FFF768FBFF2001302C
:1010B000019001200290002003900490059001A966
:1010C00005200007FFF75AFB0120C0020190012014
:1010D0000290002003900490059001A905200007CC
:1010E000FFF74CFB082001900120029000200390A4
:1010F0000490059001A92848FFF740FB10200190BB
:1011000001200290002003900490059001A922483C
:10111000FFF734FB20200190012002900020039073
:101120000490059001A91C48FFF728FB1B490120EA
:10113000FFF7C8FE1A490120FFF7C4FE0022402134
:101140001548FFF7A9FB002280211348FFF7A4FBF5
:10115000002240211048FFF792FB002280210E4818
:10116000FFF78DFB40200790012108A801700021A6
:1011700041700121817007A8FFF7A2FA8020079033
:10118000012108A80170002141700121817007A888
:10119000FFF796FA09B000BD0004005001000800F6
:1011A00001000C0000B58DB0182107A8FFF70BF85F
:1011B000182101A8FFF707F801208004FFF734FA8F
:1011C0000120FFF777FB012001900220029003200D
:1011D00003900020049005900620069001A90520A8
:1011E0000007FFF7CBFA0220019002900320039042
:1011F0000020049005900620069001A90520000714
:10120000FFF7BCFA00211D2000F016F91D2000F0A8
:1012100009F94B20C00107900020089009900A901E
:101220000C200B9000200C9007A90248FFF764FBEC
:101230000DB000BD004800400EB5002000900190A8
:101240000290FFF7A7FB0021022000F0F5F8022032
:1012500000F0E8F8002000907F200190FF2002902D
:1012600000BF084880680121890208430549886059
:1012700000BF00208968C908C9000143014A916084
:1012800000BF0EBD0028004000B591B0282107A87E
:10129000FEF799FF182101A8FEF795FF0120000332
:1012A000FFF7D0F90120FFF705FB20200190022075
:1012B000029003200390002004900590069001A95D
:1012C00005200007FFF75AFA402001900220029003
:1012D00003200390002004900590069001A90520AA
:1012E0000007FFF74BFA80200190022002900320B4
:1012F0000390002004900590069001A905200007A6
:10130000FFF73CFA00200790FF20053008900020EE
:1013100009900A900B90012040020C9000200D9043
:101320000E900F900720109007A90C48FFF78EFD34
:1013300000200A494968102291430143074A51603D
:1013400000BF1046006840210840402804D01046E5
:10135000006808431146086011B000BD003001402C
:1013600000B58DB01C2106A8FEF72DFF1821684698
:10137000FEF729FF01204004FFF756F90120FFF78F
:1013800099FA01204002009002200190032002906F
:101390000020039004900420059069460520000772
:1013A000FFF7ECF901208002009002200190032059
:1013B00002900020039004900420059069460520C7
:1013C0000007FFF7DBF900211C2000F035F81C2096
:1013D00000F028F84B20C0010690002007900890EC
:1013E00009900C200A9000200B900C9006A90B4845
:1013F000FFF792FD00BF094840680921C9028843F0
:1014000006494860084680682A2188430349886065
:1014100000BF0846FFF77AFD0DB000BD0044004054
:1014200070470000C206D20E01219140014A1160AE
:101430007047000000E100E010B5002819DA1A4AF0
:1014400003071B0F083B9B089B00D2588307DC0E49
:10145000FF23A3409A438B071B0E8407E40EA3408F
:101460001A43114B0407240F083CA408A4001A5186
:1014700018E00E4A03231B02D21883089B00D2589F
:101480008307DC0EFF23A3409A438B071B0E8407C0
:10149000E40EA3401A43054B032424021B198408BD
:1014A000A4001A5110BD00001CED00E000E100E0B6
:1014B00070470000014600BF0548C068F022104098
:1014C00010400009034A125C0846D04070470000F3
:1014D00000100240EC1A0008014600BF0548C06831
:1014E000072212021040000A034A125C0846D0404C
:1014F0007047000000100240FC1A000810B500BF41
:101500001648C0680C210840002806D004280CD0DA
:10151000082812D00C2816D111E0FFF7DDFA400B95
:10152000401C01218140CC0315E0FFF7C3FA0028DD
:1015300001D00B4C00E00B4C0DE00B4C0BE000F02D
:1015400015F8044607E0FFF7C7FA400B401C0121DD
:101550008140CC0300BF00BF204610BD00100240F8
:1015600000093D000024F40000127A00F8B500BF25
:101570001448C0680121090408400546002D07D120
:10158000FFF798FA002801D00F4C00E00F4C01E063
:101590000F4C00BF00BF00BF0A48C0680321890587
:1015A0000840800D461C0748C0680F218904084088
:1015B000800C0849085C604307463146FEF7B6FDDB
:1015C000F8BD00000010024000093D000024F400B6
:1015D00000127A00041B00080C48C068FF2101318A
:1015E0000840884210D10120094908600748C068B6
:1015F000FF21013188430549C8600648406901213F
:10160000490408430349486170470000002800402E
:10161000000000200004014000BFCA2021494862A8
:101620005320486200BF00BF084680688915884380
:101630001C49886000BF084680680521890208436C
:10164000184988600920F02101400143154AD269F8
:10165000D209D2011143134AD16100BF1248114689
:10166000C969124A114001430E4AD16100BF00BF4F
:1016700010468068911508431146886000BF00BF7E
:10168000FF20486200BF0A4800680121490408435E
:101690000749086008468068012149040843044955
:1016A0008860704700280040008080807F7F7F7FB7
:1016B0000004014007B56A4600210448FFF70EFB0D
:1016C00002AA00210148FFF731FA0EBD00280040B0
:1016D0007047704710B500207349096849084900F0
:1016E0000143714A116000BF00BF10460068C00787
:1016F000C00F002801D0FEF7E7FD0120C0026B49B2
:1017000009680322D20291430143684A116000BF75
:1017100000BF67480068911508436549086000BF2D
:1017200000BF00BF62480068012149020840400A2A
:101730000028F6D048015E494968072252039143C8
:1017400001435B4A516000BF00201146496809020D
:10175000090A02061143564A516000BF00BF5348B0
:101760000068911508435149086000BF00BF504808
:10177000403000690121C90408434D4940310861E6
:1017800000BF00BF084600690121C90488434849D9
:101790004031086100BF002009690322D202914351
:1017A0000143434A4032116100BF00BF1046006947
:1017B000911508431146086100BF00BF00BF3C48B7
:1017C00040300069012149020840400A0028F5D054
:1017D000C80137494031096903221204914301438A
:1017E000334A4032116100BFFFF7D4F8002030497E
:1017F000C968F022914301432D4AD16000BF00BF68
:101800001146C9680722120291430143284AD16058
:1018100000BF00BF1146C9680722D20291430143AD
:10182000234AD16000BF00BF1146C96889088900FA
:101830000143D16000BF00BF00BF1D48C0680C213C
:1018400008400028F8D101208004FFF741F8042067
:10185000042806D11749096904221143154A116168
:1018600005E01449096904229143124A116100BF3D
:1018700001208004FFF744FB0F480D494031C9683F
:10188000020C914382B21143094A4032D16000BF39
:1018900000201146C9680322920291430143044A81
:1018A0004032D16000BF10BD0020024000700040F7
:1018B0000010024000E000E004000C001548006841
:1018C000FF2101310843134908600846C0681249E6
:1018D00008401049C86008460068104908400D4992
:1018E0000860084680684008400088600846006834
:1018F000012189048843074908600846C068FD2122
:10190000090488430349C86000200861C8030449EA
:1019100088607047001002400C40FF88F6FFF6FE1A
:1019200000ED00E0014600200122920710615062A4
:101930001046C1620068012210439207106000BF88
:10194000012080070069C007C00F0028F8D00020E0
:10195000704700000848806B0121084306498863EE
:10196000FF20073089048862084600680121084387
:101970008907086070470000001002400021012222
:101980009207116151621146C86209680122114330
:1019900092071160704700000848406A0849094AE8
:1019A0001268885407490968481CC117890E09182C
:1019B00089118901411A034A1160704700440040AF
:1019C000340000200C000020034840692021084317
:1019D000014948617047000000040050F8B582B228
:1019E0008BB2040C0D0C10465843002126465E4372
:1019F000370C36048019794116466E43370C36048D
:101A00008019794126466E438919F8BD30B4744671
:101A1000641E2578641CAB4204D3635D5B00E3184D
:101A200030BC18471D46F8E702E008C8121F08C17D
:101A3000002AFAD170477047002001E001C1121F4F
:101A4000002AFBD1704700001CB50120FEF7FAFD0B
:101A500001200007FEF7E8FDFFF73CFEFFF7EAFA7A
:101A6000FFF7EAFBFFF710FCFFF77AFCFFF79AFBA2
:101A700000BF1C480068400840001A49086000BFC9
:101A800000BF19480068400840001749086000BFBF
:101A9000084600682021084313490860114800687F
:101AA000202108430F49086000BF0F48006801214A
:101AB00008430D49086000BF0A48FFF727FA62B6DD
:101AC000FFF7AAFDFFF746FFFFF77EFFFEF712FCC8
:101AD000002001900090FEF7F9FB01E0FEF764FDA5
:101AE000FCE7000000440040004800400000000007
:101AF00000000000010203040607080900000000BE
:101B000001020304030406080C1018203000000032
:101B1000301B00080000002034000000281A0008D4
:101B2000641B00083400002084040000381A0008F8
:101B300000000000000000000000000000000000A5
:101B40000000000000000000000000000000000095
:101B50000000000000000000000000000000200065
:041B60000000000081
:04000005080000C12E
:00000001FF
