:020000040800F2
:10000000A8040020D5000008F1080008B104000889
:1000100000000000000000000000000000000000E0
:10002000000000000000000000000000110A0008AD
:100030000000000000000000F3080008130A000898
:1000400005010008050100088109000805010008F4
:100050000501000805010008050100080501000868
:100060000000000005010008050100080501000866
:100070000501000805010008000000000501000856
:100080000000000000000000000000000000000070
:100090000501000800000000000000000501000844
:1000A0000000000005010008000000000000000042
:1000B0009D0B0008BD0800080000000000000000C3
:1000C0000348854600F0D0F800480047D90B0008E7
:1000D000A80400200C4880F308880C480168090E29
:1000E0000B4A914205D10B480B4901600B480C4962
:1000F00001600C4880470C480047FEE7FEE7FEE73A
:10010000FEE7FEE7FEE70000A80400200400000070
:100110001F000000341002400100000000000140F8
:1001200000000000FD0A0008C100000830B50B46C1
:10013000014600202022012409E00D46D5409D42C1
:1001400005D31D469540491B254695404019154647
:10015000521E002DF1DC30BDF0B51FB40646002064
:1001600082B005464024019100901BE0019922468F
:100170000F46304600F066F8049A059B801A9941B4
:1001800010D310461946224600F04CF8361A8F411B
:100190000197224601200021009F00F043F8381803
:1001A0004D4100902046641E0028DFDC019B009832
:1001B0002946324607B0F0BDD2B201E00270401CC1
:1001C000491EFBD270470022F6E710B513460A46D7
:1001D00004461946FFF7F0FF204610BD70B5104DDC
:1001E000002800D12868002414E00A4602E09E425C
:1001F00003D0521C1378002BF9D1DAB2224307D076
:10020000002B06D0002C04D000210170401C04E01B
:100210000446401C0678002EE7D12860204670BDB9
:100220000000002010B5202A04DB0146203A91404E
:10023000002010BD914020239C1A0346E34019433F
:10024000904010BD10B5202A04DB0846203AD0406B
:10025000002110BD0B46D340D0402024A21A91406B
:100260000843194610BD0000064C0125064E05E066
:10027000E36807CC2B430C3C98471034B442F7D3C7
:10028000FFF722FF9C0F0008BC0F00080349C8605D
:1002900008684006FCD500207047C0461C4400405A
:1002A00070B50C460546002603E0A85DFFF7EEFF9B
:1002B000761CA642F9DB002070BD00000120000280
:1002C00078490A6802430A607047C046744801686A
:1002D00010220A43026070470020064906A205E08A
:1002E0000B681B06FCD4135C0B71401C1028F7D163
:1002F0007047C04608300140B56206010800F100B1
:10030000010101010100053FF0B5A3B003A87D2163
:10031000FFF759FF012400204E4F2546019402901B
:1003200026463AE003AD7D212846FFF7B9FF28783D
:10033000502816D103A94A785020552A11D189781E
:1003400042290ED103A84449FFF748FF162504E0CF
:1003500000204149FFF742FF6D1E002DF8D103A890
:10036000007803A905250026472816D148784E288D
:1003700013D18878522810D1C8784D280DD103A800
:100380003549FFF72BFF162404E000203249FFF720
:1003900025FF641E002CF8D1019CF00758D0681E80
:1003A0000428FCD8784400794000874404031333C0
:1003B0000200B7E7F3E70020387139680906FCD47A
:1003C0007968C9B203252429A9D0B529029839D062
:1003D000012538E00020387139680906FCD47968B5
:1003E00003AA029BD154C9B2FF2926D02A2926D1BB
:1003F000387139680906FCD47968387138680006A4
:10040000FCD4786803A8C0180A2181700D214170BE
:10041000052515E00020387138680006FCD478689E
:1004200003A9029A8854C0B2FF2803D00B49086080
:10043000042500E00125501C71E7012500E003259B
:10044000581C6CE70425B52900D068E7002066E752
:1004500023B0F0BD08300140970F00082844004049
:10046000B0B50F48016810229143016001200402D9
:100470000C4D286820432860962000F067FB286810
:10048000A0432860052000F061FBFFF725FF064828
:1004900000F07AFB054C2068FFF736FFFBE7C0460B
:1004A000140400501400005030750000100000408B
:1004B000FEE7000081B005490A6802430A60096846
:1004C00001400091009801B07047C04638100240CA
:1004D00081B005490A6802430A6009680140009139
:1004E000009801B07047C0463410024010B5014674
:1004F00002680079002810D0002A15D04879204BD6
:10050000022813D0012814D000281AD1586890432B
:10051000586018681043186011E019480168914349
:100520000160416891434160002010BD186810438C
:1005300001E0186890431860586810435860002024
:1005400000E00120897903290DD8C0467944097952
:1005500049008F4409010A0DD9689143D96099680F
:100560001143996010BD012010BD9968914301E0CD
:10057000996811439960D9681143D96010BDC0468C
:1005800000040140F8B500263AE00124B4402340BD
:10059000002B34D000961C465C434D6826466E43C3
:1005A000032767430268BA4332430260FE436A1E70
:1005B000012A05D88A6862438768374017438760F5
:1005C0000A696243C76837401743C760022D009E1F
:1005D00015D14D69FF2B08D8644365430F22624350
:1005E000036A93432B43036209E01A0A52435243BE
:1005F00055430F235343426A9A432A434262761C6F
:100600000B681C46F440C0D14A68521E012A05D826
:10061000C968594342689A430A434260002001B0C6
:10062000F0BD000081B005490A6802430A6009680C
:1006300001400091009801B07047C0462C10024064
:1006400080B57D21C900FFF771FD401E0349486058
:10065000002088600520086080BDC04610E000E0F2
:1006600070B5054600680124C0072BD10E462868E6
:100670001549014070680843F16801433069084337
:100680002860B168032002036B6893430B436B60DF
:1006900071690202AB6893430B43AB60800200F0C8
:1006A00017F800280ED03268002A0BD0010E53082C
:1006B00000020024C01861412346FFF74DFD0349A5
:1006C0000140E960204670BDF3E9FFEFFFFF0F0036
:1006D00010B5974CE16C01400A20C141032906D0B6
:1006E00002290AD001290DD100F004F910BD012022
:1006F000C103206D8001084010BD2068400710D460
:10070000002010BD00F0F6F8E168E2685205520FD3
:10071000244B9A5C0906090F234B595CC840D04012
:1007200010BD2068C00601D5934810BD914810BD8A
:1007300010B5014600200C292ED1EE4CE16C0C22A4
:100740000A40032189045118154A89188908032988
:1007500006D002290AD0012910D100F0CBF810BD33
:100760000120C103206D8001084010BD21684907A8
:1007700012D52068C00610D57F4810BD00F0BAF829
:10078000E168E2685205520F064B9A5C0906090FB0
:10079000054B595CC840D04010BD764810BDC046DE
:1007A0000000F4FF860F0008760F0008FFB502680E
:1007B00052062AD40268174C144064C90B6800938F
:1007C0004B6801938B68CF6802970F6903972243A8
:1007D0002A433243009C2243019C22431A43029C39
:1007E0002243039C22434C69224302604268042551
:1007F000AA431B0C134343600122530300220C390C
:100800009C4203D1898C016100E00122104604B0B2
:10081000F0BDC0464000FFFF014908607047C04678
:100820000400002070B50D4601680124C9071BD1E2
:1008300001681F4A0A4069681143EA680A43296946
:100840001143AA690A430260A96803221303466898
:100850009E430E43466069691202836893430B43CB
:100860008360144EB04201D0204670BD0C20FFF7CB
:100870005FFF0028F8D029680029F5D00122D203B3
:10088000AB690D4C93420AD140004A081018FFF79B
:100890004DFC04400007400F2043F06006E04A088A
:1008A0001018FFF743FC0F340440F4600024DBE72A
:1008B000F369FFEF00440040F0FF000008480068C3
:1008C00008490A68084B9854084801230360501CE3
:1008D000C217920E82183F239A43801A086070470D
:1008E00024480040540000206400002060000020E4
:1008F0007047704780B59149C8680007800F01288C
:1009000008D0022804D0032809D100F013F880BDD4
:10091000174880BD0868C00608D5174880BD01206B
:10092000000449680904490F884080BD114880BD12
:100930000010024080B50D490868C00306D408467F
:100940000C380068C00603D50B4A02E0084A00E0F4
:10095000084A08688002000F084B185C5043096879
:100960000902890F491CFFF7E1FB80BD0C10024012
:1009700000127A000024F40000093D008E0F0008E8
:1009800008480168C9050BD5074901220A60110210
:1009900003688B430360500404490A6802430A60F9
:1009A0007047C0460C280040A400002014040140F9
:1009B00010B51448CA21C1615321C16101210A0245
:1009C00003689343036005239B0204681C4304608F
:1009D000436909241C4376239C43446143690A4CC0
:1009E0001C4380239C434461036813430360FF223C
:1009F000C261480405490A6802430A608A680243E2
:100A00008A6010BD082800400080808000040140FA
:100A100070477047F8B534490A68012082430A607C
:100A20000968324E3168324A1140C302C918316038
:100A30000402424D29682143296043022968194272
:100A4000FCD007214F036A68BA438703D2196A6052
:100A5000FF2212066F6897436F603268224332604C
:100A6000C2042E6D16432E652E6D96432E652A6D9B
:100A70001F4E32402A652A6D22432A652A6D1A428A
:100A8000FCD0032632042B6D934302049A182A6586
:100A90008404286D20432865E868F0229043E860CC
:100AA0000802EA688243EA60C802E9688143E960B3
:100AB000E868B043E860E8680007800FFBD1204693
:100AC000FFF7BEFD0C48016804273943016020464A
:100AD000FFF7A2FEE86C384308218843E864B002BF
:100AE000E96C8143E964F8BD0020024000700040D9
:100AF000FFE7FFFF0010024010E000E001200202CB
:100B00000E490B6813430B60CA680D4B1340CB6052
:100B10000A680C4B13400B608A6882438A60820427
:100B20000B6893430B60FD221204CB689343CB60A8
:100B300000220A61C00604490860704700100240A4
:100B40000C40FF88F6FFF6FE08ED00E00122910759
:100B500000230B614B62C862086810430860086993
:100B6000C007FCD0002070470648016801221143ED
:100B7000016090078321490081620168114301608F
:100B80007047C0463810024001218A0700231361D4
:100B90005362D062106808431060704707480068CD
:100BA00007490A68074B9854501CC217920E8218C6
:100BB0003F239A43801A08607047C046244400408F
:100BC00008000020140000200248016820220A4387
:100BD0000260704714040050A0B001242046FFF7C3
:100BE00077FC20070590FFF765FCFFF713FF002651
:100BF0001B961A96159604200A90CA4DA8472046BF
:100C0000A84702200F90A84705200707082307934D
:100C1000BB6220020C90B862E0020890B862C24A3F
:100C2000936210200990906220200D90906214969B
:100C3000139610A858C010ADBC4A38460E972946E6
:100C4000904714961396129611940C98109038466B
:100C50002946B64A9047149613961296119408980E
:100C6000109038462946B14FB8473A461496139625
:100C70001296119407981090AB4F384629461746A4
:100C80009047149613961296119409981090A648BE
:100C90002946B8473A4614961396129611940D9821
:100CA0001090A1480746294690470F200102A04A0C
:100CB00013688B430C995918116000031168814324
:100CC000250348191060F8689A490840F860F868E8
:100CD000994A1040F8603868084038603868104019
:100CE00038601AAFBC71BC80402006901A9038461C
:100CF000FFF7FCFBBC71BC80802002901A90384644
:100D0000FFF7F4FBA2040B948C4801680492114392
:100D10000160FF200890000489491C390A68824359
:100D20000A6088480A990160A20287480168039214
:100D30001143016001680722019291430160284636
:100D4000FFF7C6FB2046774988471F961E961D96DB
:100D500003251C950F9F1B970D981A901AA90091B7
:100D60000E9C2046714A90471F961E961D961C9514
:100D70001B9706981A902046009C21466B4FB84757
:100D80001F961E961D9607951C950F981B9002980E
:100D90001A900B9D0E982146B84701981990189605
:100DA000179616962C466802029015901496139684
:100DB00012960C98001D11901096644D10A92846AB
:100DC000FFF7F4FC68680999884368602868400662
:100DD00003D428680699084328606004FFF76AFB7B
:100DE0002046FFF71FFC0A9F1F971E961D96079C23
:100DF0001C940F981B9002981A901AA90C910E9DA2
:100E000028464A4A90471F971E961D961C940F9895
:100E10001B9003981A9028460C99444A90474848DA
:100E200001460068089A90430860059845490860A3
:100E3000169615960C200C901490139612961196F7
:100E40004B20C0010A901090414D10A92846FFF791
:100E5000E9FC0920C002696881436960A8682A2109
:100E60008843A86028680B9F384328600498FFF7E0
:100E700021FB3846FFF7D6FB062009901F901E96EF
:100E80001D961C940F9C1B941A971AAD0E9F384602
:100E90002946264A904709981F901E961D96079846
:100EA0001C901B941A9438462946204A904708986B
:100EB0000002234A1168814311600B9C600721499D
:100EC000086015960C9814901396129611960A982D
:100ED0001090204D10A92846FFF7C2FBE0431C4AA2
:100EE00011680140116029680140296028680D9946
:100EF0000843286010680843106028682043286071
:100F000010682043106062B6FFF752FDFFF72CFE19
:100F1000FFF75AFEFFF7DAF9FFF7D0F9FFF7A0FA6B
:100F2000FCE7C046250600080004005085050008BF
:100F30000C000140FFCFFFFFFF3FFFFF50100240BA
:100F40001CE400E000E100E008280040003001401F
:100F5000004400400048004002E008C8121F08C1D9
:100F6000002AFAD170477047002001E001C1121F2A
:100F7000002AFBD1704700000000000000000102C1
:100F8000030406070809000000000102030403042B
:100F900006080C101820302C00000000C00F0008BC
:100FA0000000002008000000580F0008C80F0008CB
:100FB00008000020A0040000680F000800000000E6
:080FC000000000000000200009
:04000005080000C12E
:00000001FF
